:020000040800F2
:100000009806002035020008091D0008011D00089F
:10001000051D0008A91300081D1D000800000000B0
:10002000000000000000000000000000111D00089A
:10003000AD130008000000000D1D0008151D00088C
:100040004F0200084F0200084F0200084F0200084C
:100050004F0200084F0200084F0200084F0200083C
:100060004F0200084F0200084F0200084F0200082C
:100070004F0200084F0200084F0200084F0200081C
:100080004F0200084F0200084F0200084F0200080C
:100090004F0200084F0200084F0200084F020008FC
:1000A0004F0200084F0200084F0200084F020008EC
:1000B0004F0200084F0200084F0200084F020008DC
:1000C0004F0200084F0200084F0200084F020008CC
:1000D0004F0200084F0200084F0200084F020008BC
:1000E0004F0200084F0200084F02000800F002F81B
:1000F00000F090F80AA090E8000C82448344AAF132
:100100000107DA4501D100F085F8AFF2090EBAE82F
:100110000F0013F0010F18BFFB1A43F0010318473B
:10012000142C0000342C0000103A24BF78C878C189
:10013000FAD8520724BF30C830C144BF04680C60ED
:10014000704700000023002400250026103A28BF35
:1001500078C1FBD8520728BF30C148BF0B60704739
:100160006E2900F05981702900F09B82662902F007
:100170004D85652902F04A85672902F04785612986
:1001800002F0468503681B0A28BF41F080016929F7
:1001900000F00681642900F00381752900F00081D8
:1001A0006F2900F02982782900F06782E92900F0A0
:1001B000C381E42900F0C081F52900F0BD81EF2959
:1001C00000F02682F82900F066820368DB0928BF68
:1001D00041F08001632900F06787732900F06C8784
:1001E000E32900F07787F32900F07C87002070472F
:1001F0001FB500F0CDFF04000020002102F0F0FC4C
:10020000401C60600020002102F0D4FCE0601FBDB3
:1002100010B510BD00F08EFF1146FFF7E9FF02F0A8
:1002200043F801F06BF803B4FFF7F2FF03BC01F0F1
:10023000B3F800000948804709480047FEE7FEE799
:10024000FEE7FEE7FEE7FEE7FEE7FEE7FEE7FEE786
:1002500004480549054A064B70470000191D00086F
:10026000ED00000898000020980600209802002069
:10027000980200201CB50C46064B7B446946009052
:10028000204600F0E2F804460020694600F0F0F84D
:1002900020461CBDF301000010B5431C02E010F81D
:1002A000011B71B18107FAD14FF0013202C88C1ADB
:1002B0008C4314EAC211F9D0C01A0A0603D0C01E3A
:1002C00010BDC01A10BD0A0401D0801E10BD090265
:1002D000FCD0401E10BD70477047704770B5044693
:1002E00085690068C10601D5302600E02026C007D8
:1002F00007D070BDD4E9012130469047206A401CE8
:1003000020626D1EF6D570BD70B504468569007813
:10031000C00707D170BDD4E9012120209047206A91
:10032000401C20626D1EF6D570BD09684A0501D5D6
:1003300040B27047C905FCD500B2704709684A054C
:1003400001D5C0B27047C905FCD580B2704770B501
:100350000C460546012A05D02878800600D5EA69B2
:10036000002302E0012305E05B1C934202D2E05C23
:100370000028F9D1A869E618C01AA861286A1844AB
:1003800028622846FFF7AAFF04E0D5E9012114F806
:10039000010B9047B442F8D32846FFF7B5FF70BD74
:1003A0002DE9F0410646002410687529314616A54E
:1003B00010D0FFF7BAFF002802DA404213A507E089
:1003C00031688A0701D512A502E0490704D511A5B5
:1003D000012401E0FFF7B2FF00210A2206F1240701
:1003E00009E0B0FBF2FCB0FBF2F302FB1C00303082
:1003F00078541846491C0028F3D123462A46304633
:10040000BDE8F04100F061BA000000002D000000DE
:100410002B0000002000000011680268006A5305EC
:1004200001D508700AE0D30501D5088006E013065F
:1004300003D5C217C1E9000200E00860012070473F
:1004400001694A1C02610878704700B58FB0CDE998
:1004500001310021059105497944CDE90310114688
:10046000684600F029F90FB000BD0000E5FFFFFF6E
:100470000A6802F8010B0A60704700002DE9FF5F6F
:1004800015468A460446DFF8AC80F8440027D8E9D0
:1004900000103E46CDE9001010E03AF816106A460A
:1004A00002A800F023FE411C07D02178890603D55D
:1004B000E269391891420DD80744761C20788006ED
:1004C00002D5E069B84205DDAE42E6DB3AF8160037
:1004D0000028E2D1A069C01BA0612046FFF7FEFE04
:1004E000D8E90010CDE90010002017E03AF8181004
:1004F0006A4602A800F0FAFDB0F1FF3F81460BD03A
:1005000000250DF1080B05E0D4E901211BF80500D9
:1005100090476D1C4D45F7D308F10100B04280466D
:10052000E4DB206A384420622046FFF7EDFEBDE898
:10053000FF9F0000862700002DE9F0418046D21D74
:1005400022F007020025D2E90002F52915A614D0F1
:10055000011E72F1000106DA0023D0EB030063EB09
:10056000020211A608E0D8F800108B0701D50FA6EB
:1005700002E0490701D50EA601251146002408F125
:10058000240704E000F05CF930323A55641C50EA6C
:100590000102F7D12B46324621464046BDE8F041E4
:1005A00000F093B9000000002D0000002B000000B7
:1005B0002000000030B4002100F1240408E002F023
:1005C0000705D208303542EA4372DB086554491CFE
:1005D00052EA0305F3D10468002310A2250708D5C9
:1005E00004F020040C4304D0C46901230CA2641E4F
:1005F000C46130BC00F069B910B5044621461068EA
:10060000FFF79CFE02462046BDE810400023D1E7DC
:10061000D21D22F00701D1E90023CBE70000000042
:1006200030000000F0B40D460188090502D5214CC8
:100630007C4402E01F4C7C440E34002100F124066F
:1006400008E002F00F071209E75D42EA03721B0996
:100650007754491C52EA0307F3D1027800231207AA
:1006600004D5702D06D009B1022311342246F0BC06
:1006700000F02BB901231034F8E770B504460D469D
:1006800021461068FFF75AFE024629462046BDE87B
:1006900070400023C6E7D21D22F00703D3E90023F0
:1006A000C0E70368126843F0200303600823C361B6
:1006B0000023B7E7E82500002DE9F05F89460446EE
:1006C0004FF0000ADFF874B1FB44C0F820A02046C8
:1006D000E1688847002874D0252806D0D4E9012194
:1006E0009047206A401C2062F1E700265F462046C2
:1006F000E16888472028054607DB312D05D27819A7
:1007000010F8200C08B10643F1E7B00701D526F038
:100710000406C4F81CA00027C4F818A02A2D09D08C
:10072000284602F03FFA38B304EB8708303DC8F89A
:10073000185019E059F8041B204604EB8702916118
:10074000E1688847012F054618D1E069002820DAC2
:1007500026F020061DE0D8F8180000EB800005EB1D
:1007600040003038C8F818002046E1688847054640
:1007700002F018FA0028EED1012F0AD02E2D08D150
:100780002046E16888477F1C0546022F46F0200678
:10079000C4DBA069002803DA404246F00106A061EC
:1007A000F00701D026F010066C2D0BD0682D09D073
:1007B0004C2D39D06A2D35D0742D35D07A2D33D0CB
:1007C00016E038E0E1682F4620468847B8420546E3
:1007D00009D16C2F26D04FF48060E1680643204693
:1007E0008847054604E06C2F1AD04FF4807006430A
:1007F0000DB3A5F14100192802D8203546F4006652
:100800004A462946204626604E46FFF7A9FC80B19D
:1008100001280BD0F61D26F0070000F1080956E765
:100820004020E4E78020D8E70020D6E706F104095D
:100830004DE7284652E7206ABDE8F09F7825000082
:1008400030B5B0F10A0271F100034FEA900E4EEAA2
:10085000817EB0EB0E0061EB91014FEA101E4EEA73
:10086000017E10EB0E0041EB11114FEA102E4EEA03
:10087000016E10EB0E0041EB11214FEA104E4EEAD3
:10088000014E10EB0E0041EB1141401841F1000107
:100890004FEAD00040EA41704FEAD1014FEA8104AB
:1008A00044EA907410EB800544EB01046D1944EBAD
:1008B0000404521BA3414FF0000348BF0A3200D585
:1008C00030BD401C41F1000130BD2DE9F0470D461F
:1008D00099469246044600F124080168880604D52A
:1008E000E06921F01001216000E00120A84201DD53
:1008F000471B00E00027A1697A1902EB0900081ADA
:10090000A0612078C00602D42046FFF7E7FC00264D
:1009100008E0D4E901211AF806009047206A401C3B
:10092000761C20624E45F4DB2078C0060AD52046AE
:10093000FFF7D4FC06E0D4E9012130209047206A7B
:10094000401C2062381EA7F10107F4DC07E0D4E95F
:10095000012118F805009047206A401C2062281EDB
:10096000A5F10105F3DC2046FFF7CEFC2078000658
:1009700002D50220BDE8F0870120FBE72DE9FF4FFB
:100980000C461E464FF0FF378BB0D2E90001DDF870
:1009900060800A908A46C1F30A5505B93D46002198
:1009A00008464FF00000BAF1000F00F4400005DAED
:1009B00000EB80004FF4400101EA50004FEA9059EB
:1009C000B9F1010F00DDB9460A9850EA4A000ED08D
:1009D00044F61050A5F2FF3545432F14B8F1000F2F
:1009E0001ED07542291E1EDDC9F100021CE0B8F1BF
:1009F000010F4FF0000001D0302103E0F24305E089
:100A00002154401CB042FBDB30460022002121541F
:100A10000B99C1F80880C1E900200FB0BDE8F08F44
:100A2000BD1B6D1CDEE74A4600DA694206A800F0ED
:100A3000F3FB06AB93E8070003AB83E807005046DF
:100A40000A9901F0D3FC8DE80700A0F500501F388B
:100A500000900398002D0ADD42F21F014A46084427
:100A6000002303A90390684601F03CFF09E0A0F5CC
:100A700000504A461F38002303A90390684601F03E
:100A800046FF8DE807000004000C03D04FF0FF3054
:100A9000410800E01046B8F1000F03D00022009298
:100AA00015461EE0751E05D4FFF7CAFE30326255AA
:100AB0006D1EF9D5B3460122084302D000227F1CE7
:100AC00004E02078302801D100227F1E002A0997F7
:100AD00084D01DE0112D07DAFFF7B2FE30326255E7
:100AE0006D1C50EA0102F5D1084302D00098C8B14C
:100AF0000EE00021681E05E0235C625C6354225412
:100B0000401E491C8142F7DBAB46A81B401E0990E2
:100B1000002004F80B000B98099AC0F80880C0E97F
:100B2000002B7AE711264FF0000857E72DE9F04F28
:100B300088460446D21D22F0070191B0D1E9000198
:100B4000CDE90A0102F01AF802460B98C00F01D055
:100B50002D2007E02068810701D52B2002E020210D
:100B600001EAC000032A099001D0072A05DB0346E9
:100B70004146204600F010FB0BE12078800601D5AD
:100B8000E06900E00620B8F1650F814606D0B8F1B3
:100B9000660F18D0B8F1670F70D131E00020B9F1BD
:100BA000110F009001DB112301E009F101030AAAF2
:100BB00001A90CA8FFF7E2FEDDE90C70002609F19F
:100BC0000105834647E001204B4600904FF0004767
:100BD0000AAA01A90CA8FFF7D1FEDDE90DB00C9916
:100BE0005D46002610B909F101000D18B9EB0500AA
:100BF00003D4C0F1FF3609F10105A5EB09002BE094
:100C0000B9F1010F01DA4FF001090020B9F1110F1C
:100C10000090484601DD112300E003460AAA01A91D
:100C20000CA8FFF7ABFEDDE90C704D4600268346AD
:100C3000207800070AD4AB4500DA5D4601A8012DF3
:100C400004DD411911F8011C302907D04F4502DAA3
:100C500017F1040F04DA012082460FE06D1EEEE763
:100C6000002F02DCED1B3E4403E0781CA84200DDAF
:100C70007D1CB81B00F1010A4FF0004720780007E7
:100C800003D4AA4501DB4FF0FF3A0021B7F1004F32
:100C90000DF143088DF8431024D002202B23002FA0
:100CA00001DA7F422D230A21021EA0F1010000DC9F
:100CB0005FB197FBF1FC97FBF1F201FB1C7C17463F
:100CC0000CF1300C08F801CDEEE7A8F1010003703B
:100CD0002188090501D5452100E06521A0F1010821
:100CE00000F8011C09980FA9A1EB0807FF1D00B12E
:100CF0000120411901EBEA70A1693844081A401E2D
:100D0000A0612078C00602D42046FFF7E7FA0998D0
:100D100028B1D4E901219047206A401C2062207844
:100D2000C00622D52046FFF7D9FA1EE0002E04DBCC
:100D3000B34502DD01A8805D00E03020D4E9012147
:100D40009047206A401C2062761CAAF101005FEAED
:100D5000000A0AD100F01CFAC0680168405CD4E9BE
:100D600001219047206A401C2062281EA5F1010540
:100D7000DCDC07E0D4E9012118F8010B9047206A78
:100D8000401C2062381EA7F10107F3DC2046FFF764
:100D9000BBFA032011B041E62DE9F04F04460D46A1
:100DA000D21D22F0070089B0D0E9009748463946A5
:100DB00001F0E4FE0246F80F01D02D2307E0206881
:100DC000810701D52B2302E0202101EAC0038DF821
:100DD00020300BB1012000E00020032A824601D020
:100DE000072A04DB2946204600F0D6F93FE12078A7
:100DF000800601D40D2500E0E569C7F30A560D2DE4
:100E000049DA00214FEA175B08464FF00000002F37
:100E100000F4400007DA00EB80004FF4400100EBE3
:100E2000D07001EA60008115012901DD4FF0FF312A
:100E300000224FEA850CBCF1180F06D31346ACF123
:100E400018004FF08052C24003E04FF4801323FAA1
:100E50000CF30CF10C0CBCF1200F04D3ACF1200C02
:100E600009FA0CF001E007FA0CF000294FF00048F5
:100E700001DD18B90FE00ED140450CD319EB020982
:100E80005F4121B9404502D19F4329EA0209BBEBEA
:100E9000175F00D0761C2088000502D57B48784477
:100EA00002E07A487844193808AA302302F80A3058
:100EB000037C0AF10101002E0AF1020A53546A462A
:100EC00002DC4FF0300101E04FF031014FF001083A
:100ED0008DF8001002D0A6F2FF3603E059EA470170
:100EE00000D06B4E002D02DC2178090704D54FF0AD
:100EF00002082E218DF80110C44600210BE0C7F333
:100F000003433F01C35C491C6D1E02F808300529EC
:100F100008F1010801DA002DF1DC00210CE000EB02
:100F20001973491C1B786D1E082902F808304FEA16
:100F3000091908F1010801DA002DF0DC21688B069F
:100F400002D516E0A8F10108E04505DD02EB080333
:100F500013F8013C302BF5D0B8F1000F09DD02EB9E
:100F6000080313F8013C2E2B03D1090701D4A8F183
:100F70000108002D05DD3E2102F808106D1E08F164
:100F80000108407C002E02F8080008F1010804DA8C
:100F90002D20764202F8080002E02B2002F808001B
:100FA0000A214FF47A70864208F101080BDB96FBA8
:100FB000F0F3303302F8083096FBF0F308F1010843
:100FC00000FB136601E0642E0CDB642096FBF0F35B
:100FD000303302F8083096FBF0F308F1010800FB0B
:100FE000136601E00A2E06DB96FBF1F0303002F8C2
:100FF000080008F1010896FBF1F001FB10603030A9
:1010000002F80800A16908F1010808EB050202EBEB
:101010000A00081AA0612078C00602D42046FFF713
:101020005DF9216A08AE01EB0A00206204E0D4E910
:10103000012116F8010B9047BAF1010AF7D2207886
:10104000C00602D52046FFF749F96E4609E016F8BA
:10105000010B3E280FD0D4E901219047206A401CA3
:101060002062B8F10108F2D22046FFF74DF909B02D
:101070000320BDE8F08F206A2844206203E0D4E911
:101080000121302090476D1EEBD3F8E7C61D00000C
:1010900002FCFFFF10B5436913B1AFF3008001E01C
:1010A000FFF755F9012010BD127800F124010A70F4
:1010B00000224A700122EDE711684FF0FF32E9E7A4
:1010C00010B5436913B1AFF3008001E0FFF7D6F923
:1010D000012010BD128800F1240182840022C28404
:1010E0000122EDE711684FF0FF32E9E72DE9F04109
:1010F00016460C46054600F043F8036893F80101D4
:10110000012807D0FF2C12D8185D80B101202C7067
:10111000BDE8F081D3F807013246214603F20713F8
:10112000C7182846BC46BDE8F041002360474FF091
:10113000FF30EDE7754600F0EBF8AE460500694676
:10114000534620F00700854618B020B5FFF780F819
:10115000BDE820404FF000064FF000074FF00008B8
:101160004FF0000BAC46ACE8C009ACE8C009ACE8F5
:10117000C009ACE8C00921F007018D4670470000A6
:1011800010B500F005F8001D10BD00BF551A000095
:1011900000487047300000202DE9F0411F4604460A
:1011A00003260168072A01F4006004DB08B116A5D4
:1011B00005E016A503E008B115A500E015A521F08E
:1011C00010002060A069C01EA0610FB1401EA06188
:1011D0002046FFF783F84FB1D4E901213846904704
:1011E000206A401C2062C01C206206E0206AFAE7E8
:1011F000D4E9012115F8010B9047761EF8D220465C
:10120000FFF782F8BDE8F0814E414E006E616E003E
:10121000494E4600696E66002DE9F0478146164644
:101220008AB0354878440DC88DE80D0032487844BE
:10123000801C03AC0DC884E80D0041F69B300844C7
:10124000372190FBF1F290FBF1F5A5F1800501FB50
:1012500012041B3C02D56442012000E00020DFF8AC
:1012600098A080460027FA44AAF1BE0A0EE0E007E3
:101270000AD03246684607EB470101230AEB810199
:1012800001F045FB8DE8070064107F1C002CEED1B7
:10129000194F7F44AE3F19E0E80715D007EB041063
:1012A0000DF1180A90E80E008AE80E00C068F042BE
:1012B00001D1981908903246012306A903A801F02C
:1012C00026FB03AB83E807006D10641C002DE3D1FF
:1012D0004FF0010332466946B8F1000F03A802D06F
:1012E00001F000FB01E001F012FBC9E90001C9F8BF
:1012F00008200AB0BDE8F087D01A000010B50446F7
:10130000AFF300802046BDE81040FEF78CBF000020
:1013100000487047100000204FF0013C50F8042BAB
:1013200051F8043B9A4221D1A2EB0C03934313EAF8
:10133000CC1317D150F8042B51F8043B9A4215D125
:10134000A2EB0C03934313EACC130BD150F8042BFC
:1013500051F8043B9A4209D1A2EB0C03934313EAE0
:10136000CC13DBD04FF00000704700BFD01A01BA99
:10137000B1FA81F101F0180122FA01F0CB40DBB2A1
:10138000C0B2C01AC1F120012CFA01F3D11A914365
:1013900011EAC311E6D1704701491820ABBEFEE740
:1013A0002600020070470000FEE7000070470000C2
:1013B000B0B5044600F024F9054640F20000C2F240
:1013C00000000078611C18BF044400BF00F018F949
:1013D000401BA042FAD3B0BD2DE9F04F82B00E6899
:1013E000002E00F0038140F20C4C41F200424FF617
:1013F000FF7EC4F2010CC4F2010204270024012381
:10140000C1F2100E4FF0000A4FF00009904208BFE1
:101410000327009745E000BF012704F00C030F22CB
:101420009A402BEA020207FA03F34FEA9A051A439D
:1014300046F82520D1F804B040F20045C4F2010579
:101440005FEACB322A6854BF22EA080242EA080265
:101450002A606A685FEA8B3354BF22EA080242EAD4
:1014600008026A605FEACB23AA6854BF22EA080236
:1014700042EA08025FEA8B23AA60DCF800204FF002
:10148000010354BF22EA080242EA0802CCF8002015
:101490000E680AF1010A36FA0AF204F1040400F0B7
:1014A000A58003FA0AF816EA080FF1D04E687645CF
:1014B00012DC122E56D8DFE806F0350B454955559B
:1014C00055555555555555555555554D510000BF18
:1014D000D1F80C9046E000BF4FF6FF72C1F2210236
:1014E00096420FDC0022C1F2110296421AD000226D
:1014F000C1F21202964215D00022C1F22102964298
:1015000010D02FE00022C1F2220296420AD000221F
:10151000C1F23102964205D00022C1F23202964257
:1015200020D100BF8A684AB1012A14BFC0F81480D4
:10153000C0F810804FF0080914E000BF4FF0040914
:1015400010E000BFCA6802F108090BE04FF0000983
:1015500008E000BFCA6802F1040903E0CA6802F1AA
:101560000C0900BF22460646BAF1080F24BF203AF4
:10157000043637680F25954027EA050509FA02F277
:101580002A433260CA79D2067FF582AF41F218034E
:10159000C4F202031A6842F001021A601A6802F0EB
:1015A00001020192019A40F20042C4F20102A2F546
:1015B0007E762AF0030256F802B040F60002C4F22A
:1015C0000102904210D040F60042C4F20102904263
:1015D0003FF422AF41F20002C4F20102009F9042A8
:1015E00008BF022719E700BF002716E702B0BDE8D1
:1015F000F08F0000002A08BF090401617047000055
:1016000040F29400C2F200000068704740F200000F
:1016100040F29401C2F20000C2F2000100780A68B0
:10162000104408607047000080B542F20000C4F228
:101630000200016841F010010160032000F07AF817
:101640000F2000F005F800F027F8002080BD000012
:1016500070B540F20006C2F2000640F20C0132788A
:10166000C2F200014FF47A730968B3FBF2F2044648
:10167000B1FBF2F1084600F02DFB0F2C4FF00105F5
:1016800008D838B94FF0FF3021460022002500F07D
:1016900025F87460284670BD82B041F21800C4F28B
:1016A00002000168022241F001010160016801F0BD
:1016B000010101910199416841F080514160406808
:1016C00000F08050009000980420C4F201000168EE
:1016D00062F31A61016002B07047000010B54EF667
:1016E0000C5CCEF2000CDCF80030C3F3022E8EF05E
:1016F0000704042C28BF0424BEF103034FF0FF3E6F
:101700000EFA04F438BF0023A14399400EFA03F304
:101710009A43114300F00F0200F160430901043ABB
:1017200003F564436244002848BF02F10C031970BA
:1017300010BD00004EF60C51CEF200010A684FF6C3
:10174000FF031A4060F30A2242F0806040F0FD700F
:10175000086070472DE9F04381B0002800F08580D3
:1017600042F20008C4F202080446D8F800000D4610
:1017700000F0070088420CD2D8F8000020F00700E3
:101780002843C8F80000D8F8000000F00700A8427D
:101790006BD1206841F204098107C4F2020917D510
:1017A000410705D5D9F8001041F4E061C9F80010EF
:1017B000010705D5D9F8001041F46051C9F80010AF
:1017C000D9F80010A26821F0F0011143C9F8001007
:1017D000C00741D1D8F8000000F00700A8420CD99A
:1017E000D8F8000020F007002843C8F80000D8F817
:1017F000000000F00700A84237D12068410707D554
:10180000D9F80010E26821F4E0611143C9F8001032
:10181000000708D5D9F80000216920F4605040EA9B
:10182000C100C9F80000D9F8002002F00C00082817
:1018300041F20020C0F27A0050D142F62253C2F3A6
:101840008341C0F60003595CD2033BD440F600103C
:10185000C0F23D00484341E0606802280AD00128F8
:101860002AD159F8041C890308D4012001B0BDE82D
:10187000F08300BF59F8041C8901F6D5D9F800108F
:1018800021F003010843C9F80000FFF7B9FE06463E
:1018900041F28837D9F80000616800F00C00B0EB25
:1018A000810F97D0FFF7ACFE801BB842F2D903201E
:1018B00001B0BDE8F08300BF59F8041C8907D4D5F6
:1018C000DCE700BFD9F8002042F61053C2F34042D3
:1018D000C0F600039A5C4843B0FBF2F0D9F8001060
:1018E00042F61252C1F30311C0F60002515C40F2FD
:1018F0000C0220FA01F140F20400C2F2000000687C
:10190000C2F200021160FFF7A3FE002001B0BDE8A3
:10191000F083000040F20C00C2F200000068704743
:101920002DE9F04182B0002868D00446007841F2E9
:101930000006C007C4F2020625D0706800F00C0053
:1019400004281BD0706800F00C00082802D17068D1
:10195000C00313D46068002800F06881B0F5A02FA0
:1019600000F07C81B0F5803F00F07C81306820F48D
:1019700080303060306820F4802076E13068800369
:1019800001D56068D0B32078800718D5706810F052
:101990000C0F07D0706800F00C0008286ED170683A
:1019A000C0036BD43068800702D52069012825D197
:1019B0003068616920F0F80040EAC10030602078AA
:1019C00000071FD42078400732D4E56995B17068CC
:1019D00000F00C00082840F08F80012D0ED07068B8
:1019E000216A00F480328A4208D1616A00F47010E2
:1019F000884203D1002002B0BDE8F081012002B08E
:101A0000BDE8F081A069002862D00020C4F2422025
:101A10000121C0F88014FFF7F3FD0546706A8007C6
:101A200000F18C80FFF7ECFD401B0228F6D92AE17B
:101A3000F06910F0805808D1F06940F08050F061F2
:101A4000F06900F080500090009847F20007C4F25F
:101A500000073868C00529D4386840F480703860C1
:101A6000FFF7CEFD054600BF3868C0051ED4FFF75E
:101A7000C7FD401B6428F7D905E100BF2069002895
:101A800040F20000C4F2422000F082800121016097
:101A9000FFF7B6FD054600BF306880073FF588AF09
:101AA000FFF7AEFD401B0228F6D9ECE0E068002805
:101AB00000F08080052800F09780012800F09880D1
:101AC000306A20F001003062306A20F0040092E0B9
:101AD0000020C4F242200021C0F88014FFF790FDDE
:101AE000054600BF706A80077FF56CAFFFF788FD81
:101AF000401B0228F6D9C6E00027C4F24227002086
:101B00003866FFF77DFD022D05460BD13068800158
:101B100040F1BE80FFF774FD401B02284FF0030028
:101B2000F4D968E7306880017FF564AFFFF768FD9E
:101B3000401B02284FF00300F4D95CE740F20C0090
:101B4000C2F20000006844F6D351C1F26201A0FB6A
:101B50000101480A019000BF00BF0198411E002802
:101B600001913FF42FAF00BF0198411E0028019161
:101B70003FF428AF00BF0198411E002801913FF4B7
:101B800021AF00BF0198411E00280191E4D119E75F
:101B900000210160FFF734FD054600BF3068800773
:101BA0007FF50DAFFFF72CFD401B02284FF003001F
:101BB000F4D920E7306A20F001003062306A20F06A
:101BC00004003062FFF71CFD054641F2883700BF74
:101BD000306A800720D5FFF713FD401BB8424FF055
:101BE0000300F5D907E700BF306A40F00400306217
:101BF000306A40F001003062FFF702FD054641F215
:101C0000883700BF306A800706D4FFF7F9FC401B15
:101C1000B842F7D937E000BFB8F1000F7FF4D5AE76
:101C2000F06920F08050F061CFE600BF306820F40A
:101C300080303060306820F480203060FFF7E0FCB6
:101C4000054600BF306880037FF59DAEFFF7D8FCE6
:101C5000401B64284FF00300F4D9CCE6306840F410
:101C600080203060306840F480303060FFF7C8FC7E
:101C7000054600BF306880033FF585AEFFF7C0FC26
:101C8000401B6428F6D9032002B0BDE8F08100BFF4
:101C9000206AB0F5803F05D17168A26821F4003157
:101CA000114371607168626A21F474111143084331
:101CB000706001203866FFF7A3FC0446306880019D
:101CC0003FF598AEFFF79CFC001B02284FF0030085
:101CD000F4D990E6411E0020B0EB116F1CBF01202B
:101CE00070474EF21002CEF2000251604EF62351C0
:101CF000CEF20001F0230B70072190601160704755
:101D0000FEE70000FEE70000FEE70000704700006D
:101D100070470000FFF77ABC70470000FEE7000044
:101D200080B540F27001C2F2000188694988002242
:101D3000FFF760FC8020BDE8804000F05BBA000047
:101D400080B540F27001C2F2000188694988002222
:101D5000FFF750FCC020BDE8804000F04BBA000007
:101D600080B540F27001C2F2000188694988002202
:101D7000FFF740FC012000F03DFA0320BDE8804061
:101D8000FFF716BBF0B583B040F27005C2F2000554
:101D9000A869A98841F204040122CEF20004FFF7E9
:101DA00029FC142001902768FFF7B4FD4DF68366E7
:101DB000C4F21B36A0FB06010198890C4843019030
:101DC00020680199C01B88420ED220680199C01B6F
:101DD000884209D220680199C01B884204D2206839
:101DE0000199C01B8842EBD3A869A9880022FFF79C
:101DF00001FC3C2002902568FFF78CFDA0FB06014A
:101E00000298890C4843029020680299401B88423E
:101E10000ED220680299401B884209D2206802999C
:101E2000401B884204D220680299401B8842EBD3B1
:101E300003B0F0BDF0B581B04EF6FC54CEF2000414
:101E4000DDE908ECDDE90665276827F08077276083
:101E5000276847F08077276041F20004CEF2000443
:101E6000276827F001072760276847F001072760E8
:101E70000027676000BF00BF00BF646840F27004C5
:101E8000C2F20004A0610120207040F208006180CD
:101E9000C2F20000282101701420A2802362E68192
:101EA0002582A4F812E0A4F814C0FFF781FAA06913
:101EB00061880022FFF79EFB206AE1890122FFF77B
:101EC00099FB206A218A0222FFF794FB206A618A2B
:101ED0000022FFF78FFB206AA18A0022FFF78AFB0E
:101EE000FFF750FF0520FFF763FAA0696188002221
:101EF000FFF780FB206AE1890122FFF77BFB206A64
:101F0000218A0222FFF776FB206A618A0022FFF70E
:101F100071FB206AA18A0022FFF76CFBFFF732FFFA
:101F20000120FFF745FAA06961880022FFF762FBF4
:101F3000206AE1890122FFF75DFB206A218A0222E3
:101F4000FFF758FB206A618A0022FFF753FB206AE3
:101F5000A18A0022FFF74EFBFFF714FF0120FFF7D5
:101F600027FAA06961880022FFF744FB206AE18913
:101F70000022FFF73FFB206A218A0222FFF73AFB8B
:101F8000206A618A0022FFF735FB206AA18A0022BD
:101F9000FFF730FBFFF7F6FE0120FFF709FAA06913
:101FA00061880022FFF726FB282000F023F9A069B2
:101FB00061880022FFF71EFB0F2000F01BF9A069CB
:101FC00061880022FFF716FB012000F013F90320BF
:101FD00001B0BDE8F040FFF7EBB9000083B0B0B549
:101FE00087B084460BA80EC00BAA02A861460192D6
:101FF000FEF740F99DF80800002800F0F68040F256
:102000007005C2F20005A86969889DF808400122A0
:10201000FFF7F0FA204600F0EDF802A8FEF73CF9D1
:102020000228C0F0E280A86969889DF80940012271
:10203000FFF7E0FA204600F0DDF802A8FEF72CF9E1
:102040000328C0F0D280A86969889DF80A4001225F
:10205000FFF7D0FA204600F0CDF802A8FEF71CF9F1
:102060000428C0F0C280A86969889DF80B4001224D
:10207000FFF7C0FA204600F0BDF802A8FEF70CF901
:102080000528C0F0B280A86969889DF80C4001223B
:10209000FFF7B0FA204600F0ADF802A8FEF7FCF812
:1020A0000628C0F0A280A86969889DF80D40012229
:1020B000FFF7A0FA204600F09DF802A8FEF7ECF822
:1020C0000728C0F09280A86969889DF80E40012217
:1020D000FFF790FA204600F08DF802A8FEF7DCF832
:1020E0000828C0F08280A86969889DF80F40012205
:1020F000FFF780FA204600F07DF802A8FEF7CCF842
:10210000092872D3A86969889DF810400122FFF759
:1021100071FA204600F06EF802A8FEF7BDF80A2812
:1021200063D3A86969889DF811400122FFF762FA1C
:10213000204600F05FF802A8FEF7AEF80B2854D353
:10214000A86969889DF812400122FFF753FA2046DA
:1021500000F050F802A8FEF79FF80C2845D3A869B4
:1021600069889DF813400122FFF744FA204600F0E9
:1021700041F802A8FEF790F80D2836D3A8696988BF
:102180009DF814400122FFF735FA204600F032F89E
:1021900002A8FEF781F80E2827D3A86969889DF860
:1021A00015400122FFF726FA204600F023F802A886
:1021B000FEF772F80F2818D3A86969889DF81640B1
:1021C0000122FFF717FA204600F014F802A8FEF7E4
:1021D00063F8102809D3A86969889DF8174001227F
:1021E000FFF708FA204600F005F807B0BDE8B04058
:1021F00003B0704770B540F27005C2F2000529784F
:1022000004464FEA1016D9B1286AE98906F001029E
:10221000FFF7F0F9286A298A06F00202FFF7EAF9C7
:10222000286A698A06F00402FFF7E4F9286AA98A95
:1022300006F00802FFF7DEF9FFF7A4FD264617E0D7
:10224000E869E98804F00102FFF7D4F9E86929890F
:1022500004F00202FFF7CEF9E869698904F004028C
:10226000FFF7C8F9E869A98904F00802FFF7C2F985
:10227000286AE98906F00102FFF7BCF9286A298A71
:1022800006F00202FFF7B6F9286A698A06F004022E
:10229000FFF7B0F9286AA98A06F00802FFF7AAF941
:1022A000BDE87040FFF76EBD94B0FFF7BDF94FF485
:1022B0008030002401250B900AA8CDE91244CDE915
:1022C0001044CDE90E44CDE90C440A95FFF728FBF4
:1022D00020B1EFF3108072B6FEE700BF0F20CDE90A
:1022E000050505A80021CDE907440994FFF732FA56
:1022F00020B1EFF3108072B6FEE700BF41F2180084
:10230000C4F20200016840F6000441F020010160BF
:102310000168C4F2010401F020010A910A990168E0
:10232000002241F0040101600068FE2100F0040079
:102330000A900A982046FE250026FFF75BF9012047
:10234000CDE90B0602200D900AA920460A95FFF759
:1023500043F84020202110228026CDE90021029060
:1023600020460421022223460396FFF763FDFFF770
:10237000D7FC13A0FFF732FEFFF7E2FC14A0FFF733
:102380002DFE40F6B830FFF713F80A2616A414A560
:102390000DE000BFFFF7D4FC2846FFF71FFE0A261A
:1023A0004FF4FA70FFF704F8FFF7DAFC013E002E55
:1023B000F0D4FFF7B5FC20463146FFF70FFEEFE7FC
:1023C0005475726B4D656B6174726F6E696B200032
:1023D000526F6B65742054616B696D690000000079
:1023E0004174697300000000256400005FEA400C3E
:1023F00008BF91F0000F4FEA8C234FEAC12243EA55
:1024000051514FEA1C5018BF00F5F0404FEA300020
:1024100018BF41F000415FEA6C5C00F02980BCF11C
:10242000FF3F08BF40F080407047130C06BF120406
:102430004FF0100C4FF0000C130E04BF12020CF101
:10244000080C130F04BF12010CF1040C930F04BF0E
:1024500092000CF1020CD30F04BF52000CF1010CDE
:1024600011464FF00002A0F11F00A0EB0C007047D6
:1024700011F0004F08BF704731F000413FF4D5AF75
:102480000B0C06BF09044FF0100C4FF0000C0B0EA4
:1024900004BF09020CF1080C0B0F04BF09010CF179
:1024A000040C8B0F04BF89000CF1020CCB0F04BF8E
:1024B00049000CF1010CCCF1200322FA03F341EAAC
:1024C000030102FA0CF2A0EB0C0000F101007047CE
:1024D00023F07F4720F07F4C80EA030000F00040AB
:1024E000ACEB070303F57C5303F1FF032DE98049AF
:1024F00009B44FEA144324EA03484FEA154B25EA8E
:102500000B4E0FF2042606EB13273E7803FB0667FB
:10251000C7F5000707FB06F64FEAD64606F10206A6
:102520004FEA543707FB066CCCF1005C4FEA1C47BE
:102530002CEA074C0CFB06F507FB06F404EB1546EA
:102540004FEA961649085FEA320234BF00204FF086
:1025500000404FEAD13706FB07FC4FEA1C4C0CFB4E
:102560000BF7D21B03FB0CF761EB07010CFB0EF71B
:10257000B0EB074072EB17420CFB08F734BFA2EB3D
:102580000742B2EB074261EB17414FEA0C444FEAB6
:10259000910706FB07FC4FEA1C4C0CFB0BF7B0EB5A
:1025A000C74072EB573203FB0CF734BFA2EBC742B4
:1025B000B2EBC74261EB57310CFB0EF7B0EBC70033
:1025C00072EB57720CFB08F734BFA2EBC702B2EBF9
:1025D000C70261EB57714FEA816141EA92114FEAFC
:1025E000826242EA90124FEA806004EBCC04039FBF
:1025F0004FEAD13706FB07FC4FEA1C4C0CFB0BF7EC
:10260000D21B03FB0CF761EB07010CFB0EF7B0EBE1
:10261000074072EB17420CFB08F734BFA2EB0742EE
:10262000B2EB074261EB17414FEA8C5504EB9C2457
:102630004FEA910706FB07FC4FEA1C4C0CFB0BF71B
:10264000B0EBC74072EB573203FB0CF734BFA2EB81
:10265000C742B2EBC74261EB57310CFB0EF7B0EB50
:10266000C70072EB57720CFB08F734BFA2EBC7022E
:10267000B2EBC70261EB57714FEA816141EA9211F7
:102680004FEA826242EA90124FEA806015EB4C25D5
:1026900044F100044FEAD13706FB07FC4FEA1C4C1B
:1026A0000CFB0BF7D21B03FB0CF761EB07010CFBD8
:1026B0000EF7B0EB074072EB17420CFB08F734BF84
:1026C000A2EB0742B2EB074261EB17414FEA8131BF
:1026D00041EA92414FEA823242EA90424FEA803028
:1026E0004FEA0C7615EB1C1544F1000448EA03434D
:1026F0004EEA0B484FF0000EB2EB080C71EB0307EB
:1027000024BF624639464EEB0E0E4FF0000B001808
:10271000524149414BEB0B0BB2EB080C71EB030739
:102720007BF1000B24BF624639464EEB0E0E4FF094
:10273000000B0018524149414BEB0B0BB2EB080C5C
:1027400071EB03077BF1000B24BF624639464EEB69
:102750000E0E51EA020718BF46F0010616EB0E7680
:1027600055F1000254F1000103D5BDE88901BDE82F
:102770000088BDE88901BDE80048B619524141EB27
:102780000101A3F10103704780807F7E7D7C7B7A0D
:102790007978777676757473727171706F6E6E6D0D
:1027A0006C6C6B6A6A6968686766666564646363B3
:1027B00062616160605F5F5E5E5D5D5C5C5B5B5A39
:1027C0005A595958585757565655555554545353A6
:1027D00052525251515050504F4F4F4E4E4D4D4D01
:1027E0004C4C4C4B4B4B4A4A4A494949484848474C
:1027F000474747464646454545444444444343438A
:1028000043424242424141419C46002B30D4770032
:102810002BD04FEA37071CB503B44FF010004FF030
:102820001001BAF1000F06D0BCF1000FDCBF40F080
:10283000080040F008014FF000000FBCBDE8104058
:102840000BF1010BBBF1010F08BF5FEA170722BFB5
:1028500012F1010211F101014FF0004143F10003B7
:1028600000F0004043EA00007047F9D35708D0E772
:1028700046EA06464FEA164613F1400F1FDD13F1F4
:10288000200FDFBF16430A46002120335B42BED033
:10289000C3F1200746EA06464FEA164602FA07F752
:1028A00046EA070622FA03F2C3F1200701FA07F706
:1028B00042EA070221FA03F14FF00003A7E746EAD4
:1028C000020646EA06464FEA164646EA0106BCBF3D
:1028D00046EA0646360C4FF000034FF000024FF078
:1028E000000194E72DE9804C70B49A46934691E834
:1028F000380007C831EA400C48BF34EA430C03D51E
:10290000FFF7E6FDFFF780FFF0BCBDE8008C2DE986
:10291000804C70B49A46934691E8380007C810F08E
:10292000804F08BF13F0804F03D100F005F8FFF788
:102930006BFFF0BCBDE8008C20F07F4723F07F4C9C
:1029400080EA030000F0004007EB0C03A3F57C5382
:10295000A3F1FE0392F0000F00F0B38095F0000F9A
:1029600000F077802DE901494FEA114021EA004843
:102970004FEA144624EA064700FB06FC08FB06F66D
:1029800007FB08F818EB06484CEB164C00FB07F762
:1029900018EB07484CEB17404FEA124B22EA0B4E5C
:1029A0004FEA154625EA06470BFB06FC0EFB06F62A
:1029B00007FB0EFE1EEB064E4CEB164C0BFB07F70F
:1029C0001EEB074E4CEB174B18EB0B0840F10000C9
:1029D00018EB0E0B58EB000840F100008F1A4FF077
:1029E00000014FF000063CBFC943661B14BFB5EBA6
:1029F000040C00213CBFC943F61B4FEA174427EAE9
:102A000004454FEA1C472CEA074C04FB076205FB10
:102A100007F70CFB05F616EB074642EB174204FBE3
:102A20000CFC16EB0C4642EB1C421BEB060658EB6B
:102A3000020241414EEA8E0E46EA9E0601D5BDE8ED
:102A40000189B619524141EB0101A3F10103BDE82F
:102A500001894FEA144524EA05464FEA114721EA65
:102A6000074C05FB07F406FB07F70CFB06F111EB1F
:102A7000074144EB174405FB0CFC11EB0C4144EB04
:102A80001C444FEA124722EA074C05FB07F206FBFB
:102A900007F70CFB06F616EB074642EB174205FB61
:102AA0000CFC16EB0C4642EB1C456A1854F1000175
:102AB00048BF7047B619524141EB0101A3F1010330
:102AC000704795F0000F37D04FEA114221EA0246D5
:102AD0004FEA144724EA074C02FB07F106FB07F70D
:102AE0000CFB06F414EB074441EB174102FB0CFC12
:102AF00014EB0C4441EB1C414FEA154725EA074C07
:102B000002FB07F506FB07F70CFB06F616EB07467C
:102B100045EB174502FB0CFC16EB0C4645EB1C4243
:102B2000121951F1000148BF7047B619524141EBEB
:102B30000101A3F1010370474FEA144524EA054659
:102B40004FEA114721EA074C05FB07F106FB07F79F
:102B50000CFB06F212EB074241EB174105FB0CFCA4
:102B600012EB0C4251EB1C414FF0000648BF70477E
:102B7000921841EB0101A3F101037047490050EAAB
:102B8000C12018BF04204A0D18BF40F0010040F2D8
:102B9000FF72B2EB515F08BF40F00200012808BF8E
:102BA0000520704730380A2801D2012070470020E4
:102BB0007047000010B500290AD00878002807D017
:102BC00005487844FEF7A8FB002801D0002010BD7E
:102BD0000248784410BD0000920100008A01000004
:102BE00010B500290AD00878002807D00548784495
:102BF000FEF792FB002801D0002010BD0248784467
:102C000010BD0000820100007A010000FDF78EBFB8
:102C1000FEF7C2B80000000000000000303132337F
:102C20003435363738394142434445464030580000
:102C30003031323334353637383961626364656632
:102C4000403078000400000800000000000000028E
:102C500000010000103031323334353637383961F5
:102C600062636465667870003031323334353637EC
:102C70003839414243444546585000000240000064
:102C8000000000A00000000005400000000000C897
:102C9000000000000C4000000000409C000000000C
:102CA000194000000020BCBE0000000034400000BD
:102CB000BFC91B8E00000004B5400000504BCFD0B0
:102CC0006607E2CF010000006C4100003E8251AA7D
:102CD000DFEEA73401000000D9420000DCB5A0E21D
:102CE0003A301F97FFFFFFFFB4450000FD25A0C845
:102CF000E9A3C14FFFFFFFFFFF3F0000000000807E
:102D000000000000FF3F0000000000800000000005
:102D10000102000000000000000001020304060799
:102D2000080902030405060708090A0B0C0D0E0F1B
:102D300010100000802E000800000020100000008D
:102D400028010008902E00081000002088060000CE
:102D5000440100081C00000043000000F8FFFFFFD2
:102D60000C0000000E0000000F0000002E0000000C
:102D70001001000043000000F8FFFFFF004040404A
:102D8000404040404040414141414140404040403E
:102D900040404040404040404040404040050202EA
:102DA00002020202020202020202020202202020A9
:102DB0002020202020202002020202020202909005
:102DC0009090909010101010101010101010101003
:102DD0001010101010101010020202020202888857
:102DE0008888888808080808080808080808080863
:102DF000080808080808080802020202400000004B
:102E000000000000000000000000000000000000C2
:102E100000000000000000000000000000000000B2
:102E200000000000000000000000000000000000A2
:102E30000000000000000000000000000000000092
:102E40000000000000000000000000000000000082
:102E50000000000000000000000000000000000072
:102E60000000000000000000000000000000000062
:102E70000000000000000000000000000000000052
:102E80000100000010000000380000000024F400E1
:04000005080000ED02
:00000001FF
