:020000040800F2
:10000000F006002089010008F5140008ED1400082E
:10001000F11400084502000809150008000000005E
:10002000000000000000000000000000FD140008B7
:100030004902000800000000F9140008011500083A
:10004000A3010008A3010008A3010008A301000800
:10005000A3010008A3010008A3010008A3010008F0
:10006000A3010008A3010008A3010008A3010008E0
:10007000A3010008A3010008A3010008A3010008D0
:10008000A3010008A3010008A3010008A3010008C0
:10009000A3010008A3010008A3010008A3010008B0
:1000A000A3010008A3010008A3010008A3010008A0
:1000B000A3010008A3010008A3010008A301000890
:1000C000A3010008A3010008A3010008A301000880
:1000D000A3010008A3010008A3010008A301000870
:1000E000A3010008A3010008A301000800F002F822
:1000F00000F03AF80AA090E8000C82448344AAF188
:100100000107DA4501D100F02FF8AFF2090EBAE885
:100110000F0013F0010F18BFFB1A43F0010318473B
:100120003416000054160000103A24BF78C878C175
:10013000FAD8520724BF30C830C144BF04680C60ED
:10014000704700000023002400250026103A28BF35
:1001500078C1FBD8520728BF30C148BF0B60704739
:100160001FB51FBD10B510BD00F031F81146FFF7E7
:10017000F7FF01F0CBF900F04FF803B4FFF7F2FFFF
:1001800003BC00F057F800000948804709480047C1
:10019000FEE7FEE7FEE7FEE7FEE7FEE7FEE7FEE737
:1001A000FEE7FEE704480549054A064B7047000094
:1001B00005150008ED000008F0000020F006002002
:1001C000F0020020F002002070477047704775462B
:1001D00000F02CF8AE4605006946534620F00700B3
:1001E000854618B020B5FFF7DDFFBDE820404FF091
:1001F00000064FF000074FF000084FF0000BAC4630
:10020000ACE8C009ACE8C009ACE8C009ACE8C0097A
:1002100021F007018D46704710B50446AFF300800A
:100220002046BDE81040FFF7A8BF00000048704717
:100230001000002001491820ABBEFEE72600020096
:1002400070470000FEE700007047000010B581B065
:100250000022009290F82420012A03D102210846AE
:1002600001B010BD4B680122062B80F8242017D85E
:10027000D0F800C003EB83035A1F1F23DCF834E0DF
:1002800003FA02F40B682EEA040403FA02F2224392
:10029000CCF83420092B03EB430219D936E000BF18
:1002A000D0F800C00C2B03EB83021DD8233A1F2388
:1002B000DCF830E003FA02F40B682EEA040403FAD7
:1002C00002F22243CCF83020092B03EB43021DD865
:1002D000DCF81030072489689440A3439140194307
:1002E000CCF81010002130E0413A1F23DCF82CE05C
:1002F00003FA02F40B682EEA040403FA02F2224322
:10030000CCF82C20092B03EB4302E1D9DCF80CE0FC
:100310001E3A0724896894402EEA0404914023F091
:1003200001022143102ACCF80C100DD142F20841F1
:10033000C4F20101A1F1080294450DD0816A41F097
:1003400020018162012100E00021002280F82420A8
:10035000084601B010BD00BF0A68120230D40A6816
:10036000102B42F400020A602CD140F20801C2F2C4
:10037000000109684DF68362C4F21B32A1FB021230
:10038000910C01EB8101490000910099E1B10099C4
:10039000013900910099C9B1009901390091009982
:1003A000B1B1009901390091009999B100990139D1
:1003B0000091009900294FF00001E8D1C5E700BF86
:1003C0000021C2E70021C0E70021BEE70021BCE711
:1003D0000021BAE70021B8E7B0B5002800F0A880F6
:1003E0000446806A20B121688868C0070BD114E0F8
:1003F0000020E06284F82400204600F09BF8216889
:100400008868C00709D0886820F00100886000F083
:10041000E3F921688A68D20726D1A06AC0063AD4D7
:10042000A06A41F2021290430230A062E069D4E96E
:10043000013240EA030C531EB3FA83F35D091346FD
:10044000B2F5807F18BF2B02207D257B01284CEA66
:10045000450030D135B3A56A45F02005A562E56AAF
:1004600045F00105E56226E0054602E08868C00720
:10047000D3D000F0B1F9401B21680328F6D3886877
:10048000C007F3D0A06A40F01000A062E06A40F01C
:100490000100E062A06AA06A40F01000A0620120A2
:1004A000B0BD00BFD4F818C04EF60005CFF6FF75FA
:1004B00005EB4C352B434D68B2F5807F25F469453B
:1004C00043EA05034B608B684FF2FD75CFF6E1758B
:1004D00003EA050343EA00038B6001D0012A07D138
:1004E00022690023CFF6F07303EB025201E000BF54
:1004F0000022CB6A23F470031A43CA62896840F66B
:10050000FE62CFF61F721140814207D10020E062E7
:10051000A16A012262F30101A162B0BDA06A40F0AC
:10052000100020F00200A062E06A40F00100E062EA
:100530000120B0BD80B586B0014640F60000C4F28F
:100540000100096800F5E05291424FF00001CDE949
:10055000041101D006B080BD41F21801C4F20201BD
:100560000A6842F400720A600A6802F4007201929A
:10057000019A0A6842F004020A60096801F0040165
:10058000019101990321CDE9021102A900F016F8A9
:1005900006B080BDB0B5044600F01EF9054640F235
:1005A0000000C2F200000078611C18BF044400BFC4
:1005B00000F012F9401BA042FAD3B0BD2DE9F04F74
:1005C00082B00E68002E00F0038140F20C4C41F224
:1005D00000424FF6FF7EC4F2010CC4F20102042770
:1005E00000240123C1F2100E4FF0000A4FF0000961
:1005F000904208BF0327009745E000BF012704F0A1
:100600000C030F229A402BEA020207FA03F34FEA87
:100610009A051A4346F82520D1F804B040F2004567
:10062000C4F201055FEACB322A6854BF22EA08020D
:1006300042EA08022A606A685FEA8B3354BF22EA02
:10064000080242EA08026A605FEACB23AA6854BF44
:1006500022EA080242EA08025FEA8B23AA60DCF879
:1006600000204FF0010354BF22EA080242EA0802C8
:10067000CCF800200E680AF1010A36FA0AF204F1F9
:10068000040400F0A58003FA0AF816EA080FF1D076
:100690004E68764512DC122E56D8DFE806F0350B90
:1006A0004549555555555555555555555555554D1E
:1006B000510000BFD1F80C9046E000BF4FF6FF722A
:1006C000C1F2210296420FDC0022C1F211029642D1
:1006D0001AD00022C1F21202964215D00022C1F2B5
:1006E0002102964210D02FE00022C1F2220296424F
:1006F0000AD00022C1F23102964205D00022C1F296
:100700003202964220D100BF8A684AB1012A14BF42
:10071000C0F81480C0F810804FF0080914E000BF42
:100720004FF0040910E000BFCA6802F108090BE0AD
:100730004FF0000908E000BFCA6802F1040903E0B5
:10074000CA6802F10C0900BF22460646BAF1080F3A
:1007500024BF203A043637680F25954027EA05055F
:1007600009FA02F22A433260CA79D2067FF582AFD3
:1007700041F21803C4F202031A6842F001021A603F
:100780001A6802F001020192019A40F20042C4F29A
:100790000102A2F57E762AF0030256F802B040F676
:1007A0000002C4F20102904210D040F60042C4F2AE
:1007B000010290423FF422AF41F20002C4F2010272
:1007C000009F904208BF022719E700BF002716E7E5
:1007D00002B0BDE8F08F000040F2E800C2F2000075
:1007E0000068704740F2000040F2E801C2F20000E9
:1007F000C2F2000100780A681044086070470000E7
:1008000080B542F20000C4F20200016841F010011C
:100810000160032000F07AF80F2000F005F800F0E6
:1008200027F8002080BD000070B540F20006C2F23B
:10083000000640F208013278C2F200014FF47A73E8
:100840000968B3FBF2F20446B1FBF2F1084600F08E
:10085000ADFB0F2C4FF0010508D838B94FF0FF3031
:1008600021460022002500F025F87460284670BD5E
:1008700082B041F21800C4F202000168022241F085
:1008800001010160016801F00101019101994168D4
:1008900041F080514160406800F080500090009825
:1008A0000420C4F20100016862F31A61016002B021
:1008B0007047000010B54EF60C5CCEF2000CDCF870
:1008C0000030C3F3022E8EF00704042C28BF04244A
:1008D000BEF103034FF0FF3E0EFA04F438BF0023CD
:1008E000A14399400EFA03F39A43114300F00F021B
:1008F00000F160430901043A03F5644362440028AF
:1009000048BF02F10C03197010BD00004EF60C51E7
:10091000CEF200010A684FF6FF031A4060F30A2284
:1009200042F0806040F0FD70086070472DE9F041B2
:1009300082B00446007841F21C06C007C4F20206E9
:100940004AD0306810F0805808D1306840F08050AC
:100950003060306800F080500190019847F2000745
:10096000C4F200073868C00512D4386840F48070BB
:100970003860FFF731FF05463868C00508D4FFF737
:100980002BFF401B6428F7D9032002B0BDE8F0819B
:10099000706810F4407012D0616801F440718842B0
:1009A0000DD0706840F24042C4F24222012320F48C
:1009B000407113600023C007136071602AD1706812
:1009C000616820F440700843B8F1000F706003D1F3
:1009D000306820F0805030602068810707D556F8D5
:1009E000181CA26821F44041114346F8181CC006A7
:1009F00004D4002002B0BDE8F08100BF56F8180C06
:100A0000E16820F48000084346F8180C002002B08A
:100A1000BDE8F081FFF7E0FE054641F2883700BFF0
:100A200070688007CBD4FFF7D7FE401BB8424FF069
:100A30000300F5D9EBE700002DE9F04381B0002871
:100A400000F0858042F20008C4F202080446D8F89B
:100A500000000D4600F0070088420CD2D8F80000D4
:100A600020F007002843C8F80000D8F8000000F084
:100A70000700A8426BD1206841F204098107C4F243
:100A8000020917D5410705D5D9F8001041F4E061F6
:100A9000C9F80010010705D5D9F8001041F46051DC
:100AA000C9F80010D9F80010A26821F0F001114334
:100AB000C9F80010C00741D1D8F8000000F00700C5
:100AC000A8420CD9D8F8000020F007002843C8F845
:100AD0000000D8F8000000F00700A84237D12068D5
:100AE000410707D5D9F80010E26821F4E06111430D
:100AF000C9F80010000708D5D9F80000216920F4D2
:100B0000605040EAC100C9F80000D9F8002002F0A6
:100B10000C00082841F20020C0F27A0050D141F2C6
:100B20004273C2F38341C0F60003595CD2033BD445
:100B300040F60010C0F23D00484341E060680228E2
:100B40000AD001282AD159F8041C890308D40120AD
:100B500001B0BDE8F08300BF59F8041C8901F6D547
:100B6000D9F8001021F003010843C9F80000FFF78D
:100B700033FE064641F28837D9F80000616800F07C
:100B80000C00B0EB810F97D0FFF726FE801BB84218
:100B9000F2D9032001B0BDE8F08300BF59F8041C6E
:100BA0008907D4D5DCE700BFD9F8002041F23073C3
:100BB000C2F34042C0F600039A5C4843B0FBF2F037
:100BC000D9F8001041F23272C1F30311C0F60002ED
:100BD000515C40F2080220FA01F140F20400C2F236
:100BE00000000068C2F200021160FFF71DFE002045
:100BF00001B0BDE8F08300002DE9F04182B000288B
:100C000068D00446007841F20006C007C4F202062C
:100C100025D0706800F00C0004281BD0706800F02C
:100C20000C00082802D17068C00313D46068002843
:100C300000F06881B0F5A02F00F07C81B0F5803F16
:100C400000F07C81306820F480303060306820F41F
:100C5000802076E13068800301D56068D0B32078C9
:100C6000800718D5706810F00C0F07D0706800F07E
:100C70000C0008286ED17068C0036BD43068800700
:100C800002D52069012825D13068616920F0F8007B
:100C900040EAC1003060207800071FD42078400768
:100CA00032D4E56995B1706800F00C00082840F076
:100CB0008F80012D0ED07068216A00F480328A4244
:100CC00008D1616A00F47010884203D1002002B09C
:100CD000BDE8F081012002B0BDE8F081A0690028E4
:100CE00062D00020C4F242200121C0F88014FFF736
:100CF00073FD0546706A800700F18C80FFF76CFD7C
:100D0000401B0228F6D92AE1F06910F0805808D17A
:100D1000F06940F08050F061F06900F08050009080
:100D2000009847F20007C4F200073868C00529D4CC
:100D3000386840F480703860FFF74EFD054600BF0C
:100D40003868C0051ED4FFF747FD401B6428F7D95B
:100D500005E100BF2069002840F20000C4F24220F3
:100D600000F0828001210160FFF736FD054600BFDB
:100D7000306880073FF588AFFFF72EFD401B022843
:100D8000F6D9ECE0E068002800F08080052800F04B
:100D90009780012800F09880306A20F001003062CE
:100DA000306A20F0040092E00020C4F242200021CA
:100DB000C0F88014FFF710FD054600BF706A800779
:100DC0007FF56CAFFFF708FD401B0228F6D9C6E09F
:100DD0000027C4F2422700203866FFF7FDFC022DF1
:100DE00005460BD13068800140F1BE80FFF7F4FC6E
:100DF000401B02284FF00300F4D968E730688001F7
:100E00007FF564AFFFF7E8FC401B02284FF00300BA
:100E1000F4D95CE740F20800C2F20000006844F632
:100E2000D351C1F26201A0FB0101480A019000BF49
:100E300000BF0198411E002801913FF42FAF00BF71
:100E40000198411E002801913FF428AF00BF01988E
:100E5000411E002801913FF421AF00BF0198411EBF
:100E600000280191E4D119E700210160FFF7B4FCEB
:100E7000054600BF306880077FF50DAFFFF7ACFC7B
:100E8000401B02284FF00300F4D920E7306A20F01D
:100E900001003062306A20F004003062FFF79CFCF1
:100EA000054641F2883700BF306A800720D5FFF73A
:100EB00093FC401BB8424FF00300F5D907E700BF91
:100EC000306A40F004003062306A40F00100306265
:100ED000FFF782FC054641F2883700BF306A800781
:100EE00006D4FFF779FC401BB842F7D937E000BFC2
:100EF000B8F1000F7FF4D5AEF06920F08050F061BA
:100F0000CFE600BF306820F480303060306820F4D5
:100F100080203060FFF760FC054600BF306880032A
:100F20007FF59DAEFFF758FC401B64284FF003008F
:100F3000F4D9CCE6306840F480203060306840F46A
:100F400080303060FFF748FC054600BF3068800302
:100F50003FF585AEFFF740FC401B6428F6D903201F
:100F600002B0BDE8F08100BF206AB0F5803F05D136
:100F70007168A26821F40031114371607168626A7E
:100F800021F4741111430843706001203866FFF7A3
:100F900023FC0446306880013FF598AEFFF71CFC47
:100FA000001B02284FF00300F4D990E6411E0020F8
:100FB000B0EB116F1CBF012070474EF21002CEF251
:100FC000000251604EF62351CEF20001F0230B7067
:100FD0000721906011607047B0B590F83C20012A5D
:100FE00004BF0220B0BD01F108053CCDD1E900CE1F
:100FF00023F47C5322F470521A432EF4F0431A4324
:101000002CF4E0431A4324F4C0431A432A43C96929
:1010100022F48042036811435964002180F83C1097
:101020000846B0BD10B590F83C20012A4FF00202EE
:1010300033D080F83D200268D2F804E0D2F808C02E
:101040000C682EF07003234340F2FF74C4F20004D6
:10105000A24253600ADCB2F1804F13D040F2004349
:10106000C4F200039A420DD011E000BF42F60043E3
:10107000C4F201039A4205D040F60003C4F2000313
:101080009A4204D149682CF08003194391600121F0
:10109000002280F83D1080F83C20104610BD000072
:1010A00080B586B0014640F60000C4F20100096830
:1010B00000F5105300229942049201D006B080BD81
:1010C00041F21801C4F202010A6842F004020A6007
:1010D000096801F00401019101994FF480710291B6
:1010E00002210391059102A9FFF768FA06B080BDBD
:1010F0002DE9F04390F83C30012B04BF0220BDE8FD
:10110000F0834FEAB202032A00F2E980DFE802F03E
:10111000023A78B4036842F600461A6AC4F201063D
:1011200022F001021A621D6A1A465C6852F818CF52
:10113000B3428E68D1F800E025F0020545EA0605C5
:101140000CD1CE68D1E9057824F4407425F00C0563
:1011500026F004063C43354344EA08042CF07307A8
:1011600047EA0E075C609F614F6809695F631D6213
:101170009F6947F008079F619F6927F004079F61F7
:10118000AAE000BF036842F600461A6AC4F20106EC
:1011900022F010021A621D6A1A46D3F804C052F8EF
:1011A000184FB3428E68D1F800E025F0200545EADB
:1011B000061510D1CE68D1E9058725F0C0096FF07A
:1011C000400505EA06152CF4406647EA080745EA9B
:1011D000090546EA870C24F4E64444EA0E27C3F8DE
:1011E00004C09F614F6809699F631D629F6947F44E
:1011F00000679F619F6927F480679F616BE000BF74
:10120000036842F600461A6AC4F2010622F48072AC
:101210001A621D6A1A46D3F804C052F81CEFB34292
:101220008E680C6825F4007545EA062511D1CE6854
:10123000D1E9058725F44069360240F2FF4526EAE8
:1012400005052CF4405647EA080745EA090546EA31
:10125000071C2EF073072743C3F804C0DF614F68F3
:101260000969DF631D62DF6947F00807DF61DF6935
:1012700027F00407DF612FE0036842F600471A6A8F
:10128000C4F2010722F480521A621A46D3F820C031
:101290005D6852F81C4FD1F800E08E68BB4204D163
:1012A0004F6925F4804545EA87152CF4005747EA35
:1012B000063724F4E64646EA0E265D60DE614E6897
:1012C00009691E641F62DF6947F40067DF61DF6937
:1012D00027F48067DF610902136819431160002158
:1012E00080F83C100846BDE8F0830000002804BFE9
:1012F0000120704710B5044690F83D0028B9002041
:1013000084F83C00204600F067F8022084F83D0095
:10131000206840F2FF730268C4F2000342F6004CFA
:101320009842C4F2010C15DCB0F1804F1AD040F2A3
:101330000041C4F20001884214D0984218DCB0F198
:10134000804F1DD040F20041C4F20001884217D006
:101350001AE000BF604505D040F60001C4F200016C
:101360008842EAD1A16822F070020A439842E6DD81
:10137000604505D040F60001C4F20001884203D167
:10138000216922F440720A43A36922F08001D4F853
:1013900004E0E268194360450160C262C0F828E0D9
:1013A00002D16169CCF8301001214161002084F83C
:1013B000461084F83E1084F83F1084F8401084F8FA
:1013C000411084F8421084F8431084F8441084F8E3
:1013D000451084F83D1010BD81B0006842F6004110
:1013E000C4F20101884201D001B0704741F21800F7
:1013F000C4F20200016841F400610160006800F479
:1014000000600090009801B07047000041B10829C9
:1014100010D0042914BF00F1410200F13F020BE09B
:1014200090F83E20012A1CBF01207047022280F85C
:101430003E2013E000F140021278012A1CBF012077
:1014400070470222082907D0042914BF80F84120E0
:1014500080F83F2002E000BF80F84020006801F0E3
:101460001F010122036A8A4023EA02010162036A22
:1014700042F64441C4F201011A43A1F144039842E7
:1014800002620FD040F2FF71C4F20001884213DC07
:10149000B0F1804F1CD040F20041C4F200018842FC
:1014A00016D01CE00A6842F400420A6040F2FF7164
:1014B000C4F200018842EBDD42F60041C4F20101B2
:1014C000884205D040F60001C4F20001884206D1EE
:1014D000816801F00701062904BF002070470168F8
:1014E00041F001010160002070470000FEE70000AC
:1014F000FEE70000FEE700007047000070470000B4
:10150000FFF770B970470000FEE7000096B0FFF7E4
:1015100077F900240120CDE90A44CDE9084405907B
:1015200009904FF4E0104FF4803102250E9005A889
:101530000394CDE90144CDE90614CDE90C51FFF740
:101540005BFB28B1EFF3108072B600BFFEE700BF6F
:101550000F20CDE90F05802011904FF48060CDE978
:1015600012040FA80221FFF767FA28B1EFF31080E9
:1015700072B600BFFEE700BF022000904FF480402B
:1015800002906846FFF7D2F920B1EFF3108072B6EF
:10159000FEE700BF41F21800C4F20200016842F207
:1015A000004641F020010160016840F2700401F042
:1015B0002001059105990168C4F2010641F004017A
:1015C00001600068C2F2000400F004000590059874
:1015D00006F500622046002140F8302F40F26312E9
:1015E00040F20773CDE900110B91C0E90121C0E978
:1015F0000331C0E90511FFF779FE28B1EFF3108040
:1016000072B600BFFEE700BF04F130056946284608
:10161000FFF708FD20B1EFF3108072B6FEE700BFC0
:1016200060200F9000270FA928460022CDE91077EF
:10163000CDE91277CDE91477FFF75AFD20B1EFF32A
:10164000108072B6FEE700BF4FF400500A9005A963
:1016500028460997CDE90777CDE905770C97FFF77D
:10166000BBFC28B1EFF3108072B600BFFEE700BFED
:101670002846FFF715FD4FF48070A0600220012579
:1016800000214FF460222061204625732175E2611C
:10169000C4E90061FEF7A0FE20B1EFF3108072B63E
:1016A000FEE700BF0720079040F27000C2F2000082
:1016B00005A9CDE90555FEF7C9FD28B1EFF3108066
:1016C00072B600BFFEE700BF40F2700400200221A6
:1016D000C2F200040590CDE9061005A92046FEF7E8
:1016E000B5FD28B1EFF3108072B600BFFEE700BF72
:1016F00004F1300000210027FFF788FE2D25E126A8
:10170000206B07F12D0141630A20FEF743FF0137EB
:10171000B52FF5D1206B45634FF47A70FEF73AFF91
:10172000206B466340F6B830FEF734FF0027E7E74A
:10173000010200000000000000000102030406078F
:10174000080902030405060708090A0B0C0D0E0F11
:1017500010100000781700080000002010000000A2
:10176000280100088817000810000020E00600008B
:10177000440100080000000001000000100000000B
:081780000024F4000000000049
:04000005080000ED02
:00000001FF
