:020000040800F2
:10000000900700208901000825240008591F0008D6
:10001000212400084502000805280008000000000F
:10002000000000000000000000000000E1270008C0
:10003000490200080000000029240008E527000804
:10004000A3010008A3010008A3010008A301000800
:10005000A3010008A3010008A3010008A3010008F0
:10006000A3010008A3010008A3010008A3010008E0
:10007000A3010008A3010008A3010008A3010008D0
:10008000A3010008A3010008A3010008A3010008C0
:10009000A3010008A3010008A3010008A3010008B0
:1000A000A3010008ED270008A3010008A301000830
:1000B000F9270008A3010008A3010008A301000814
:1000C000A3010008A3010008A3010008A301000880
:1000D000A3010008A3010008A3010008A301000870
:1000E000A3010008A3010008A301000800F002F822
:1000F00000F03AF80AA090E8000C82448344AAF188
:100100000107DA4501D100F02FF8AFF2090EBAE885
:100110000F0013F0010F18BFFB1A43F0010318473B
:100120008C2D0000AC2D0000103A24BF78C878C197
:10013000FAD8520724BF30C830C144BF04680C60ED
:10014000704700000023002400250026103A28BF35
:1001500078C1FBD8520728BF30C148BF0B60704739
:100160001FB51FBD10B510BD00F031F81146FFF7E7
:10017000F7FF02F049FB00F04FF803B4FFF7F2FF7E
:1001800003BC00F057F800000948804709480047C1
:10019000FEE7FEE7FEE7FEE7FEE7FEE7FEE7FEE737
:1001A000FEE7FEE704480549054A064B7047000094
:1001B000E9270008ED0000089001002090070020CA
:1001C00090030020900300207047704770477546E9
:1001D00000F02CF8AE4605006946534620F00700B3
:1001E000854618B020B5FFF7DDFFBDE820404FF091
:1001F00000064FF000074FF000084FF0000BAC4630
:10020000ACE8C009ACE8C009ACE8C009ACE8C0097A
:1002100021F007018D46704710B50446AFF300800A
:100220002046BDE81040FFF7A8BF00000048704717
:100230001000002001491820ABBEFEE72600020096
:1002400070470000FEE7000070470000B0B50446AC
:1002500000F01EF9054640F20000C2F200000078EE
:10026000611C18BF044400BF00F012F9401BA042FB
:10027000FAD3B0BD2DE9F04F82B00E68002E00F029
:10028000038141F20042C4F20102042340F2004E15
:10029000904208BF03234FF6FF7CC4F2010E009387
:1002A00000240123C1F2100C4FF0000A4FF00009A6
:1002B00049E000BF012704F00C030F229A402BEA0B
:1002C000020207FA03F34FEA9A051A4346F825207B
:1002D000D1F804B040F20C455FEACB22DEF80820EA
:1002E00054BF22EA080242EA0802C4F20105CEF82D
:1002F00008202A685FEA8B2354BF22EA080242EAF8
:1003000008022A605FEA8B33DEF8042054BF22EA39
:10031000080242EA08025FEACB33CEF80420DEF896
:1003200000204FF0010354BF22EA080242EA08020B
:10033000CEF800200E680AF1010A36FA0AF204F13A
:10034000040400F0A18003FA0AF816EA080FF1D0BD
:100350004E68664512DC122E56D8DFE806F0350BE3
:100360004549555555555555555555555555554D61
:10037000510000BFD1F80C9046E000BF4FF6FF726D
:10038000C1F2210296420FDC0022C1F21102964214
:100390001AD00022C1F21202964215D00022C1F2F8
:1003A0002102964210D02FE00022C1F22202964292
:1003B0000AD00022C1F23102964205D00022C1F2D9
:1003C0003202964220D100BF8A684AB1012A14BF86
:1003D000C0F81480C0F810804FF0080914E000BF86
:1003E0004FF0040910E000BFCA6802F108090BE0F1
:1003F0004FF0000908E000BFCA6802F1040903E0F9
:10040000CA6802F10C0900BF22460646BAF1080F7D
:1004100024BF203A043637680F25954027EA0505A2
:1004200009FA02F22A433260CA79D2067FF582AF16
:1004300041F21803C4F202031A68AEF57E7642F068
:1004400001021A601A6802F001020192019A2AF070
:10045000030256F802B040F60002C4F201029042D4
:1004600010D040F60042C4F2010290423FF422AFA5
:1004700041F20002C4F20102009F904208BF02272D
:1004800019E700BF002716E702B0BDE8F08F0000B3
:1004900040F28810C2F200000068704770B5B8B32F
:1004A000044690F83D0028B9002084F83C0020461E
:1004B00000F0A0FC242084F83D002068016821F0B1
:1004C00001010160016841F400410160016821F40B
:1004D0000041016000F058FE48F28041C0F21E0168
:1004E00040F60013D4F804E088424FF00001C0F257
:1004F0003D0348F2A16C4FF0000238BF0121984241
:10050000C0F2010C38BF0122E64538BF0A460AB1E5
:10051000012070BD4DF68361C4F21B31A0FB0112B6
:100520002168950C4B684FF4967623F03F0343EA1D
:100530009243754344F6D3564B60C1F262060B6A90
:10054000A5FB0656B50923F03F03E64538BF950CD9
:100550006A1C1A430A62CA6948F2A0664CF6FF7325
:10056000C0F20106B64522EA03020BD801384FEA71
:100570004E03B0FBF3F001306FF31F30042898BF37
:1005800004201EE0A368013863B119230EFB03F3B6
:10059000B0FBF3F001306FF31F3078B100F580400D
:1005A00008E000BF0EEB4E03B0FBF3F001306FF339
:1005B0001F3028B100F5004003E000BF012000E03B
:1005C00001201043C8610868D4E9072320F0C00067
:1005D000104318430860886848F2FF3204F10C06A3
:1005E00090434CCE18431043A5698860C86820F03A
:1005F000FF0030432843C860086840F001000860ED
:1006000000202021206484F83D10206384F83E00FF
:1006100070BD00002DE9F04F83B01E46924688461B
:100620000446FFF735FF94F83D1020291CD12168BE
:10063000054600BF8869800712D5FFF729FF401BD8
:1006400021681A28F6D388698007F3D50020202175
:10065000206384F83D1084F83E00216C0226C2E03D
:1006600094F83C00012805D10226304603B0BDE8CD
:10067000F08F00BF4FF0010984F83C900868C00774
:1006800003D1086840F0010008600868002720F4E2
:1006900000600860242084F83D000020CFF6FF7041
:1006A0002764E06208F0FE08BAF1010F88BFD14666
:1006B0004FF0A00A4FF0200B04E000BF01374F4578
:1006C00000F0A4800868002240F480700860204692
:1006D0004FF001113346009501F0A0FC216800287D
:1006E00056D1C1F81080FFF7D3FE21684B694A69E3
:1006F00094F83D50A02D054605D013F0020008BF28
:1007000012F480601AD084F83DB048690A68800706
:1007100042F400720A6047D46FF48060486100BF01
:1007200088698007CAD5FFF7B3FE401B21681A28E5
:10073000F6D388698007F3D54CE000BFB6B100BF9F
:10074000FFF7A6FE401BB04288BF84F83DA0216899
:100750004A69486994F83D30A02BD4D012F00202C7
:1007600008BF10F48060EBD0CDE700BFFFF790FE2C
:1007700084F83DA021684A69486994F83D30A02B6F
:10078000C1D012F00202BED110F48060EED0BAE700
:1007900008680326C00544BF4FF40070206430464B
:1007A00003B0BDE8F08F00BF0026029648690290B2
:1007B000886902900298886901E000BF806980071B
:1007C0001AD5FFF765FE411B20681A29F6D3816907
:1007D0008907F3D500202021206384F83D1084F898
:1007E0003E00216C012641F02001216484F83C0088
:1007F000304603B0BDE8F08F202084F83D0084F837
:100800003C60304603B0BDE8F08F00BF202084F884
:100810003D000020012684F83C00304603B0BDE8CE
:10082000F08F00002DE9F04784B0044600201F46F9
:10083000164689460290FFF72BFE94F83D102029BA
:1008400020D10546206800BF8169890716D5FFF7CA
:100850001FFE411B20681A29F6D381698907F3D549
:1008600000202021206384F83D1084F83E00216C94
:1008700041F02001216484F83C0003E094F83C102E
:10088000012903D1022004B0BDE8F087012184F8DA
:100890003C100168C90703D1016841F00101016002
:1008A0000168DDF8308021F400610160222184F8C4
:1008B0003D10102184F83E10002121646662678596
:1008C000618D0227C0F201072185A7F10211E162C3
:1008D000E16A026811F5803F42F48062026018BF4D
:1008E00001293DD1016841F48071016020464FF03B
:1008F000011100224346009501F090FB50B12068A1
:100900000068C00544BF4FF400702064012004B0AB
:10091000BDE8F0872069B0F5804F27D149F001008C
:10092000C0B2216842460861204639462B4601F094
:100930005FFC0028EAD1208D02284BD001285FD02F
:10094000002840F0738000200390206841690391E3
:10095000816903910399016841F40071016071E0BC
:100960000829BFD0216B1129BCD0BFE7062000EABF
:10097000D916206806F1F0010161B91D20464246F2
:100980002B4601F035FC0028C0D120685FFA89F1C0
:1009900001612046394642462B4601F029FC0028D9
:1009A000B4D100200390206800224169434603919E
:1009B000816903910399016841F4807101602046C7
:1009C0004FF00111009501F029FB002897D146F066
:1009D000F100A6E72068016841F400610160EFF3CF
:1009E000108072B6002003902068416903918169EC
:1009F00003910399016821F48061016062B621E0EE
:100A00002068016821F480610160EFF3108072B604
:100A10000020039020684169039181690391039943
:100A2000016841F40071016062B60BE02068016862
:100A300041F4806101600021039141690391806963
:100A400003900398208D002800F0CC8040F2080924
:100A50004BF2895A0237C2F20009C1F2F84A232642
:100A60000EE000BF10690870606A218D013060627D
:100A7000481E2085618D01396185010400F0B28036
:100A800080B203280CD802282CD001284AD1204655
:100A900041462A4601F01CFC002800F09F8035E703
:100AA000204641462A4601F013FC00287FF42EAF71
:100AB0002068616A00690870606A2268411C208DA4
:100AC000616201382085638D013B638553695B0753
:100AD000D3D580B20328C5D1106820F4806010609F
:100AE000C0E700BF2046394600224346009501F08A
:100AF00095FA00287FF40AAFEFF3108072B62068F1
:100B0000616A026842F40072026000690870606AFB
:100B1000218D01306062481E2085608D013860851E
:100B200062B65BE02046394600224346009501F05C
:100B300075FA00287FF4EAAE2068016821F480612C
:100B40000160EFF3108072B62068616A0069087076
:100B5000606A218D0130013960622185618D013922
:100B60006185D9F80010C908A1FB0A12110A714366
:100B70000291029901390291029900293ED021681F
:100B80004A6952071AD40299013902910299A9B30C
:100B900021684A69520711D40299013902910299D8
:100BA00061B321684A69520708D402990139029158
:100BB000029919B321684A695207DAD50A6842F4E2
:100BC00000720A6009690170606A218D01306062FB
:100BD000481E2085608D0138608562B62068616A94
:100BE000006940E7202084F83D00002084F83E00A2
:100BF00084F83C0004B0BDE8F08700BF002020214D
:100C0000206384F83D1084F83E00216C41F02001FF
:100C1000216462B684F83C00012004B0BDE8F0878E
:100C20002DE9F04383B01E46174689460446FFF778
:100C30002FFC94F83D10202920D10546206800BFE4
:100C40008169890716D5FFF723FC411B20681A2903
:100C5000F6D381698907F3D500202021206384F829
:100C60003D1084F83E00216C41F02001216484F89D
:100C70003C0003E094F83C10012903D1022003B0AA
:100C8000BDE8F083012184F83C100168C90703D155
:100C9000016841F001010160016840F2020821F49D
:100CA00000610160212184F83D10102184F83E107C
:100CB0000021216467626685618DC0F2010821858B
:100CC000A8F10211E162E16A0A9E11F5803F18BFA6
:100CD00001291DD1016841F48071016020464FF067
:100CE000011100223346009501F098F950B12068B7
:100CF0000068C00544BF4FF400702064012003B0B9
:100D0000BDE8F0832069B0F5804F07D1FE2015E0E3
:100D10000829DFD0216B1229DCD0DFE7062000EAAA
:100D2000D9102168F030086108F1060120463246EA
:100D30002B4601F05DFA0028E0D1FF20216800EA8F
:100D4000090008612046414632462B4601F050FA20
:100D50000028D3D100200290206841690291806967
:100D60000290029806E000BF204631462A4601F074
:100D7000F5F818BB208D68B3204631462A4601F0AD
:100D8000EFFAD8B9606A2168024612F8013B0B619C
:100D90006262628D013A6285228D531E23854F69FE
:100DA0007F07E1D51B04DFD0437802300B6160621E
:100DB000608D01386085901E2085D5E7206C042861
:100DC0009CD12068016841F400710160012003B0EA
:100DD000BDE8F0832068016841F4007101602020C3
:100DE00084F83D00002084F83E0084F83C0003B005
:100DF000BDE8F08310B586B045F200410068C4F24A
:100E0000000100228842049202D006B010BD00BF4B
:100E100041F21804C4F20204206840F00800206087
:100E2000206800F0080001900198C0200290122074
:100E300003900320059001F5384002A9FFF71AFA44
:100E4000606840F400106060606800F40010019079
:100E5000019806B010BD000040F2000040F2881179
:100E6000C2F20000C2F2000100780A681044086073
:100E70007047000080B542F20000C4F20200016831
:100E800041F010010160032000F08EF80F2000F007
:100E900005F800F027F8002080BD000070B540F292
:100EA0000006C2F2000640F208013278C2F20001E8
:100EB0004FF47A730968B3FBF2F20446B1FBF2F126
:100EC000084600F04FFB0F2C4FF0010508D838B949
:100ED0004FF0FF3021460022002500F039F8746001
:100EE000284670BD82B041F21800C4F202000168C9
:100EF000022241F001010160016801F0010101914C
:100F00000199416841F080514160406800F0805093
:100F1000009000980420C4F20100016862F31A6195
:100F2000016002B070470000002848BF7047C1B29E
:100F300000F01F00012202FA00F04EF20012CEF281
:100F4000000242EAD10121F003010860704700006D
:100F500010B54EF60C5CCEF2000CDCF80030C3F39A
:100F6000022E8EF00704042C28BF0424BEF10303D4
:100F70004FF0FF3E0EFA04F438BF0023A14399401E
:100F80000EFA03F39A43114300F00F0200F160439D
:100F90000901043A03F564436244002848BF02F1A2
:100FA0000C03197010BD00004EF60C51CEF200017A
:100FB0000A684FF6FF031A4060F30A2242F080608D
:100FC00040F0FD70086070472DE9F04381B00028C3
:100FD00000F0858042F20008C4F202080446D8F806
:100FE00000000D4600F0070088420CD2D8F800003F
:100FF00020F007002843C8F80000D8F8000000F0EF
:101000000700A8426BD1206841F204098107C4F2AD
:10101000020917D5410705D5D9F8001041F4E06160
:10102000C9F80010010705D5D9F8001041F4605146
:10103000C9F80010D9F80010A26821F0F00111439E
:10104000C9F80010C00741D1D8F8000000F007002F
:10105000A8420CD9D8F8000020F007002843C8F8AF
:101060000000D8F8000000F00700A84237D120683F
:10107000410707D5D9F80010E26821F4E061114377
:10108000C9F80010000708D5D9F80000216920F43C
:10109000605040EAC100C9F80000D9F8002002F011
:1010A0000C00082841F20020C0F27A0050D142F62C
:1010B0009C63C2F38341C0F60003595CD2033BD466
:1010C00040F60010C0F23D00484341E0606802284D
:1010D0000AD001282AD159F8041C890308D4012018
:1010E00001B0BDE8F08300BF59F8041C8901F6D5B2
:1010F000D9F8001021F003010843C9F80000FFF7F8
:10110000C7F9064641F28837D9F80000616800F057
:101110000C00B0EB810F97D0FFF7BAF9801BB842F3
:10112000F2D9032001B0BDE8F08300BF59F8041CD8
:101130008907D4D5DCE700BFD9F8002042F69A63CE
:10114000C2F34042C0F600039A5C4843B0FBF2F0A1
:10115000D9F8001042F68262C1F30311C0F6000212
:10116000515C40F2080220FA01F140F20400C2F2A0
:1011700000000068C2F200021160FFF78FFE00203D
:1011800001B0BDE8F083000040F2080041F2040124
:10119000C2F20000C4F202010068096842F69262DD
:1011A000C1F30221C0F60002515CC8407047000044
:1011B0002DE9F04182B0002868D00446007841F261
:1011C0000006C007C4F2020625D0706800F00C00CB
:1011D00004281BD0706800F00C00082802D1706849
:1011E000C00313D46068002800F06881B0F5A02F18
:1011F00000F07C81B0F5803F00F07C81306820F405
:1012000080303060306820F4802076E130688003E0
:1012100001D56068D0B32078800718D5706810F0C9
:101220000C0F07D0706800F00C0008286ED17068B1
:10123000C0036BD43068800702D52069012825D10E
:101240003068616920F0F80040EAC1003060207821
:1012500000071FD42078400732D4E56995B1706843
:1012600000F00C00082840F08F80012D0ED070682F
:10127000216A00F480328A4208D1616A00F4701059
:10128000884203D1002002B0BDE8F081012002B005
:10129000BDE8F081A069002862D00020C4F242209D
:1012A0000121C0F88014FFF7F3F80546706A800743
:1012B00000F18C80FFF7ECF8401B0228F6D92AE1F8
:1012C000F06910F0805808D1F06940F08050F0616A
:1012D000F06900F080500090009847F20007C4F2D7
:1012E00000073868C00529D4386840F48070386039
:1012F000FFF7CEF8054600BF3868C0051ED4FFF7DB
:10130000C7F8401B6428F7D905E100BF2069002811
:1013100040F20000C4F2422000F08280012101600E
:10132000FFF7B6F8054600BF306880073FF588AF85
:10133000FFF7AEF8401B0228F6D9ECE0E068002881
:1013400000F08080052800F09780012800F0988048
:10135000306A20F001003062306A20F0040092E030
:101360000020C4F242200021C0F88014FFF790F85A
:10137000054600BF706A80077FF56CAFFFF788F8FD
:10138000401B0228F6D9C6E00027C4F242270020FD
:101390003866FFF77DF8022D05460BD130688001D5
:1013A00040F1BE80FFF774F8401B02284FF00300A5
:1013B000F4D968E7306880017FF564AFFFF768F81B
:1013C000401B02284FF00300F4D95CE740F208000C
:1013D000C2F20000006844F6D351C1F26201A0FBE2
:1013E0000101480A019000BF00BF0198411E00287A
:1013F00001913FF42FAF00BF0198411E00280191D9
:101400003FF428AF00BF0198411E002801913FF42E
:1014100021AF00BF0198411E00280191E4D119E7D6
:1014200000210160FFF734F8054600BF30688007EF
:101430007FF50DAFFFF72CF8401B02284FF003009B
:10144000F4D920E7306A20F001003062306A20F0E1
:1014500004003062FFF71CF8054641F2883700BFF0
:10146000306A800720D5FFF713F8401BB8424FF0D1
:101470000300F5D907E700BF306A40F0040030628E
:10148000306A40F001003062FFF702F8054641F291
:10149000883700BF306A800706D4FEF7F9FF401B8B
:1014A000B842F7D937E000BFB8F1000F7FF4D5AEEE
:1014B000F06920F08050F061CFE600BF306820F482
:1014C00080303060306820F480203060FEF7E0FF2C
:1014D000054600BF306880037FF59DAEFEF7D8FF5C
:1014E000401B64284FF00300F4D9CCE6306840F488
:1014F00080203060306840F480303060FEF7C8FFF4
:10150000054600BF306880033FF585AEFEF7C0FF9B
:10151000401B6428F6D9032002B0BDE8F08100BF6B
:10152000206AB0F5803F05D17168A26821F40031CE
:10153000114371607168626A21F4741111430843A8
:10154000706001203866FEF7A3FF04463068800112
:101550003FF598AEFEF79CFF001B02284FF00300FA
:10156000F4D990E6411E0020B0EB116F1CBF0120A2
:1015700070474EF21002CEF2000251604EF6235137
:10158000CEF20001F0230B700721906011607047CC
:10159000704700007047000010B590F83C20012A09
:1015A0004FF0020233D080F83D200268D2F804E008
:1015B000D2F808C00C682EF07003234340F2FF7489
:1015C000C4F20004A24253600ADCB2F1804F13D08F
:1015D00040F20043C4F200039A420DD011E000BF74
:1015E00042F60043C4F201039A4205D040F60003DC
:1015F000C4F200039A4204D149682CF080031943D5
:1016000091600121002280F83D1080F83C201046B6
:1016100010BD0000002804BF0120704710B504462B
:1016200090F83D0028B9002084F83C00204600F0E6
:1016300067F8022084F83D00206840F2FF730268DA
:10164000C4F2000342F6004C9842C4F2010C15DCCF
:10165000B0F1804F1AD040F20041C4F2000188423C
:1016600014D0984218DCB0F1804F1DD040F20041F8
:10167000C4F20001884217D01AE000BF604505D0CF
:1016800040F60001C4F200018842EAD1A16822F0CC
:1016900070020A439842E6DD604505D040F600013D
:1016A000C4F20001884203D1216922F440720A4346
:1016B000A36922F08001D4F804E0E2681943604590
:1016C0000160C262C0F828E002D16169CCF8301034
:1016D00001214161002084F8461084F83E1084F80E
:1016E0003F1084F8401084F8411084F8421084F8C8
:1016F000431084F8441084F8451084F83D1010BD60
:1017000080B582B0006842F60041C4F2010188420F
:101710001CBF02B080BD41F21800C4F20200016893
:10172000002241F4006101600068002100F40060C3
:10173000019001981920FFF70BFC192002B0BDE8B9
:101740008040FFF7F1BB000090F83D1001291CBF5D
:1017500001207047022180F83D10006840F2FF72BE
:10176000C168C4F20002904241F00101C16009DC8D
:10177000B0F1804F12D040F20041C4F20001884223
:101780000CD012E042F60041C4F20101884205D0BB
:1017900040F60001C4F20001884206D1816801F0E0
:1017A0000701062904BF00207047016841F00101CC
:1017B000016000207047000080B590F83C20012AAD
:1017C0004FF0020200F0C28080F83D20D0F800C047
:1017D0004FF67772DCF8083023EA0202CCF80820D2
:1017E0000B684F2B28DC1F2B44DD202B45D0302BE2
:1017F00043D0402B40F0AC80D1F804E0C968DCF85D
:101800002030DCF8202022F00102CCF82020DCF887
:10181000182022F0F00242EA011123F00A0242EA03
:101820000E02CCF81810CCF82020DCF8081041F09B
:10183000470121F0300180E06F2B27DDB3F5005F19
:1018400048D0B3F5805F7AD0702B40F08180D1E929
:1018500001E3C968DCF8082043EA0E0322F47F4262
:1018600043EA01211143CCF80810DCF8081041F0DC
:10187000770162E00BB1102B6AD1DCF8081021F07F
:101880007001194341F0070157E000BF502B35D0DC
:10189000602B5DD1D1F804E0C968DCF82030DCF8B9
:1018A000202022F01002CCF82020DCF8182022F4AE
:1018B000704242EA013123F0A00242EA0E12CCF853
:1018C0001810CCF82020DCF8081041F0670121F056
:1018D000100132E0D1E901E3C968DCF8082043EAED
:1018E0000E0322F47F4243EA01211143CCF8081091
:1018F000DCF8081041F480411FE000BFD1F804E09B
:10190000C968DCF82030DCF8202022F00102CCF895
:101910002020DCF8182022F0F00242EA011123F026
:101920000A0242EA0E02CCF81810CCF82020DCF8AB
:10193000081041F0570121F02001CCF808100022D6
:10194000012180F83D10002180F83C10104680BD38
:101950000122F5E77047000010B5016804460869E8
:10196000800744BFC8685FEA807039D408694007BF
:1019700044BFC8685FEA40703ED40869000744BFAE
:10198000C8685FEA007045D40869C00644BFC868EB
:101990005FEAC0604AD40869C0071CBFC8685FEA34
:1019A000C07051D10869000644BFC8685FEA006092
:1019B00052D40869400644BFC8685FEA406053D407
:1019C0000869800646BFC8685FEA806010BD6FF096
:1019D000200220460A61BDE81040FFF7DBBD00BFD2
:1019E0006FF002000861012020778869800743D0EA
:1019F0002046FFF7AFFF45E06FF0040008610220CA
:101A00002077886910F4407F40D02046FFF7A2FF7E
:101A100042E000BF6FF00800086104202077C86929
:101A200080073DD02046FFF795FF3FE06FF01000A4
:101A3000086108202077C86910F4407F3AD020461A
:101A4000FFF788FF3CE000BF6FF00100086120460F
:101A500000F070FA2168A5E76FF080000861204669
:101A6000FFF796FD2168A4E76FF04000086120466B
:101A700000F070FA2168A3E7204600F04BF82046FA
:101A800000F0E6F92168002020776FE7204600F09B
:101A900041F8204600F0DCF92168002020776CE74F
:101AA000204600F037F8204600F0D2F921680020E7
:101AB000207769E7204600F02DF8204600F0C8F9AD
:101AC00021680020207766E780B586B00068002195
:101AD000B0F1804F049101D006B080BD41F21800F2
:101AE000C4F20200016841F004010160006802A92B
:101AF00000F0040001900198012002900220039060
:101B0000059040F60000C4F20100FEF7B3FB06B0FA
:101B100080BD0000704700002DE9F04390F83C3094
:101B2000012B04BF0220BDE8F0834FEAB202032A72
:101B30003CD8DFE802F0034381BD00BF036842F6F2
:101B400000461D6A1A6AC4F2010622F001021A62F6
:101B50001A465C6852F818CFB3428E68D1F800E09C
:101B600025F0020545EA06050CD1CE68D1E90578D5
:101B700024F4407425F00C0526F004063C4335435C
:101B800044EA08042CF0730747EA0E075C609F6183
:101B90004F6809695F631D629F6947F008079F618D
:101BA0009F6927F004079F61B2E000BF0121002276
:101BB00080F83C200846BDE8F08300BF036842F689
:101BC00000461D6A1A6AC4F2010622F010021A6267
:101BD0001A46D3F804C052F8184FB3428E68D1F8B1
:101BE00000E025F0200545EA061510D1CE68D1E9C0
:101BF000058725F0C0096FF0400505EA06152CF4AD
:101C0000406647EA080745EA090546EA870C24F4D6
:101C1000E64444EA0E27C3F804C09F614F6809698F
:101C20009F631D629F6947F400679F619F6927F466
:101C300080679F616BE000BF036842F600461D6A43
:101C40001A6AC4F2010622F480721A621A46D3F8A4
:101C500004C052F81CEFB3428E680C6825F400757E
:101C600045EA062511D1CE68D1E9058725F44069FA
:101C7000360240F2FF4526EA05052CF4405647EAB5
:101C8000080745EA090546EA071C2EF073072743B3
:101C9000C3F804C0DF614F680969DF631D62DF6953
:101CA00047F00807DF61DF6927F00407DF612FE0F5
:101CB000036842F60047D3F820C01A6AC4F201074D
:101CC00022F480521A621A465C6852F81C5FD1F8FE
:101CD00000E08E68BB4204D14F6924F4804444EA9A
:101CE00087142CF4005747EA063725F4E64646EAFF
:101CF0000E265C60DE614E6809691E641F62DF6942
:101D000047F40067DF61DF6927F48067DF6109025C
:101D10001368194311600021002280F83C20084616
:101D2000BDE8F083002804BF0120704710B50446C9
:101D300090F83D0028B9002084F83C00204600F0CF
:101D400067F8022084F83D00206840F2FF730268C3
:101D5000C4F2000342F6004C9842C4F2010C15DCB8
:101D6000B0F1804F1AD040F20041C4F20001884225
:101D700014D0984218DCB0F1804F1DD040F20041E1
:101D8000C4F20001884217D01AE000BF604505D0B8
:101D900040F60001C4F200018842EAD1A16822F0B5
:101DA00070020A439842E6DD604505D040F6000126
:101DB000C4F20001884203D1216922F440720A432F
:101DC000A36922F08001D4F804E0E2681943604579
:101DD0000160C262C0F828E002D16169CCF830101D
:101DE00001214161002084F8461084F83E1084F8F7
:101DF0003F1084F8401084F8411084F8421084F8B1
:101E0000431084F8441084F8451084F83D1010BD48
:101E100080B582B00068B0F1804F1CBF02B080BDB9
:101E200041F21C00C4F202000168002241F00101ED
:101E300001600068002100F00100019001981C2061
:101E4000FFF786F81C2002B0BDE88040FFF76CB8B1
:101E50007047000041B1082910D0042914BF00F1D7
:101E6000410200F13F020BE090F83E20012A1CBF26
:101E700001207047022280F83E2013E000F140026A
:101E80001278012A1CBF012070470222082907D0BE
:101E9000042914BF80F8412080F83F2002E000BFF1
:101EA00080F84020006801F01F010122036A8A4087
:101EB00023EA02010162036A42F64441C4F20101CD
:101EC0001A43A1F14403984202620FD040F2FF711D
:101ED000C4F20001884213DCB0F1804F1CD040F204
:101EE0000041C4F20001884216D01CE00A6842F4A6
:101EF00000420A6040F2FF71C4F200018842EBDD4B
:101F000042F60041C4F20101884205D040F60001CA
:101F1000C4F20001884206D1816801F00701062958
:101F200004BF00207047016841F0010101600020FA
:101F300070470000006842F60041C4F20101884287
:101F400018BF704740F27000C2F20000C168013152
:101F5000C160704770470000FEE7000070B503687D
:101F6000044653F8140F400711D40E46481C29D0DC
:101F700086BB00BF1868400527D4FEF789FA23689E
:101F800053F8140F400739D518684007F2D50020E0
:101F900070BD00BF18684007F9D41868400514D414
:101FA00018684007F3D4186840050ED41868400735
:101FB000EDD41868400508D4186840074FF00000B9
:101FC00048BF70BD18684005E4D56FF480601860A4
:101FD000042014E0154603E053F8140F4007D6D44C
:101FE00018684005F1D4FEF753FA401B2368B0424D
:101FF000F2D958694007EFD4202000E020200021CA
:102000002022216384F83D2084F83E10226C104386
:102010002064012084F83C1070BD00002DE9F041DF
:10202000054600681E46144601F47F0201338FB254
:1020300042D0DDF81880B2F5803F40F087804069DB
:102040003840C01BB0FA80F04009A04240F0C88080
:102050004EB924E040693840C01BB0FA80F0400916
:10206000A04240F0BD80FEF713FAA0EB08012868FB
:10207000B142EFD941693940C91BB1FA81F149092F
:10208000A142E7D19BE000BF40693840C01BB0FAD5
:1020900080F04009A0424FF0000040F0A680FEF71B
:1020A000F7F9286841693940C91BB1FA81F149093A
:1020B000A142E9D183E000BFB2F5803F24D100BF47
:1020C00041693940C91BB1FA81F14909A14240F087
:1020D000878041693940C91BB1FA81F14909A142A0
:1020E00040F07E8041693940C91BB1FA81F149094C
:1020F000A14275D141693940C91BB1FA81F1490941
:10210000A142DDD06CE000BF81693940C91BB1FA42
:1021100081F14909A14263D181693940C91BB1FAF2
:1021200081F14909A1425BD181693940C91BB1FAEA
:1021300081F14909A14253D181693940C91BB1FAE2
:1021400081F14909A142DFD04AE000BF80693840EF
:10215000C01BB0FA80F04009A04241D146B923E04B
:1021600080693840C01BB0FA80F04009A0423BD1E2
:10217000FEF78EF9A0EB08012868B142F0D9816919
:102180003940C91BB1FA81F14909A142E8D116E0F1
:1021900080693840C01BB0FA80F04009A0424FF07F
:1021A000000018BFBDE8F081FEF772F92868816968
:1021B0003940C91BB1FA81F14909A142E8D1002097
:1021C0002021286385F83D1085F83E00296C41F0F8
:1021D0002001296485F83C000120BDE8F08100BFA2
:1021E0000020BDE8F08100BF0020BDE8F0810000C4
:1021F000F0B581B0044600681D4643698FB203EA1A
:102200000701B94202D1002001B0F0BD4169164674
:10221000013201F4806125D0002940D1CEB100BF48
:10222000FEF736F9411B2068B14203D941693940B4
:10223000B9424BD141693940B942E4D041694905BD
:10224000EED52CE041693940B942DCD041694905FD
:1022500025D4FEF71DF9206841693940B942F1D013
:10226000202024E0D9B941693940B942CBD0416935
:10227000490514D441693940B942C4D0416949057E
:102280000DD441693940B942BDD04169490506D4F0
:1022900041693940B942B6D041694905E3D5016881
:1022A00041F4007101606FF48061416104200021FC
:1022B0002022216384F83D2084F83E10226C1043D4
:1022C000206484F83C10012001B0F0BD2020EEE72E
:1022D00070B504460068154650F8143F5A063DD4C0
:1022E0000E4629B926E000BF50F8141F490635D420
:1022F0000168C90621D4FEF7CBF8411B2068B14222
:10230000F2D941694906EFD400202021206384F8E6
:102310003D1084F83E00206C40F0200018E000BF23
:10232000FEF7B6F8206850F8141F4906ECD501688E
:10233000490613D40168C906F2D56FF01001016097
:1023400000202021206384F83D1084F83E00206C9A
:102350002064002084F83C00012070BD002070BD86
:1023600070B50368044653F8140F000611D40E46E6
:10237000481C29D086BB00BF1868400527D4FEF74B
:1023800087F8236853F8140F000639D5186800063B
:10239000F2D5002070BD00BF18680006F9D4186897
:1023A000400514D418680006F3D4186840050ED40C
:1023B00018680006EDD41868400508D418680006AF
:1023C0004FF0000048BF70BD18684005E4D56FF4B9
:1023D00080601860042014E0154603E053F8140FE1
:1023E0000006D6D418684005F1D4FEF751F8401B1A
:1023F0002368B042F2D958690006EFD4202000E0EB
:10240000202000212022216384F83D2084F83E1002
:10241000226C10432064012084F83C1070BD000041
:10242000FEE70000FEE70000704700002DE9F047DE
:1024300084B0054675208DF80D0062F02F00C7B2FC
:1024400098460C4608702846394602220523FEF7B6
:10245000E1F828B10126304604B0BDE8F08700BF9E
:102460004FF47A790DF10D02284639460123CDF853
:1024700000900126FEF7D4FB0028ECD103AA2846E1
:1024800039460123CDF800900126FEF7CBF900284C
:10249000E1D19DF80C00682814D16B20ADF80A003A
:1024A0004FF47A7A0DF10A02284639460223CDF814
:1024B00000A0FEF7B5FB58B10126304604B0BDE8D8
:1024C000F08700BF0326304604B0BDE8F08700BFA8
:1024D000DDF83090277840F219700DF10E06ADF856
:1024E0000E0000BF2846394632460223CDF800A030
:1024F000FEF796FB0028F5D128462146424600F01B
:10250000BFF8284621464A4600F00EF9002630461C
:1025100004B0BDE8F08700002DE9F04184B00E78EA
:10252000884605463B204FF47A740DF109078DF873
:10253000090000BF284631463A4601230094FEF7C1
:102540006FFB0028F6D14FF47A740DF10A0700BF33
:10255000284631463A4606230094FEF763F90028E0
:10256000F6D1BDF80A00BDF80C1000BA000CA8F8AE
:102570000C0008BABDF80E10000CA8F80E0008BA3E
:10258000010C0020A8F8101004B0BDE8F081000094
:102590002DE9F04184B00E788846054643204FF47B
:1025A0007A740DF109078DF8090000BF28463146FD
:1025B0003A4601230094FEF733FB0028F6D14FF48E
:1025C0007A740DF10A0700BF284631463A460623C1
:1025D0000094FEF727F90028F6D1BDF80A00BDF8EF
:1025E0000C1000BA000CA8F8120008BABDF80E10C2
:1025F000000CA8F8140008BA010C0020A8F8161066
:1026000004B0BDE8F08100002DE9F04182B00E7801
:102610008846054641204FF47A740DF105078DF880
:10262000050000BF284631463A4601230094FEF7D4
:10263000F7FA0028F6D14FF47A740DF1060700BFBF
:10264000284631463A4602230094FEF7EBF800286C
:10265000F6D1BDF80600C0BA00F03AFB0021C4F282
:10266000AA3100F073FA41F6B861C4F2122100F009
:102670000BFA01460020C8F8181002B0BDE8F0813E
:102680002DE9F04383B00F789146884606461C201A
:102690004FF47A750DF10A048DF80A003046394678
:1026A000224601230095FEF7BBFA0028F6D14FF42D
:1026B0007A750DF10B0400BF3046394622460123DE
:1026C0000095FEF7AFF80028F6D19DF80B004FF407
:1026D0007A7500F0E70040EAC9000DF10B048DF8AF
:1026E0000B0000BF30463946224601230095FEF715
:1026F00097FA0028F6D1B9F1030F11D84FF06250C4
:10270000DFE809F00C02060A4FF0645006E000BF53
:102710004FF0665002E000BF4FF06850C8F8080064
:10272000002003B0BDE8F0832DE9F04383B00F78BB
:102730009146884606461B204FF47A750DF10A042F
:102740008DF80A0030463946224601230095FEF7EF
:1027500067FA0028F6D14FF47A750DF10B0400BF2B
:1027600030463946224601230095FEF75BF80028E3
:10277000F6D19DF80B004FF47A7500F0E70040EABF
:10278000C9000DF10B048DF80B0000BF304639462F
:10279000224601230095FEF743FA0028F6D1B9F14D
:1027A000030F19D842F22D30C3F6FA30DFE809F0F2
:1027B0001202080E42F22D30C3F67A400AE000BF42
:1027C0004CF29010C3F6F94004E000BF4CF29010B8
:1027D000C3F67950C8F80400002003B0BDE8F083C8
:1027E00070470000FEF738BB7047000040F2A400BD
:1027F000C2F20000FFF7B0B840F24010C2F2000091
:10280000FFF7AAB8FEE7000092B0FEF733FB002402
:102810000120CDE90D44CDE90B4408900C904FF414
:10282000E0104FF480310225119008A8CDE9091479
:10283000CDE90F51FEF7BCFC20B1EFF3108072B66A
:10284000FEE700BF0F20CDE902054FF48060CDE91F
:10285000050402A802210494FEF7B6FB20B1EFF3B1
:10286000108072B6FEE700BF41F21800C4F2020009
:10287000016845F2004541F020010160016840F225
:10288000700701F02001089108990168C4F2000561
:1028900041F0040101600168C2F2000701F0040187
:1028A00008910899016805F5584241F00801016056
:1028B0000068002100F0080008900898384640F8A9
:1028C000342F48F69F4240F2CF7380260B91CDE91A
:1028D0000911CDE90211C0E90121C0E90331C0E9C4
:1028E0000516FEF797FE28B1EFF3108072B600BF11
:1028F000FEE700BF4FF4805007F13404089008A9A8
:102900002046FEF759FF28B1EFF3108072B600BFE2
:10291000FEE700BF02A92046FEF73EFE20B1EFF31E
:10292000108072B6FEE700BF40F2EC0048F2A061F2
:10293000C2F20000C0F2010100264FF48042C0E95B
:102940000051C0E90266C0E90426C0E906660662D5
:10295000FDF7A4FD20B1EFF3108072B6FEE700BFD3
:1029600040F24010C2F200004FF0804140F2077286
:1029700040F21F3380E846008021CDE90266CDE9B0
:102980000D66CDE90B66C0E903368161FFF7CAF930
:1029900020B1EFF3108072B6FEE700BF40F24010A6
:1029A000C2F2000002A9FEF7F7FD28B1EFF3108094
:1029B00072B600BFFEE700BF602040F240150890ED
:1029C0000020C2F20005CDE909000C9008A92846B4
:1029D0000022FFF7A1F828B1EFF3108072B600BF14
:1029E000FEE700BF2846FFF76FF82046FEF7ACFE73
:1029F00028460021FFF72EFA40F2EC0648F2B51AFD
:102A00004FF0030807F11804C2F2000644F62069EB
:102A1000C1F64E3A11E000BFB7F90000484480FB10
:102A20000A01481100EBD1700930386128460021B5
:102A3000FFF710FA386929684863387BC007EBD183
:102A40003046214600220323CDF80080FFF7EEFC3C
:102A50003220FDF7FBFB30462146FFF75DFDB88CC9
:102A6000D7F826103880C7F8021030462146FFF705
:102A7000CBFD386B214678613046FFF789FD788DB4
:102A8000F96AF880B960C7E790EA010F48BF81F0A2
:102A9000004100F18881421A3CBF801A89184FEA30
:102AA000D052A2EBD1534FF07F4C1CEA410F18BF1C
:102AB0009CEA026F00F03B804FF0004C4CEA002093
:102AC0004CEA012121FA03FC10EB0C0C1ED202F19E
:102AD000FF325FEA1C2040EBC25038BF70471CF049
:102AE0007F0F4FEA400C18BFBCF17F4F38BF7047D3
:102AF000C3F12003994008BF20F00100BCF17F4FD3
:102B000038BF7047A0F1C04000F040B94FEA3C0028
:102B1000000A40EBC25028BF1CF0FF0F4FEA400CE8
:102B2000E6D018BFBCF17F4F38BF7047EAE79CEA98
:102B3000026F05D010EA5C0F08BF00F0004070473C
:102B400010B500F0DDF800BF64FBBE3E4FF47F0C13
:102B50001CEAD0121EBF1CEAD11392EA0C0F93EAB2
:102B60000C0F00F0858090EA010F48BF42F480729C
:102B700040F4000C41F400002CF07F4120F07F4035
:102B800000B5A2EB030281420FF2081CACEB504EE1
:102B90009EF800E0C0F100004FEA4E0E00FB0EFC74
:102BA00038BF49004FEA2C1C0CFB0EF34FEACE1E37
:102BB0000EEB635E4FEA112C0EFB0CFC4FEAC121B9
:102BC0004FEA1C5300FB031102F5FA024FEA112CE5
:102BD0000EFB0CFC4FEA01314FEADC4C00FB0C1100
:102BE00042EB2242C14228BF09184CEB03335DF887
:102BF00004EB10EB410143EBC250B2F57C0F38BF40
:102C0000704729D512F0F00F1CBF00F1C04000F052
:102C100000407047008182838485868788898B8CF9
:102C20008D8E8F919293959697999A9C9D9FA0A235
:102C3000A3A5A7A8AAACAEB0B2B3B5B7B9BCBEC085
:102C4000C2C5C7C9CCCED1D4D7D9DCDFE2E6E9EC26
:102C5000F0F3F7FAFE0000004FEA400C0CF1807C24
:102C6000BCF17E4F28BF7047B0F1C04000F08EB875
:102C70000CEAD11390EA010F48BF42F4807262451A
:102C800038BF634507D213F47F0F16D080EA0100E6
:102C900000F00040704710B500F032F8097EFC3EAD
:102CA00000F005B880EA010000F00040704780EABB
:102CB000010000F0004000F069B812F47F0F04BF7B
:102CC0000248704780EA010000F060B80000C07F51
:102CD00010F0004148BF4042B0FA80F310FA03F20E
:102CE000C3F19D030BD051EAC35101EB12205306EF
:102CF00038BF704700F1010008BF20F001007047A5
:102D00000EF1020E2EF0030E5EF8044B244204D4A2
:102D10004FEA4102B2F17F4F11D84FEA4003B3F1BD
:102D20007F4F0CD80ED14FEAD07C0CEB4C0C0CF141
:102D3000020CB2F17F4F08BF4CEBD17C04E04FF0A6
:102D4000080C01E04FEAD17C0CEB4C0324FA03F4AD
:102D500004F00704B4F1040C06D20EEB840CBDE8B9
:102D600010404CF0010C6047DFE80CF0070802024D
:102D70004FF00040A0F5800010BD0846420018BF8B
:102D8000D2F1807288BF00F0004010BDFF2141EAFF
:102D9000D050C0057047000090EA010F48BF81F095
:102DA00000413FF578AE421A04D882F00042A0EB11
:102DB000020011444FEAD052A2EBD1534FF07F4CA6
:102DC0001CEA410F18BF9CEA026F4AD04FF0004C3A
:102DD0004CEA00204CEA012121FA03FCB0EB0C0C78
:102DE0000FD412F0FE0F36D05FEA4C001DD5001252
:102DF00040EBC25038BF70471CF03F0F18BF704700
:102E00000BE05FEA1C20A2F1010240EBC25038BF88
:102E100070471CF07F0F18BF7047C3F12003994023
:102E200014BF401E20F0010070474FEA12238008B3
:102E300008BF7047B0FA80FCA2EB0C02CCF1280C62
:102E400060FA0CF093EA122F04BF00EBC2507047F7
:102E50004FEAC3707047130A5FEADC1008BF70477F
:102E6000F6E79CEA026F04D010EA5C0F08BF00206E
:102E7000704710B5FFF744FF40DFF63E81F0004099
:102E80007047000000000000000001020304060774
:102E90000809000000000102030401020203040506
:102EA000060708090A0B0C0D0E0F1010D02E000893
:102EB000000000201000000028010008E02E00089B
:102EC00010000020800700004401000800000000FE
:102ED00001000000100000000024F40000000000C9
:04000005080000ED02
:00000001FF
