:020000040800F2
:1000000058080020A901000839290008ED2000083F
:10001000352900086D0C00084D290008000000007B
:10002000000000000000000000000000412900085E
:10003000710C0008000000003D2900084529000857
:10004000C3010008C3010008C3010008C301000880
:10005000C3010008C3010008C3010008C301000870
:10006000C3010008C3010008C3010008C301000860
:10007000C3010008C3010008C3010008C301000850
:10008000C3010008C3010008C3010008C301000840
:10009000C3010008C3010008C3010008C301000830
:1000A000C3010008C3010008C3010008C301000820
:1000B000C3010008C3010008C3010008C301000810
:1000C000C3010008C3010008C3010008C301000800
:1000D000C3010008C3010008C3010008C3010008F0
:1000E000C3010008C3010008C301000800F002F8C2
:1000F00000F04AF80AA090E8000C82448344AAF178
:100100000107DA4501D100F03FF8AFF2090EBAE875
:100110000F0013F0010F18BFFB1A43F0010318473B
:10012000EC5700000C580000103A24BF78C878C182
:10013000FAD8520724BF30C830C144BF04680C60ED
:10014000704700000023002400250026103A28BF35
:1001500078C1FBD8520728BF30C148BF0B60704739
:10016000662905F09382732900F00184002070470E
:100170001FB500F001FC04000020002104F0DAFAB1
:10018000E0601FBD10B510BD00F0FAFC1146FFF78E
:10019000EFFF02F0ABFE00F018FD03B4FFF7F2FF33
:1001A00003BC00F05BFD0000094880470948004798
:1001B000FEE7FEE7FEE7FEE7FEE7FEE7FEE7FEE717
:1001C000FEE7FEE704480549054A064B7047000074
:1001D00049290008ED0000085802002058080020B6
:1001E000580400205804002053EA020C23D010B514
:1001F0004C1084EA530404D54042C1F1000138BFD9
:10020000491E1B4204D55242C3F1000338BF5B1E96
:1002100000F0EDF814F0804F04D04042C1F100012D
:1002200038BF491E14F0004F04D05242C3F10003FE
:1002300038BF5B1E10BD13B540424FF0000070EB9D
:100240000104B8BF012001F0004100281CBF6FF07D
:1002500000414FF0FF30AFF300801CBD0FB41CB560
:10026000084B06AA7B4469460090059800F055FBB0
:1002700004460020694600F063FB20461CBC5DF884
:1002800014FB0000D906000070B50C460546012A93
:1002900005D02878800600D5EA69002302E0012312
:1002A00005E05B1C934202D2E05C0028F9D1A8690A
:1002B000E618C01AA861286A184428622846AFF3D5
:1002C000008004E0D5E9012114F8010B9047B44205
:1002D000F8D32846AFF3008070BD2DE9F0474FF00A
:1002E000000A89460446C0F820A02046E1688847F5
:1002F000002876D0252806D0D4E901219047206A2D
:10030000401C2062F1E7E168204600258847C4F8D8
:100310001CA006460027C4F818A02A2E09D0304693
:1003200003F0E4FC38B304EB8708303EC8F81860EB
:1003300019E059F8041B204604EB87029161E1683B
:100340008847012F064618D1E069002820DA25F0F9
:1003500020051DE0D8F8180000EB800006EB4000F7
:100360003038C8F818002046E1688847064603F090
:10037000BDFC0028EED1012F0AD02E2E08D1204638
:10038000E16888477F1C0646022F45F02005C4DB44
:10039000A069002803DA404245F00105A061E807A2
:1003A00001D025F01005B6B1A6F14100192802D8F8
:1003B000203645F400654A463146204625604D46C4
:1003C000FFF7CEFE58B1012806D0ED1D25F007003D
:1003D00000F1080989E704E005F1040985E73046E2
:1003E0008AE7206ABDE8F08770477047704753EA94
:1003F000020C00F069802DE9F04B4FF00006002B55
:100400001FBFB3FA83F503FA05F424FA05F65E403C
:1004100012BF1643B2FA82F502FA05F4C5F12005BF
:100420001EBF22FA05FC44EA0C04203556EA044CAF
:100430004FEA144418BF641C4FF000084FF0000945
:10044000904271EB030C39D3002919BFB1FA81F73F
:1004500001FA07F6B0FA80F700FA07F6C7F12007AD
:100460001EBF20FA07FC46EA0C062037B6FBF4FC58
:10047000A7EB0507103F07F01F0BCBF120062CFA66
:1004800006F60CFA0BFB44BFB3460026202FA4BF90
:100490005E464FF0000B5BEA060C08BF4FF0010B05
:1004A00019EB0B0948EB0608ABFB027C06FB02CC00
:1004B0000BFB03CCC01B71EB0C01C1E70B460246E2
:1004C00041464846BDE8F08B13B5084318BF4FF0CE
:1004D000FF300146AFF30080BDE81C40704710B507
:1004E00000F04EFA006810BD10B5044600F048FA5E
:1004F000046010BD2DE9FF4F0C461E464FF0FF373C
:100500008BB0D2E90001DDF860800A908A46C1F321
:100510000A5505B93D46002108464FF00000BAF1E2
:10052000000F00F4400005DA00EB80004FF44001BA
:1005300001EA50004FEA9059B9F1010F00DDB946C8
:100540000A9850EA4A000ED044F61050A5F2FF3542
:1005500045432F14B8F1000F1ED07542291E1EDD31
:10056000C9F100021CE0B8F1010F4FF0000001D00A
:10057000302103E0F24305E02154401CB042FBDB94
:1005800030460022002121540B99C1F80880C1E9AE
:1005900000200FB0BDE8F08FBD1B6D1CDEE74A46A2
:1005A00000DA694206A800F075FA06AB93E8070086
:1005B00003AB83E8070050460A9902F045FF8DE837
:1005C0000700A0F500501F3800900398002D0ADDA9
:1005D00042F21F014A460844002303A903906846DB
:1005E00003F0AEF909E0A0F500504A461F38002399
:1005F00003A90390684603F0B8F98DE807000004EA
:10060000000C03D04FF0FF30410800E01046B8F175
:10061000000F03D00022009215461EE0751E05D47F
:1006200000F0B2F9303262556D1EF9D5B3460122A1
:10063000084302D000227F1C04E02078302801D13A
:1006400000227F1E002A099784D01DE0112D07DAB1
:1006500000F09AF9303262556D1C50EA0102F5D172
:10066000084302D00098C8B10EE00021681E05E0E2
:10067000235C625C63542254401E491C8142F7DBB8
:10068000AB46A81B401E0990002004F80B000B98F5
:10069000099AC0F80880C0E9002B7AE711264FF0CC
:1006A000000857E72DE9F04F88460446D21D22F096
:1006B000070191B0D1E90001CDE90A0103F08CFAFC
:1006C00002460B98C00F01D02D2007E0206881075B
:1006D00001D52B2002E0202101EAC000032A099065
:1006E00001D0072A05DB03464146204600F092F977
:1006F0000BE12078800601D5E06900E00620B8F122
:10070000650F814606D0B8F1660F18D0B8F1670FB3
:1007100070D131E00020B9F1110F009001DB1123FD
:1007200001E009F101030AAA01A90CA8FFF7E2FE02
:10073000DDE90C70002609F10105834647E0012040
:100740004B4600904FF000470AAA01A90CA8FFF7FA
:10075000D1FEDDE90DB00C995D46002610B909F116
:1007600001000D18B9EB050003D4C0F1FF3609F103
:100770000105A5EB09002BE0B9F1010F01DA4FF0FB
:1007800001090020B9F1110F0090484601DD112345
:1007900000E003460AAA01A90CA8FFF7ABFEDDE9B9
:1007A0000C704D4600268346207800070AD4AB45DE
:1007B00000DA5D4601A8012D04DD411911F8011C84
:1007C000302907D04F4502DA17F1040F04DA01206F
:1007D00082460FE06D1EEEE7002F02DCED1B3E446B
:1007E00003E0781CA84200DD7D1CB81B00F1010A63
:1007F0004FF000472078000703D4AA4501DB4FF0F3
:10080000FF3A0021B7F1004F0DF143088DF8431076
:1008100024D002202B23002F01DA7F422D230A212E
:10082000021EA0F1010000DC5FB197FBF1FC97FB19
:10083000F1F201FB1C7C17460CF1300C08F801CDDD
:10084000EEE7A8F1010003702188090501D54521D3
:1008500000E06521A0F1010800F8011C09980FA92A
:10086000A1EB0807FF1D00B10120411901EBEA705F
:10087000A1693844081A401EA0612078C00602D43D
:100880002046AFF30080099828B1D4E901219047B0
:10089000206A401C20622078C00622D52046AFF393
:1008A00000801EE0002E04DBB34502DD01A8805D60
:1008B00000E03020D4E901219047206A401C2062EA
:1008C000761CAAF101005FEA000A0AD100F054F890
:1008D000C0680168405CD4E901219047206A401C4F
:1008E0002062281EA5F10105DCDC07E0D4E9012126
:1008F00018F8010B9047206A401C2062381EA7F1AF
:100900000107F3DC2046AFF30080032011B041E67D
:1009100001694A1C02610878704700B58FB0CDE9C3
:1009200001310021059105497944CDE903101146B3
:100930006846FFF7D2FC0FB000BD0000E5FFFFFFE7
:100940000A6802F8010B0A60704710B5436913B1D9
:10095000AFF3008001E0FFF797FC012010BD127893
:1009600000F124010A7000224A700122EDE71168AB
:100970004FF0FF32E9E700000048704730000020E8
:10098000004870471000002030B5B0F10A0271F144
:1009900000034FEA900E4EEA817EB0EB0E0061EB51
:1009A00091014FEA101E4EEA017E10EB0E0041EB62
:1009B00011114FEA102E4EEA016E10EB0E0041EBC2
:1009C00011214FEA104E4EEA014E10EB0E0041EBA2
:1009D0001141401841F100014FEAD00040EA417056
:1009E0004FEAD1014FEA810444EA907410EB80058C
:1009F00044EB01046D1944EB0404521BA3414FF076
:100A0000000348BF0A3200D530BD401C41F100014F
:100A100030BD00002DE9F0411F4604460326016861
:100A2000072A01F4006004DB08B116A505E016A54D
:100A300003E008B115A500E015A521F01000206025
:100A4000A069C01EA0610FB1401EA0612046AFF397
:100A500000804FB1D4E9012138469047206A401CFC
:100A60002062C01C206206E0206AFAE7D4E9012176
:100A700015F8010B9047761EF8D22046AFF30080A0
:100A8000BDE8F0814E414E006E616E00494E460059
:100A9000696E66002DE9F047814616468AB03548F2
:100AA00078440DC88DE80D0032487844801C03ACB2
:100AB0000DC884E80D0041F69B300844372190FBB7
:100AC000F1F290FBF1F5A5F1800501FB12041B3C4E
:100AD00002D56442012000E00020DFF898A08046A3
:100AE0000027FA44AAF1BE0A0EE0E0070AD0324617
:100AF000684607EB470101230AEB810102F035FF4D
:100B00008DE8070064107F1C002CEED1194F7F4444
:100B1000AE3F19E0E80715D007EB04100DF1180AF5
:100B200090E80E008AE80E00C068F04201D19819E2
:100B300008903246012306A903A802F016FF03AB72
:100B400083E807006D10641C002DE3D14FF0010312
:100B500032466946B8F1000F03A802D002F0F0FE59
:100B600001E002F002FFC9E90001C9F808200AB05B
:100B7000BDE8F087E84D00000048704710000020F5
:100B80007546FFF7F9FFAE4605006946534620F06B
:100B90000700854618B020B5FFF714FBBDE82040DC
:100BA0004FF000064FF000074FF000084FF0000B29
:100BB000AC46ACE8C009ACE8C009ACE8C009ACE898
:100BC000C00921F007018D46704710B50446AFF308
:100BD00000802046BDE81040FFF7DFBA4FF0013C2F
:100BE00050F8042B51F8043B9A4221D1A2EB0C039C
:100BF000934313EACC1317D150F8042B51F8043B5C
:100C00009A4215D1A2EB0C03934313EACC130BD1F8
:100C100050F8042B51F8043B9A4209D1A2EB0C0383
:100C2000934313EACC13DBD04FF00000704700BFB2
:100C3000D01A01BAB1FA81F101F0180122FA01F0DB
:100C4000CB40DBB2C0B2C01AC1F120012CFA01F3D3
:100C5000D11A914311EAC311E6D170470149182016
:100C6000ABBEFEE72600020070470000FEE7000072
:100C700070470000B0B5044600F01EF9054640F28A
:100C80000000C2F200000078611C18BF044400BFDD
:100C900000F012F9401BA042FAD3B0BD2DE9F04F8D
:100CA00082B00E68002E00F0038140F20C4C41F23D
:100CB00000424FF6FF7EC4F2010CC4F20102042789
:100CC00000240123C1F2100E4FF0000A4FF000097A
:100CD000904208BF0327009745E000BF012704F0BA
:100CE0000C030F229A402BEA020207FA03F34FEAA1
:100CF0009A051A4346F82520D1F804B040F2004581
:100D0000C4F201055FEACB322A6854BF22EA080226
:100D100042EA08022A606A685FEA8B3354BF22EA1B
:100D2000080242EA08026A605FEACB23AA6854BF5D
:100D300022EA080242EA08025FEA8B23AA60DCF892
:100D400000204FF0010354BF22EA080242EA0802E1
:100D5000CCF800200E680AF1010A36FA0AF204F112
:100D6000040400F0A58003FA0AF816EA080FF1D08F
:100D70004E68764512DC122E56D8DFE806F0350BA9
:100D80004549555555555555555555555555554D37
:100D9000510000BFD1F80C9046E000BF4FF6FF7243
:100DA000C1F2210296420FDC0022C1F211029642EA
:100DB0001AD00022C1F21202964215D00022C1F2CE
:100DC0002102964210D02FE00022C1F22202964268
:100DD0000AD00022C1F23102964205D00022C1F2AF
:100DE0003202964220D100BF8A684AB1012A14BF5C
:100DF000C0F81480C0F810804FF0080914E000BF5C
:100E00004FF0040910E000BFCA6802F108090BE0C6
:100E10004FF0000908E000BFCA6802F1040903E0CE
:100E2000CA6802F10C0900BF22460646BAF1080F53
:100E300024BF203A043637680F25954027EA050578
:100E400009FA02F22A433260CA79D2067FF582AFEC
:100E500041F21803C4F202031A6842F001021A6058
:100E60001A6802F001020192019A40F20042C4F2B3
:100E70000102A2F57E762AF0030256F802B040F68F
:100E80000002C4F20102904210D040F60042C4F2C7
:100E9000010290423FF422AF41F20002C4F201028B
:100EA000009F904208BF022719E700BF002716E7FE
:100EB00002B0BDE8F08F000040F25420C2F2000002
:100EC0000068704770B5B8B3044690F83D0028B983
:100ED000002084F83C00204600F0BAFB242084F86F
:100EE0003D002068016821F001010160016841F4C2
:100EF00000410160016821F40041016000F05EFDE5
:100F000048F28041C0F21E0140F60013D4F804E01C
:100F100088424FF00001C0F23D0348F2A16C4FF04F
:100F2000000238BF01219842C0F2010C38BF0122F3
:100F3000E64538BF0A460AB1012070BD4DF683610F
:100F4000C4F21B31A0FB01122168950C4B684FF4D1
:100F5000967623F03F0343EA9243754344F6D35613
:100F60004B60C1F262060B6AA5FB0656B50923F079
:100F70003F03E64538BF950C6A1C1A430A62CA69EA
:100F800048F2A0664CF6FF73C0F20106B64522EAAD
:100F900003020BD801384FEA4E03B0FBF3F00130E7
:100FA0006FF31F30042898BF04201EE0A3680138A7
:100FB00063B119230EFB03F3B0FBF3F001306FF3C1
:100FC0001F3078B100F5804008E000BF0EEB4E0303
:100FD000B0FBF3F001306FF31F3028B100F5004093
:100FE00003E000BF012000E001201043C861086851
:100FF000D4E9072320F0C000104318430860886834
:1010000048F2FF3204F10C0690434CCE18431043D3
:10101000A5698860C86820F0FF0030432843C86095
:10102000086840F00100086000202021206484F856
:101030003D10206384F83E0070BD00002DE9F04FA4
:1010400085B0044600201E4617460D460490FFF763
:1010500033FF94F83D10202923D180462068816910
:10106000890719D5FFF728FFA0EB08001928F5D943
:1010700000202021206384F83D1084F83E00206C7D
:1010800004F13C0940F0200020640220002189F88E
:10109000001005B0BDE8F08FA14619F83C1F0129EA
:1010A00004D1022005B0BDE8F08F00BF012289F80D
:1010B00000200368DDE90F1A0E9ADB0703D10368ED
:1010C00043F001030360036823F4006303602220FC
:1010D00084F83D00402084F83E00002020646262D5
:1010E0006185608D294620850020CFF6FF70E06283
:1010F00020463A463346CDF800A0CDF8048000F0F3
:10110000F7FF18B1012005B0BDE8F08F208D02284F
:1011100010D0012824D0002838D100200390206866
:1011200041690391816903910399016841F4007158
:10113000016037E02068016841F400610160EFF36D
:10114000108072B600200390206841690391816984
:1011500003910399016821F48061016062B621E086
:101160002068016821F480610160EFF3108072B69D
:1011700000200390206841690391816903910399DC
:10118000016841F40071016062B60BE020680168FB
:1011900041F48061016000210391416903918069FC
:1011A00003900398208D002800F0238140F2080B63
:1011B0004BF289570AF10105C2F2000BC1F2F84760
:1011C000232680B2032819D8022845D001286FD1E0
:1011D000BAF1000F00F0FA802068014651F8142F90
:1011E000520600F1F7800868C00600F12F81FFF772
:1011F00063FEA0EB08005045EED91CE1BAF1000FE8
:1012000012D000BF2068014651F8142F520610D4A6
:101210000868C00600F11A81FFF74EFEA0EB080037
:101220005045EFD907E100BF20684169490640F108
:10123000FB800069616A0870606A2268411C208D29
:10124000616201382085638D013B638553695B07CB
:1012500040F1CC801069BFE020684169490711D492
:10126000002D00F09380BAF1000F00F0E280FFF74C
:1012700023FEA0EB0800504500F2DD8020684069A5
:101280004007F4D5EFF3108072B62068616A0268F7
:1012900042F40072026000690870606A218D0130BA
:1012A0006062481E2085608D0138608562B668E006
:1012B00020684169490710D4002D77D0BAF1000F9A
:1012C00000F0B780FFF7F8FDA0EB0800504500F2F2
:1012D000B280206841694907F4D5016821F4806132
:1012E0000160EFF3108072B62068616A00690870CF
:1012F000606A218D0130013960622185618D01397B
:101300006185DBF80010C908A1FB0712110A7143BF
:1013100004910499013904910499002976D0216837
:101320004A6952071DD4049901390491049900298E
:101330006CD021684A69520713D404990139049189
:101340000499002962D021684A69520709D4049996
:10135000013904910499002958D021684A6952073B
:10136000D7D50A6842F400720A6009690170606AA0
:10137000218D01306062481E2085608D01386085B6
:1013800062B62068616A006926E000BF41694907CA
:101390003FF578AF416949075CBF41695FEA417138
:1013A0003FF570AF41694907F0D56BE741694907DF
:1013B00093D4416949075CBF41695FEA41713FF5D8
:1013C0008CAF41694907F1D587E700BF20684169C3
:1013D000490629D50069616A0870606A218D01306B
:1013E0006062481E2085618D0139618501047FF4AA
:1013F000E8AE202084F83D00002084F83E00002163
:1014000089F8001005B0BDE8F08F00BF0020202152
:10141000206384F83D1084F83E00206C40F02000EA
:10142000206462B61EE000BF50F8141FC9060146D2
:101430000CD4FFF741FD00202021206384F83D10EB
:1014400084F83E00206C40F020000AE06FF01000AD
:10145000086000202021206384F83D1084F83E00BD
:10146000206C20640120002189F8001005B0BDE83F
:10147000F08F00002DE9F04383B0994616460F46E1
:101480000446FFF719FD94F83D1020291CD10546AC
:1014900020688169890713D5FFF70EFD401B1928C5
:1014A000F6D900202021206384F83D1084F83E0006
:1014B000216C41F02001216484F83C0004E000BF6D
:1014C00094F83C10012903D1022003B0BDE8F08359
:1014D000012284F83C200368DDE90B180A9ADB0737
:1014E00003D1036843F001030360036823F400633E
:1014F0000360212084F83D00402084F83E00002055
:10150000206462626185608D394620850020CFF6B7
:10151000FF70E062204632464B46CDF800800195D0
:1015200000F076FF20B1012003B0BDE8F08300BFDA
:10153000208D002850D0206808F10106014651F89E
:10154000142F12062CD49EB1B8F1000F5AD000BF50
:10155000086840055ED4FFF7AFFC401B404556D8F5
:101560002068014651F8142F1206F1D518E000BF8B
:101570000A6852054ED40A68120611D40A68520548
:1015800048D40A6812060BD40A68520542D40A6885
:10159000120605D40A6852053CD40A681206E7D53B
:1015A000626A114611F8013B0361238D6162591E85
:1015B0002185678D013F678547697F070AD50F043D
:1015C00008D051780161911C6162991E2185628D5C
:1015D000013A62850904B1D1204641462A4601F00C
:1015E00051F838BB2068016841F400710160202087
:1015F00084F83D00002084F83E0084F83C0003B0ED
:10160000BDE8F0830868400504D4FFF755FC2020AE
:1016100004E000BF6FF480600860042000212022F5
:10162000216384F83D2084F83E10226C104320642E
:1016300084F83C10206C04287FF475AF20680168A2
:1016400041F400710160012003B0BDE8F0830000A7
:1016500010B586B045F200410068C4F200010022D6
:101660008842049202D006B010BD00BF41F21804B7
:10167000C4F20204206840F008002060206800F0F6
:10168000080001900198C0200290122003900320CE
:10169000059001F5384002A9FFF700FB606840F4AF
:1016A00000106060606800F400100190019806B0BE
:1016B00010BD000040F2000040F25421C2F20000D0
:1016C000C2F2000100780A68104408607047000008
:1016D00080B542F20000C4F20200016841F010013E
:1016E0000160032000F07AF80F2000F005F800F008
:1016F00027F8002080BD000070B540F20006C2F25D
:10170000000640F208013278C2F200014FF47A7309
:101710000968B3FBF2F20446B1FBF2F1084600F0AF
:101720004FFB0F2C4FF0010508D838B94FF0FF30B0
:1017300021460022002500F025F87460284670BD7F
:1017400082B041F21800C4F202000168022241F0A6
:1017500001010160016801F00101019101994168F5
:1017600041F080514160406800F080500090009846
:101770000420C4F20100016862F31A61016002B042
:101780007047000010B54EF60C5CCEF2000CDCF891
:101790000030C3F3022E8EF00704042C28BF04246B
:1017A000BEF103034FF0FF3E0EFA04F438BF0023EE
:1017B000A14399400EFA03F39A43114300F00F023C
:1017C00000F160430901043A03F5644362440028D0
:1017D00048BF02F10C03197010BD00004EF60C5109
:1017E000CEF200010A684FF6FF031A4060F30A22A6
:1017F00042F0806040F0FD70086070472DE9F043D2
:1018000081B0002800F0858042F20008C4F202088E
:101810000446D8F800000D4600F0070088420CD2BC
:10182000D8F8000020F007002843C8F80000D8F8D6
:10183000000000F00700A8426BD1206841F20409C3
:101840008107C4F2020917D5410705D5D9F8001060
:1018500041F4E061C9F80010010705D5D9F800107E
:1018600041F46051C9F80010D9F80010A26821F0C5
:10187000F0011143C9F80010C00741D1D8F80000A9
:1018800000F00700A8420CD9D8F8000020F00700AB
:101890002843C8F80000D8F8000000F00700A8426C
:1018A00037D12068410707D5D9F80010E26821F444
:1018B000E0611143C9F80010000708D5D9F800000D
:1018C000216920F4605040EAC100C9F80000D9F84D
:1018D000002002F00C00082841F20020C0F27A003B
:1018E00050D145F6BE03C2F38341C0F60003595CF4
:1018F000D2033BD440F60010C0F23D00484341E023
:10190000606802280AD001282AD159F8041C8903EA
:1019100008D4012001B0BDE8F08300BF59F8041CD1
:101920008901F6D5D9F8001021F003010843C9F860
:101930000000FFF7C1FA064641F28837D9F80000E7
:10194000616800F00C00B0EB810F97D0FFF7B4FA9C
:10195000801BB842F2D9032001B0BDE8F08300BF7C
:1019600059F8041C8907D4D5DCE700BFD9F800205A
:1019700045F6A403C2F34042C0F600039A5C484314
:10198000B0FBF2F0D9F8001045F6A602C1F303113E
:10199000C0F60002515C40F2080220FA01F140F268
:1019A0000400C2F200000068C2F200021160FFF7FA
:1019B000A3FE002001B0BDE8F083000040F2080063
:1019C00041F20401C2F20000C4F202010068096899
:1019D00045F6B602C1F30221C0F60002515CC840D0
:1019E0007047000040F2080041F20401C2F200001A
:1019F000C4F202010068096845F6B602C1F3C221CB
:101A0000C0F60002515CC840704700002DE9F0416B
:101A100082B0002868D00446007841F20006C00772
:101A2000C4F2020625D0706800F00C0004281BD018
:101A3000706800F00C00082802D17068C00313D44D
:101A40006068002800F06881B0F5A02F00F07C816C
:101A5000B0F5803F00F07C81306820F48030306049
:101A6000306820F4802076E13068800301D560681A
:101A7000D0B32078800718D5706810F00C0F07D00D
:101A8000706800F00C0008286ED17068C0036BD439
:101A90003068800702D52069012825D13068616946
:101AA00020F0F80040EAC1003060207800071FD421
:101AB0002078400732D4E56995B1706800F00C00D9
:101AC000082840F08F80012D0ED07068216A00F444
:101AD00080328A4208D1616A00F47010884203D1D2
:101AE000002002B0BDE8F081012002B0BDE8F08125
:101AF000A069002862D00020C4F242200121C0F871
:101B00008014FFF7D9F90546706A800700F18C80D0
:101B1000FFF7D2F9401B0228F6D92AE1F06910F04C
:101B2000805808D1F06940F08050F061F06900F011
:101B300080500090009847F20007C4F20007386810
:101B4000C00529D4386840F480703860FFF7B4F9D4
:101B5000054600BF3868C0051ED4FFF7ADF9401B2D
:101B60006428F7D905E100BF2069002840F2000091
:101B7000C4F2422000F0828001210160FFF79CF94D
:101B8000054600BF306880073FF588AFFFF794F93E
:101B9000401B0228F6D9ECE0E068002800F08080C5
:101BA000052800F09780012800F09880306A20F026
:101BB00001003062306A20F0040092E00020C4F29C
:101BC00042200021C0F88014FFF776F9054600BFD7
:101BD000706A80077FF56CAFFFF76EF9401B022833
:101BE000F6D9C6E00027C4F2422700203866FFF786
:101BF00063F9022D05460BD13068800140F1BE80AB
:101C0000FFF75AF9401B02284FF00300F4D968E7A8
:101C1000306880017FF564AFFFF74EF9401B022862
:101C20004FF00300F4D95CE740F20800C2F2000074
:101C3000006844F6D351C1F26201A0FB0101480AD9
:101C4000019000BF00BF0198411E002801913FF4A0
:101C50002FAF00BF0198411E002801913FF428AF2B
:101C600000BF0198411E002801913FF421AF00BF41
:101C70000198411E00280191E4D119E7002101607B
:101C8000FFF71AF9054600BF306880077FF50DAFF2
:101C9000FFF712F9401B02284FF00300F4D920E7A8
:101CA000306A20F001003062306A20F004003062B7
:101CB000FFF702F9054641F2883700BF306A800716
:101CC00020D5FFF7F9F8401BB8424FF00300F5D9D3
:101CD00007E700BF306A40F004003062306A40F02D
:101CE00001003062FFF7E8F8054641F2883700BF8F
:101CF000306A800706D4FFF7DFF8401BB842F7D9F7
:101D000037E000BFB8F1000F7FF4D5AEF06920F0E6
:101D10008050F061CFE600BF306820F48030306042
:101D2000306820F480203060FFF7C6F8054600BF19
:101D3000306880037FF59DAEFFF7BEF8401B642836
:101D40004FF00300F4D9CCE6306840F480203060D6
:101D5000306840F480303060FFF7AEF8054600BFD1
:101D6000306880033FF585AEFFF7A6F8401B642876
:101D7000F6D9032002B0BDE8F08100BF206AB0F5BB
:101D8000803F05D17168A26821F400311143716070
:101D90007168626A21F47411114308437060012074
:101DA0003866FFF789F80446306880013FF598AE41
:101DB000FFF782F8001B02284FF00300F4D990E6E9
:101DC000411E0020B0EB116F1CBF012070474EF286
:101DD0001002CEF2000251604EF62351CEF2000105
:101DE000F0230B700721906011607047002804BF3A
:101DF0000120704710B5044690F83D0028B9002036
:101E000084F83C00204600F061F8242084F83D006E
:101E10002068D4E90212C36823F40053C360036945
:101E200023F440531A430261D4E904231143C268E6
:101E3000194341F20C639A431143C1604169A2699D
:101E400021F44071114343F60002C4F201029042B2
:101E5000416103D0FFF7B2FD02E000BFFFF7C2FD12
:101E60006268192148439100B0FBF1F048F21F511C
:101E7000C5F2EB11A0FB01235A094FF69C73C0F683
:101E8000FF7302FB0300322303EB0010A0FB0101F0
:101E9000F02303EA5113206803EB0212C1F343114C
:101EA00011448160016921F490410161416921F08F
:101EB0002A014161C16841F40051C1600020202124
:101EC000206484F83D1084F83E1010BD70B586B0D3
:101ED00040F60004C4F20104006804F540510026F5
:101EE0008842049602D006B070BD00BF41F21800CF
:101EF000C4F20200016802AD41F480410160016852
:101F000001F4804101910199016841F004010160EF
:101F10000068294600F00400019001984FF4007019
:101F2000029002200390032005902046FEF7B6FEA3
:101F30004FF48060CDE90206204629460496FEF75C
:101F4000ADFE06B070BD00002DE9F041044690F8EA
:101F50003D0020280ED10D4600294FF0010000F071
:101F60008E801646002A08BFBDE8F08194F83C0038
:101F7000012803D10220BDE8F08100BF012084F8D0
:101F80003C00002020642120984684F83D00FEF7A4
:101F900093FFA684E684A1680646B1F5805F03D16D
:101FA0002069002800F0A0802F460025002084F83A
:101FB0003C00E08CE0B118F101001BD0B8F1000F3B
:101FC00060D120680BE000BF35F8021B00276FF3DB
:101FD0005F214160E18C0139E184E18C51B30168FA
:101FE00009066DD5002FEFD017F8011BF1E700BFF0
:101FF00020681FE0206802E00168090609D4016832
:10200000090606D4016809065CBF01685FEA016140
:10201000F2D51FB117F8011B05E000BF35F8021B10
:1020200000276FF35F214160E18C0139E184E18C8D
:102030000029E4D1016849061DD4B8F1000F3FD052
:1020400018F101010ED10168490614D4016849064E
:102050005CBF01685FEA41610DD401684906F2D5B1
:1020600009E000BFFEF728FF811B2068414527D803
:1020700000684006F6D5202084F83D000020BDE829
:10208000F08100BF206800BF0168090606D4FEF792
:1020900013FF811B20684145F6D911E017B117F8ED
:1020A000011B04E035F8021B00276FF35F2141603C
:1020B000E18C0139E184E18C0029E5D1BAE700BF68
:1020C000C16821F4D071C160416921F00101416111
:1020D000202084F83D0084F83E00002084F83C0075
:1020E0000320BDE8F08100BF00275FE7FEE70000A6
:1020F0002DE9F04383B00446006899460368904692
:1021000043F48062026002680B9D42F480720260B8
:1021100042690A9ED2070F461DD1711C11D0002EB4
:1021200000F03681FEF7C8FE401BB04200F232815B
:1021300020684169C907F5D00DE000BF4169C907B2
:1021400009D14169C90706D14169C90704BF41697D
:102150005FEAC171F2D007F0FE07076141698907A4
:1021600038D44169721C01F4806111D049BB002E42
:1021700000F03A81FEF7A0FE401BB04200F236812B
:1021800020684169890725D441694905F2D518E0DD
:10219000B9B9416989071DD44169490511D441691B
:1021A000890717D4416949050BD44169890711D4BE
:1021B0004169490505D4416989070BD4416949053D
:1021C000E7D5016841F4007101606FF480614161FD
:1021D00004200CE100210291014651F8142F0292D3
:1021E0004A680292029A0A68120620D4002E00F071
:1021F000AB80721C51D10A68520500F1AD800A68AB
:10220000120614D40A68520500F1A6800A68120664
:102210000DD40A68520500F19F800A68120606D4A0
:102220000A68520500F198800A681206E3D5B9F1F0
:10223000010F45D04FEA18210161014651F8142FD2
:1022400012063DD4002E00F07F80721C2AD10A684D
:10225000520500F181800A68120631D40A685205DD
:102260007AD40A6812062BD40A68520574D40A6814
:10227000120625D40A6852056ED40A681206E6D5FD
:102280001EE000BFFEF718FE401BB04261D8206878
:10229000014651F8142F1206C9D408684005F1D53B
:1022A0005AE000BF0868400556D4FEF705FE401B03
:1022B000B0424ED82068014651F8142F1206F1D5CD
:1022C0005FFA88F10161014651F8142F12061AD401
:1022D000D6B3721C33D10A6852053DD40A6812067F
:1022E00011D40A68520537D40A6812060BD40A685A
:1022F000520531D40A68120605D40A6852052BD457
:102300000A681206E7D50168002241F48071016075
:1023100020464FF001113346009500F007FA0028DF
:1023200050D02068006844E0FEF7C6FD401BB04274
:102330000FD82068014651F8142F1206E3D408681C
:102340004005F1D508E000BF0868400504D4FEF759
:10235000B3FD202004E000BF6FF48060086004201B
:1023600000212022216384F83D2084F83E10226C55
:102370001043206484F83C10206C042843D120686A
:10238000016841F400710160012003B0BDE8F083F1
:10239000FEF792FD00202021206384F83D1084F890
:1023A0003E00216C41F020012164216884F83C004A
:1023B0000868C00544BF4FF400702064032003B0D8
:1023C000BDE8F083206847F0010101610221C0F2FD
:1023D0000101204632462B4600F050FA002818BF73
:1023E000012003B0BDE8F083FEF766FD2020002148
:1023F0002022216384F83D2084F83E10226C104393
:10240000206484F83C10012003B0BDE8F083000094
:102410002DE9F04381B00446006890460268099DAA
:1024200042F4807202604269089E9946D2070F46C4
:102430001DD1711C11D0002E00F0D280FEF73CFDA2
:10244000401BB04200F2CE8020684169C907F5D038
:102450000DE000BF4169C90709D14169C90706D12B
:102460004169C90704BF41695FEAC171F2D007F051
:10247000FE0101614169890738D44169721C01F488
:10248000806111D049BB002E00F0E880FEF714FDFA
:10249000401BB04200F2E48020684169890725D4DE
:1024A00041694905F2D518E0B9B9416989071DD4D8
:1024B0004169490511D44169890717D44169490522
:1024C0000BD44169890711D44169490505D4416993
:1024D00089070BD441694905E7D5016841F40071CA
:1024E00001606FF4806141610420BAE00021009135
:1024F000014651F8142F00924A680092009A0A6827
:1025000012061ED4002E00F08580721C4DD10A6880
:10251000520500F187800A68120612D40A68520533
:1025200000F180800A6812060BD40A68520579D43B
:102530000A68120605D40A68520573D40A6812069E
:10254000E5D5B9F1010F43D04FEA182101610146E9
:1025500051F8142F12063BD4002E5BD0721C29D1E7
:102560000A6852055ED40A68120631D40A68520518
:1025700058D40A6812062BD40A68520552D40A6845
:10258000120625D40A6852054CD40A681206E7D50B
:102590001EE000BFFEF790FC401BB0423FD8206811
:1025A000014651F8142F1206CBD408684005F1D526
:1025B00038E000BF0868400534D4FEF77DFC401BBE
:1025C000B0422CD82068014651F8142F1206F1D5DC
:1025D0005FFA88F10161002001B0BDE8F08300BF1F
:1025E000FEF76AFC00202021206384F83D1084F867
:1025F0003E00216C41F020012164216884F83C00F8
:102600000868C00544BF4FF400702064032001B087
:10261000BDE8F0830868400504D4FEF74DFC202097
:1026200004E000BF6FF480600860042000212022D5
:10263000216384F83D2084F83E10226C104320640E
:1026400084F83C10206C042817D12068016841F4FC
:1026500000710160012001B0BDE8F083FEF72CFCA1
:10266000202000212022216384F83D2084F83E10A0
:10267000226C1043206484F83C10012001B0BDE8B6
:10268000F083000070B50368044653F8140F400748
:1026900037D40E46F1B1701C24D100BF1868400534
:1026A00032D4186840072CD4186840052CD4186818
:1026B000400726D41868400526D41868400720D45F
:1026C0001868400520D4186840074FF0000048BF44
:1026D00070BDE3E71868400516D4FEF7EDFB202037
:1026E00016E000BF154600BF186840050CD4FEF781
:1026F000E3FB401BB042F2D8236853F8140F4007A5
:10270000F2D5002070BD00BF6FF480601860042017
:1027100000212022216384F83D2084F83E10226CA1
:1027200010432064012084F83C1070BD2DE9F04175
:1027300005461446DDF8188001F47F002A681E461D
:10274000B0F5803F8FB241D150693840C01BB0FA1C
:1027500080F04009A0427BD1701C2DD0002E7BD090
:10276000FEF7AAFBA0EB0800B04277D828684069C2
:102770003840C01BB0FA80F04009A042F0D00020E1
:10278000BDE8F08150693840C01BB0FA80F04009C4
:10279000A0425DD150693840C01BB0FA80F04009BA
:1027A000A04255D150693840C01BB0FA80F04009B2
:1027B000A0424FF000005FD150693840C01BB0FA12
:1027C00080F04009A042DDD042E000BF906938406F
:1027D000C01BB0FA80F04009A04239D1701C1FD054
:1027E000D6B300BFFEF768FBA0EB0800B04235D8B7
:1027F000286880693840C01BB0FA80F04009A042C8
:10280000F0D00020BDE8F08190693840C01BB0FADC
:1028100080F04009A0424FF0000018BFBDE8F081F1
:1028200090693840C01BB0FA80F04009A0420FD137
:1028300090693840C01BB0FA80F04009A04207D12F
:1028400090693840C01BB0FA80F04009A042DBD04C
:102850000020BDE8F08100BFFEF72EFB0020202104
:10286000286385F83D1085F83E00296C41F0200171
:10287000296485F83C000120BDE8F081F0B581B005
:10288000044600681D4643698FB203EA0701B94256
:1028900002D1002001B0F0BD41691646013201F4B9
:1028A00080610FD059BB9EB3FEF706FB401BB042C0
:1028B00030D8206841693940B942EAD041694905B8
:1028C000F2D51CE0D9B941693940B942E1D041693A
:1028D000490514D441693940B942DAD04169490502
:1028E0000DD441693940B942D3D04169490506D474
:1028F00041693940B942CCD041694905E3D5016805
:1029000041F4007101606FF480614161042002E0D4
:10291000FEF7D2FA202000212022216384F83D20F6
:1029200084F83E10226C1043206484F83C1001208F
:1029300001B0F0BDFEE70000FEE7000070470000B8
:1029400070470000FEF7B6BE70470000FEE70000CB
:102950002DE9F04784B0828C044622F001007628ED
:1029600040F003818846A06A510041F28832012379
:1029700004F1320ACDE9013289B2D0220123CDF827
:1029800000A0FEF75BFB002840F0EF809AF8000003
:10299000602802D0582840F0E880A18CB622A06AB6
:1029A0008DF80E20490042F2107201250DF10E073C
:1029B000029289B2E022012300970195FEF75AFDA9
:1029C000002840F0D28041F2883600BFA18CA06A76
:1029D000490089B2F3220123CDE900750296FEF782
:1029E0002DFB0028F2D19DF80E00C007EED1A18C7E
:1029F000A06A490041F28835022689B28822012363
:102A0000CDE900760295FEF719FB002840F0AD8075
:102A1000BDF80E00A18C2080A06A490089B28A22EC
:102A20000123CDE901650097FEF708FB002840F07F
:102A30009C80BDF80E00A18C6080A06A490041F224
:102A40008835022689B28C220123CDE900760295D1
:102A5000FEF7F4FA002840F08880BDF80E00A18C43
:102A6000A080A06A490089B28E220123CDE90165C8
:102A70000097FEF7E3FA002877D1BDF80E00A18C8D
:102A8000E080A06A490041F28835022689B290228E
:102A90000123CDE900760295FEF7D0FA002864D133
:102AA000BDF80E00A18C2081A06A490089B2922253
:102AB0000123CDE901650097FEF7C0FA002854D143
:102AC000BDF80E00A16A6081A08C04F10C03942271
:102AD00000F09AFC002848D0A16AA08C04F10E03F3
:102AE000962200F091FC00283FD0A16AA08C04F14E
:102AF0001003982200F088FCB8B3A16AA08C04F1FE
:102B000012039A2200F080FC78B3A16AA08C04F131
:102B100014039C2200F078FC38B3A16AA08C04F165
:102B200016039E2200F070FCF8B19AF800006028AD
:102B300003D1204600F0E8FBB8B198F8010098F8FE
:102B400005108000A28C40EA4111A06A8DF80E1099
:102B5000510042F210720123CDE9013289B2F5220F
:102B600001230097FEF786FC20B1002004B0BDE8E9
:102B7000F08700BF98F80050012D04BF002588F8A9
:102B800000509AF8000098F8029098F803606028C6
:102B900013D198F80410A28CA06A8DF80E10510081
:102BA00042F210720123CDE9013289B2F2220123EF
:102BB0000097FEF75FFC0028D7D14FEA890040EA72
:102BC0004610A28C40EA0501A06A8DF80E10510053
:102BD000012242F21076CDE9007289B2F42201237B
:102BE0000296FEF747FCB0FA80F0400904B0BDE859
:102BF000F0870000032101804FF00331C0F802107C
:102C0000704700002DE9F04F8DB0054690F8320076
:102C10009B46144660288A4608D0BBF1000F4FF04F
:102C2000000018BFCBF800004FF0000BA98C082261
:102C3000A86A4900BBF1000F08BF06220BAB41F2A6
:102C40008837CDE9003289B2F72201230297FEF7D7
:102C5000F5F9804630B1B8FA88F040090DB0BDE80A
:102C6000F08F00BF9DF830009DF82F1000019DF8F7
:102C7000312040EA013040EA12112A88B5F9046097
:102C8000C2EB10104043C908B5F90230000BA1EBAC
:102C9000420170435943801300EBE12EB5F90A70ED
:102CA000AEF5FA3383FB03190A94A1FB0726FC1740
:102CB00001FB0466B5F9080009FB0766120A80FBF0
:102CC000030442EA0662EF8812EB0032A2FB072CF3
:102CD0009DF82C2008929DF82D2009924FEA04328D
:102CE00042EA10509DF82E2040EB262000F50040CF
:102CF00007920EEB8E0200FB07C680321012721094
:102D000042EAE677002FCAF8000077D0B5F91070D4
:102D10000DF1100AA1FB07408AE811400020CFF610
:102D2000F070089C00F57F206043079CB5F90EC049
:102D30004FEA141A049C83FB0C3E4FEAE77C01FB2C
:102D40000C41099C09FB07114AEA0414001B059C6D
:102D500000F580104708D4EBC07067EB010A4FEA1A
:102D60004E41B0EB4340B5F90C7041EAD33140F627
:102D7000354C6AEB0101A0FB0C04A1EBC70101FB80
:102D80000C41B5F91290F317FDF72EFA420B42EA07
:102D9000C142A2FB02374C13B5F9166002FB047E58
:102DA000A3FB06C702FB04EEF41703FB0473B5F99B
:102DB00014700EFB0633A0FB0742FE1700FB062231
:102DC0004FEA5C6601FB07224FEA636E46EAC313D3
:102DD000E70C47EA4237C01841EB0E01C01941EB3E
:102DE000D241000ADDF818E040EA016000EB09106A
:102DF0000A99BBF1000F086007D12CE700200A995F
:102E0000BBF1000F08603FF426AF9DF833009DF83A
:102E10003210800340EA8150E98B0023CFF6F07333
:102E2000B5F9202001FB0300AEF5963101FB12003D
:102E300095F922202B7F4A4359434FF400439212C5
:102E400003EBE12151434FF40012B5F91A3002EBC4
:102E5000A121594300F5804001F50051C0138913A9
:102E60004843C11349432A7EC9095143A0EB1110BD
:102E700020EAE070B0F1C85F28BF4FF0C850000BE7
:102E8000CBF80000B8FA88F040090DB0BDE8F08F2B
:102E9000F0B583B01C4616460F466B4602A901AA40
:102EA000002C08BF2346FFF7ADFE0546D0B10298BF
:102EB00002F0F4FA0021C4F2C82102F02DFA0199BF
:102EC0003860084602F002FB4FF06E5102F012FB30
:102ED00030603CB1009802F0F9FA4FF06A5102F00C
:102EE00009FB2060284603B0F0BD0000A2B0FEF749
:102EF000EFFB00240120CDE91D44CDE91B441890CF
:102F00001C904FF4E0104FF480310225219018A856
:102F1000CDE91914CDE91F51FEF778FD10B100BFBE
:102F2000FEE700BF0F20CDE913054FF48060CDE927
:102F3000160413A802211594FEF760FC10B100BF1F
:102F4000FEE700BF41F21800C4F20200016845F23A
:102F5000004641F020010160016840F2BC1501F01B
:102F60002001189118990168C4F2000641F004018B
:102F700001600168C2F2000501F00401189118997E
:102F80000168002441F00801016000684FF48041AD
:102F900000F008001890189848F2A060C0F20100F4
:102FA000C5E900602846C5E90244C5E90414C5E93D
:102FB00006442C62FDF786FF10B100BFFEE700BF9C
:102FC00040F2102006F56441C2F200000C234FF4D9
:102FD000E13280E81600C0E90344C0E90534C46169
:102FE000FEF704FF10B100BFFEE700BF40F270071C
:102FF000C2F2000707F144063046FFF7FBFD7621D9
:1030000007F11800B98731463D640A90FFF7A0FC2C
:1030100040F2BC09C2F20009B8BBA0A04168D0E9E7
:10302000048A1291816885691191C168B0F81CB059
:10303000109100BF994809F10C01C9F800001298DD
:103040003C46C9F8040011981D22C9F808001098E0
:103050004FF47A7381E801051D2027F8180B40F220
:103060001020C2F200004946C9F81850A9F81CB057
:10307000FEF76AFF4FF4FA60FDF7FCFD3846314673
:103080002746FFF765FC0028D4D097F84A108BA09C
:103090008CA20991582908BF02468CA14846FDF729
:1030A000DDF8388082B240F21020C2F200004946BA
:1030B0004FF47A73FEF748FF89A0416807F1040BCB
:1030C0001191816807F108041091C16807F10C069D
:1030D0000F91016912940E914169CDE90CB60891E6
:1030E00081690791C1690691016A90F824000591F0
:1030F000049005E04FF4FA70FDF7BCFD129CAB465E
:103100006420FDF7B7FD0A98594622463346FFF77B
:10311000BFFE0028DDE91021DDE90E43B846089D19
:10312000DDE90667DDE904EC6D484FF0240A37D18C
:1031300089E8BF0040F2700B40F21020C2F2000B91
:10314000C2F20000494624224FF47A73C9E9076CA1
:1031500089F824E02BF818AB3C46E246F146FEF72E
:10316000F3FE4FF4FA60FDF785FD5846DDF830B008
:10317000129A0D9B40F270085946C2F20008FFF700
:1031800087FECE4640F2BC09DDE90E43DDE91021A1
:1031900000285348D4464FF0240AC2F20009C7D091
:1031A000D8F8080000210D9EC4F2C8215D4602F047
:1031B000B3F8C8F8100002F083F84AF600230022A2
:1031C000C4F28F0301F0BAFB44F26C5245F695331A
:1031D000CCF6D942C3F6C87300F090FD0B4600212F
:1031E00002460020C3F6F07101F07CFF4AF2405322
:1031F0000022C4F2E50301F04FFD01F0B1FA83466D
:1032000040F27000C2F20000446840F27000C2F266
:103210000000806840F27001C2F20001C1F814B0F1
:1032200002F04EF882462046884602F049F80446ED
:10323000584640F270070B91C2F2000702F040F8C6
:103240008C460B995246CDE9011045F6CE01484611
:10325000C0F6000143460094CDF80CC0FCF7FEFF19
:1032600040F21024C2F20004388082B2204649465F
:103270004FF47A73FEF768FE099858283FF43AAF86
:103280000A20A9F800000120388020464946012282
:103290004FF47A73FEF758FE2CE700BF424D5032D0
:1032A000383020696E697469616C697A6174696F1C
:1032B0006E206661696C65640A000000424D45320B
:1032C00038300000424D503238300000424D50320C
:1032D00038303A20666F756E642025730A0000004E
:1032E00054656D70657261747572652F7072657367
:1032F000737572652072656164696E6720666169C5
:103300006C65640A000000002DE9F04786B0828CED
:10331000044600F11801806A5200012341F2883509
:10332000CDE9001391B2A12201230295FDF786FE9B
:10333000002857D1A18CA06A490002220DF1120386
:10334000CDE9003289B2E122012302950125FDF782
:1033500075FE002846D1BDF81200A28C608304F1EE
:103360001C01A06A520041F28836CDE9001591B2E5
:10337000E32201230296FDF761FE98BBA18CA06AAF
:10338000490005AA0225009289B2E422012302968F
:103390000195FDF753FE28BBA18CA06A49000DF1F1
:1033A00016029DF814809DF8156041F288378DE86B
:1033B000A40089B2E52201230125FDF73FFE88B96B
:1033C000A28C04F12201A06A52009DF816909DF88B
:1033D00017A0CDE9001591B2E72201230297FDF76E
:1033E0002DFE18B1002006B0BDE8F08749EA0A209A
:1033F00006F00F0141EA08110009E1832084012051
:1034000006B0BDE8F087000070B584B01E460B46DC
:10341000400002210DF10E0541F28834CDE9005142
:1034200081B2184601230294FDF708FE20B1B0FADC
:1034300080F0400904B070BDBDF80E103180B0FAC4
:1034400080F0400904B070BD5FEA400C08BF91F005
:10345000000F4FEA8C234FEAC12243EA51514FEA51
:103460001C5018BF00F5F0404FEA300018BF41F083
:1034700000415FEA6C5C00F02980BCF1FF3F08BFAF
:1034800040F080407047130C06BF12044FF0100C40
:103490004FF0000C130E04BF12020CF1080C130FB6
:1034A00004BF12010CF1040C930F04BF92000CF145
:1034B000020CD30F04BF52000CF1010C11464FF067
:1034C0000002A0F11F00A0EB0C00704711F0004FAC
:1034D00008BF704731F000413FF4D5AF0B0C06BF79
:1034E00009044FF0100C4FF0000C0B0E04BF090242
:1034F0000CF1080C0B0F04BF09010CF1040C8B0F2D
:1035000004BF89000CF1020CCB0F04BF49000CF181
:10351000010CCCF1200322FA03F341EA030102FA81
:103520000CF2A0EB0C0000F10100704723F07F4784
:1035300020F07F4C80EA030000F00040ACEB070372
:1035400003F57C5303F1FF032DE9804909B44FEAE9
:10355000144324EA03484FEA154B25EA0B4E0FF2B9
:10356000042606EB13273E7803FB0667C7F5000722
:1035700007FB06F64FEAD64606F102064FEA543735
:1035800007FB066CCCF1005C4FEA1C472CEA074CA9
:103590000CFB06F507FB06F404EB15464FEA9616FE
:1035A00049085FEA320234BF00204FF000404FEA82
:1035B000D13706FB07FC4FEA1C4C0CFB0BF7D21B68
:1035C00003FB0CF761EB07010CFB0EF7B0EB0740B8
:1035D00072EB17420CFB08F734BFA2EB0742B2EBC9
:1035E000074261EB17414FEA0C444FEA910706FB93
:1035F00007FC4FEA1C4C0CFB0BF7B0EBC74072EB1F
:10360000573203FB0CF734BFA2EBC742B2EBC74201
:1036100061EB57310CFB0EF7B0EBC70072EB577242
:103620000CFB08F734BFA2EBC702B2EBC70261EB99
:1036300057714FEA816141EA92114FEA826242EA90
:1036400090124FEA806004EBCC04039F4FEAD1371D
:1036500006FB07FC4FEA1C4C0CFB0BF7D21B03FBD1
:103660000CF761EB07010CFB0EF7B0EB074072EBB8
:1036700017420CFB08F734BFA2EB0742B2EB07423C
:1036800061EB17414FEA8C5504EB9C244FEA9107FC
:1036900006FB07FC4FEA1C4C0CFB0BF7B0EBC740DA
:1036A00072EB573203FB0CF734BFA2EBC742B2EB0D
:1036B000C74261EB57310CFB0EF7B0EBC70072EB62
:1036C00057720CFB08F734BFA2EBC702B2EBC7027C
:1036D00061EB57714FEA816141EA92114FEA8262D0
:1036E00042EA90124FEA806015EB4C2544F1000449
:1036F0004FEAD13706FB07FC4FEA1C4C0CFB0BF7DB
:10370000D21B03FB0CF761EB07010CFB0EF7B0EBD0
:10371000074072EB17420CFB08F734BFA2EB0742DD
:10372000B2EB074261EB17414FEA813141EA924126
:103730004FEA823242EA90424FEA80304FEA0C76FA
:1037400015EB1C1544F1000448EA03434EEA0B480C
:103750004FF0000EB2EB080C71EB030724BF62467A
:1037600039464EEB0E0E4FF0000B00185241494106
:103770004BEB0B0BB2EB080C71EB03077BF1000B6F
:1037800024BF624639464EEB0E0E4FF0000B001878
:10379000524149414BEB0B0BB2EB080C71EB0307A9
:1037A0007BF1000B24BF624639464EEB0E0E51EA08
:1037B000020718BF46F0010616EB0E7655F100021F
:1037C00054F1000103D5BDE88901BDE80088BDE8DA
:1037D0008901BDE80048B619524141EB0101A3F14E
:1037E0000103704780807F7E7D7C7B7A7978777655
:1037F00076757473727171706F6E6E6D6C6C6B6ACE
:103800006A6968686766666564646363626161606B
:10381000605F5F5E5E5D5D5C5C5B5B5A5A595958E8
:103820005857575656555555545453535252525152
:10383000515050504F4F4F4E4E4D4D4D4C4C4C4BA8
:103840004B4B4A4A4A4949494848484747474746EF
:10385000464645454544444444434343434242422B
:10386000424141419C46002B30D477002BD04FEA97
:1038700037071CB503B44FF010004FF01001BAF138
:10388000000F06D0BCF1000FDCBF40F0080040F094
:1038900008014FF000000FBCBDE810400BF1010B18
:1038A000BBF1010F08BF5FEA170722BF12F1010247
:1038B00011F101014FF0004143F1000300F000401D
:1038C00043EA00007047F9D35708D0E746EA0646B6
:1038D0004FEA164613F1400F1FDD13F1200FDFBF33
:1038E00016430A46002120335B42BED0C3F12007B5
:1038F00046EA06464FEA164602FA07F746EA070680
:1039000022FA03F2C3F1200701FA07F742EA07029D
:1039100021FA03F14FF00003A7E746EA020646EA60
:1039200006464FEA164646EA0106BCBF46EA064688
:10393000360C4FF000034FF000024FF0000194E707
:103940002DE9804C70B49A46934691E8380007C838
:1039500031EA400C48BF34EA430C03D5FFF7E6FDDB
:10396000FFF780FFF0BCBDE8008C2DE9804C70B4FF
:103970009A46934691E8380007C810F0804F08BF78
:1039800013F0804F03D100F005F8FFF76BFFF0BC98
:10399000BDE8008C20F07F4723F07F4C80EA0300D5
:1039A00000F0004007EB0C03A3F57C53A3F1FE03EA
:1039B00092F0000F00F0B38095F0000F00F07780D8
:1039C0002DE901494FEA114021EA00484FEA144627
:1039D00024EA064700FB06FC08FB06F607FB08F88E
:1039E00018EB06484CEB164C00FB07F718EB0748A2
:1039F0004CEB17404FEA124B22EA0B4E4FEA1546AA
:103A000025EA06470BFB06FC0EFB06F607FB0EFE3F
:103A10001EEB064E4CEB164C0BFB07F71EEB074E4E
:103A20004CEB174B18EB0B0840F1000018EB0E0B9A
:103A300058EB000840F100008F1A4FF000014FF0E2
:103A400000063CBFC943661B14BFB5EB040C002144
:103A50003CBFC943F61B4FEA174427EA04454FEA27
:103A60001C472CEA074C04FB076205FB07F70CFB1D
:103A700005F616EB074642EB174204FB0CFC16EB6F
:103A80000C4642EB1C421BEB060658EB020241417E
:103A90004EEA8E0E46EA9E0601D5BDE80189B619AA
:103AA000524141EB0101A3F10103BDE801894FEA55
:103AB000144524EA05464FEA114721EA074C05FB65
:103AC00007F406FB07F70CFB06F111EB074144EB8B
:103AD000174405FB0CFC11EB0C4144EB1C444FEA72
:103AE000124722EA074C05FB07F206FB07F70CFB1F
:103AF00006F616EB074642EB174205FB0CFC16EBED
:103B00000C4642EB1C456A1854F1000148BF70474F
:103B1000B619524141EB0101A3F10103704795F041
:103B2000000F37D04FEA114221EA02464FEA14470C
:103B300024EA074C02FB07F106FB07F70CFB06F42F
:103B400014EB074441EB174102FB0CFC14EB0C4453
:103B500041EB1C414FEA154725EA074C02FB07F5EC
:103B600006FB07F70CFB06F616EB074645EB174579
:103B700002FB0CFC16EB0C4645EB1C42121951F1F2
:103B8000000148BF7047B619524141EB0101A3F152
:103B9000010370474FEA144524EA05464FEA1147EE
:103BA00021EA074C05FB07F106FB07F70CFB06F2C1
:103BB00012EB074241EB174105FB0CFC12EB0C42E8
:103BC00051EB1C414FF0000648BF7047921841EB83
:103BD0000101A3F101037047490050EAC12018BF59
:103BE00004204A0D18BF40F0010040F2FF72B2EB12
:103BF000515F08BF40F00200012808BF0520704750
:103C00002DE9F0414F1E00EBC7010446D1E9000148
:103C100015461E4637F006020DD02A46334601F0FF
:103C20003BF87F1E04EBC703D3E9002300F0CAFD75
:103C300037F00602F1D1022F25D0042F13D0062F22
:103C400018BFBDE8F0812A46334601F025F8D4E9D3
:103C50000A2300F0B7FD2A46334601F01DF8D4E9E7
:103C6000082300F0AFFD2A46334601F015F8D4E9E9
:103C7000062300F0A7FD2A46334601F00DF8D4E9EB
:103C8000042300F09FFD2A46334601F005F8D4E9ED
:103C9000022300F097FD2A46334600F0FDFFD4E9E9
:103CA0000023BDE8F04100F08DBD00000022134666
:103CB0001046014900F042BE0000F03F00F082BD16
:103CC000002213461046114600F038BE40F2013281
:103CD00000204FF0E04101F00DBD0000024A00203D
:103CE000110701F007BD000001FDFFFF30380A2871
:103CF00001D2012070470020704700002DE9F04DEF
:103D00001D460C4694B0174621F0004123F00043B5
:103D1000002814BF4FF0010C4FF0000C0CEB440CCA
:103D2000FB4A0CEB02064FEA620C66452BD33E00C1
:103D300018BF012606EB45061644F64A964222D3E2
:103D4000F54A53EA070C02D0944205D148B914B0A1
:103D500000201146BDE8F08D002808BF4FF0000C90
:103D600001D04FF0010C0CEB440212F5001F0AD8F1
:103D7000002F14BF4FF0010C4FF0000C0CEB45026C
:103D800012F5001F07D914B03A462B462146BDE86C
:103D9000F04DFFF793BF0022DFF880A3002CB8BFDF
:103DA000534526DADFF878C36345A8BF022220DA3C
:103DB000DFF864C39C451CDCDFF868C30CEB235CB4
:103DC000BCF1140F08DDCCF1340627FA06FC0CFA1E
:103DD00006F6BE420DD108E05FB9CCF1140623FA15
:103DE00006FC0CFA06F69E4203D10CF00102C2F169
:103DF000020251EA000C19D1002D17DA002C18BF6D
:103E0000022A01D0012A07D00220FCF76DFB14B072
:103E1000BDE8F04DFFF74ABF0220FCF765FBFFF756
:103E200045FF14B081F00041BDE8F08DB7F1000C02
:103E30006CD1534525D104F1804212F5801201BFA7
:103E400000280020B44914B008BFBDE8F08DB24886
:103E5000884207DC002DA1BF6046294614B0BDE8AA
:103E6000F08D07E0002DBFBF604685F0004114B023
:103E7000BDE8F08DAC497944D1E9000114B0BDE84A
:103E8000F08DDFF894C2634525D1002D1FDA19B1FA
:103E9000514512D1D8B909E0002840F0F6829F4A76
:103EA000214614B062F31E01BDE8F08D00202146CA
:103EB00014B060F31E01BDE8F08D08DA14B023469B
:103EC000BDE8F04D02460020614600F037BD14B059
:103ED0002146BDE8F08D514518DAB5F1804F0DD07F
:103EE000A5F1005CBCF1FF5C10D1B4F1000C0DDB5E
:103EF00014B06146BDE8F04D00F0F6BB234614B0A7
:103F00000246BDE8F04D194600F0C6BE060024F09A
:103F1000004C3BD1D9B1514533D1002C06DD002DE9
:103F2000A1BF0020514614B0BDE8F08D002C01DD8A
:103F3000002D1BDB002C13DA002D11DB012A4FF0C2
:103F4000000014BF7549794914B0BDE8F08D022A0C
:103F500018BF002C0AD0012A08D1002C06DA0AE08A
:103F6000002CB8BF002D11DA012A04D0002014B0B3
:103F70000146BDE8F08D14B000204FF00041BDE8CF
:103F8000F08DA1F14050B0F17F601AD0012000EB1C
:103F9000E47050EA020421D05F4C521E4FF0000B37
:103FA000104304BF4FF0000B614C624883427DDD3B
:103FB000614A6248934229DD884217DB002D2FDBDE
:103FC00041E0002C00DA4AB1022A0CBF01204FF078
:103FD000FF3014B0BDE8F04D00F00ABE0120FCF740
:103FE00083FA14B0BDE8F04DFFF76ABE4A4A8A4230
:103FF0000CDC002D14DC0220FCF776FAFFF76EFED5
:1040000061F31E0414B02146BDE8F08D814202DA4E
:10401000002D18DA04E0404B994220DD002D12DD1E
:104020000220FCF761FAFFF751FE05460E4600221A
:1040300053465846214600F02FFE14B066F31E0189
:104040002846BDE8F08D0220FCF74EFAFFF746FE49
:104050000A46214614B062F31E01BDE8F08D00222D
:104060003046614601F03EF8064688466FF0010290
:1040700001F040FB4FF05532314B00F041FF32462A
:10408000434600F009FE00222E4B00F039FF8A461D
:104090003246434602901046194600F0FDFD534655
:1040A000029A00F0F9FD8246324600E054E00591A4
:1040B00043464FF0C040244900F0EEFDCDE90C012D
:1040C000224A214B5046059900F0E6FD82460191B7
:1040D0001F4A204B3046414600F0DEFD5246019B10
:1040E00001F000F882460B4602460991DDE90C0119
:1040F00000F068FBDDE90C2300268846304600F01E
:10410000F1FF5246099B00F0FBFE024600F07EB92B
:10411000FFFF1F00FFFF0F000000F03F0000F07FD7
:104120000000404301FCFFFF8E1900000000F0FF7B
:104130000000F0BF0000E0410000F043FFFFEF3F50
:104140005555D53F0000E03F4715F73FFE822B65F0
:1041500044DF5DF80BAE543E0020B1F5801F07DA56
:1041600035223046614601F0C5FA06466FF034004C
:1041700000EB2150A0F2FF300190C1F3130040F09A
:104180007F6141F040510291FE498842D8BF002032
:1041900004DDFD498142C8BF012001DD0F9008E028
:1041A00000200F900198401C01900298A0F580100B
:1041B00002900299F548784405910F9900EBC100EF
:1041C0001290D0E900233046059900F08BFFCDE92D
:1041D0000C011298D0E900233046059900F0F2FA5C
:1041E00002460B460020EA4900F0A8FB0B46CDE949
:1041F00008010246DDE90C0100F04EFD0A90E54899
:104200008A464FF0000878440299006810904FF0F9
:10421000005040EA61010F9801EB804000F5002159
:1042200012981191D0E90023109800F05BFF3246FC
:10423000059B00F065FE4246534600F02DFDDDE98A
:104240001023064603914046514600F025FDDDE966
:104250000C2300F055FE3246039B00F043FFDDE9DE
:10426000082300F019FD03910A9A12905346104654
:10427000194600F011FD06460246C7480B4602915A
:1042800006217844FFF7BCFC029B3246059108905A
:104290001046194600F000FD059B089A00F0FCFC52
:1042A000064609915346404619460A9A00F08AFA92
:1042B000039B129A00F0F0FC3246099B00F082FA50
:1042C000CDE90801424653461046194600F0E4FC89
:1042D00002460B46029104900020B04900F072FAA9
:1042E000DDE9082300F06EFA0E464246AB4B40462D
:1042F00000F0F8FE029B049A00F0F4FEDDE90823CA
:1043000000F0FEFD424604910290334610465146AD
:1043100000F0C2FCCDE90C0153460A9A04990298B8
:1043200000F0BAFC82460091334642460399129847
:1043300000F0B2FC5246009B00F044FA82460B4665
:1043400002460991DDE90C0100F03CFADDE90C239D
:1043500000268846304600F0C5FE5246099B00F014
:10436000CFFDCDE90801434632464FF060408C490D
:1043700000F092FC82460491DDE90801894A884BED
:1043800000F08AFC029100904346324686488749F5
:1043900000F082FC029B009A00F014FA844B7B44EC
:1043A0000F9A03EBC203D3E9002300F00BFA00904D
:1043B0000291019800F01CFC0E9003915046029B64
:1043C000009A049900F0FEF97A4A7A440F9B02EBB6
:1043D000C3030993D3E9002300F0F4F9039B0E9A79
:1043E00000F0F0F988463046039B0E9A00F07AFE02
:1043F000099BD3E9002300F075FE5246049B00F0B0
:1044000071FE029B009A00F07BFD024600200B46E5
:1044100002903846294600F03FFC824603912B4625
:1044200038461946029A00F05DFE3246434600F0D7
:1044300033FC5246039B00F0C5F907468A463246D4
:1044400043462946029800F027FC05460E463A46A8
:10445000534600F0B7F9584A8846914221DBA8EB51
:10446000020353EA000210D12A46334600F03AFE16
:10447000CDE90310514A524B3846514600F0A2F99B
:10448000DDE9033200F006FD21D20220FCF72CF812
:10449000FFF71CFC0A46214614B062F31E01BDE87A
:1044A000F08D484B28F000429A4210D3464A08EB60
:1044B000020353EA00027FF4C6AD2A46334600F0F9
:1044C00011FE3A46534600F0E5FC7FF6BCAD0022F3
:1044D000019228F000403D493D4A01EB20518242C3
:1044E00023DA481C4FF4801121FA00F04044394A85
:1044F000C0F30A517A44384BA1F2FF31CB4020EA95
:104500000303C0F3130040F48010C1F11401C8404C
:1045100012680190B8F1000FBCBF404201902846DC
:10452000314600F0DFFD05460E462A463346384642
:10453000514600F047F94FF000084246274B4046ED
:10454000039100F0A9FBCDE90C01254A254B40461B
:10455000039900F0A1FB029100902A4633464046A1
:10456000039900F0BFFD3A46534600F0C9FC1E4ACD
:104570001E4B00F091FB029B009A00F023F90746C6
:10458000884635E08E9803007AB60B00C615000009
:104590000000F03FFE1500002A1500000000084052
:1045A00009C7EE3FFD033ADCF5015B14E02F3EBE88
:1045B000FE130000C213000000009040FE822B6535
:1045C0004715973C00CC904000346F3F01FCFFFF43
:1045D0000000E03F10130000FFFF0F00432EE63FF6
:1045E000396CA80C615C20BEEF39FAFE422EE63F22
:1045F00002460B46DDE90C0100F0E4F8DDE90C238E
:1046000005460E4600F06EFD3A46434600F078FC43
:1046100007462A46334605911046194600F03CFBF2
:10462000824602462E4888460B4605217844FFF70D
:10463000E7FA5246434600F02FFB2A46334600F085
:104640005FFC80468A463A4628463146059B00F084
:1046500023FB3A46059B00F0B5F805910090002237
:104660004FF080434046514600F03CFD0746039121
:10467000424653462846314600F00EFB3A46039B1D
:1046800000F05CF9059B009A00F02CFD2A463346A9
:1046900000F028FD0022134B00F032FC0546019883
:1046A0000E4601EB00510815002810DC2846314663
:1046B000019A01F01FF8FFF78FFA042808BFFFF7EF
:1046C0000DFB28463146019A01F014F805460B46C9
:1046D00014B02A4658462146BDE8F04D00F0DCBA39
:1046E000B01100000000F03F2DE9F04106460F46F2
:1046F00000F012FC041E0D4618BF0120284320F0D4
:104700000040C0F17F6000F1E040C00F0ED0301CCF
:1047100018BF0120384320F00040C0F17F6000F155
:10472000E040C00F04BF0120FBF7DEFE2046294613
:10473000BDE8F08110B500290AD00878002807D01C
:1047400005487844FCF74AFA002801D0002010BD43
:104750000248784410BD0000EA110000E211000098
:1047600021F0004201F00043A2F16052B2F5801F37
:1047700028BFD2F17F6C0BD95FEA001C43EAC2026A
:1047800042EB507018BF704728BF20F001007047FF
:10479000B2F5801FBCBF184670474FEA410C1CF5AC
:1047A000001F02D2084600F06CBF70B500F01EFB7F
:1047B00000000089FFF7F6BF4FF00040A0F5800031
:1047C0007047000010B591EA030F48BF83F0004323
:1047D00000F19084841A71EB030C05D2121943EB9B
:1047E0000C03001B61EB0C014FEA1154A4EB135CAA
:1047F000DFF81CE11EEA430F18BF9EEA445F00F099
:10480000748021EA045123EA0E0343F48013DCF19F
:10481000200E32D322FA0CFE10EB0E0023FA0CFE0F
:1048200041EB0E01CCF1200E03FA0EFE10EB0E0050
:10483000CCF1200E51F10001B1F5801F32D201EB15
:10484000045112FA0EF2BDE8104058BF7047401CE8
:1048500038BF5FEA420218BF7047002814BF20F03B
:10486000010041F100014FEA410313F5001F38BF79
:104870007047A1F1C04100F007BB012A43EB0302DE
:10488000ACF1200CDCF11F0E32BF4FF0000E23FA0A
:104890000CF310EB030041EB0451B4EB115FD0D0EB
:1048A000A1EB045101F58011490801EB04515FEAC5
:1048B00030000ED350F1000038BF12FA0EFE08D1BE
:1048C000BDE81040C9E7401C38BF5FEA4202CAD1C8
:1048D000C3E7BDE810404FEA410313F5001F38BF9E
:1048E0007047A1F1C04100F0CFBA9EEA445F08D002
:1048F00011EA5E0FBDE8104004BF01F00041002046
:104900007047BDE8104070B500F070FA64FBBE3E21
:104910000000E0FF02494FF0000000F0B9BE00BF08
:104920000000F87F491058BFC1F140415B1058BFEB
:10493000C3F140438B42EFF3008070472DE9C04143
:1049400030B4DFF8A4C23CEA111418BF3CEA1314D7
:1049500000F0ED801CEA111481EA030544EAD574E5
:1049600018BF1CEA131500F0C880A4EB050404F17D
:104970007F7404F500344FF0004545EAC12145EA53
:10498000C32341EA505143EA52534FEAC0204FEA51
:10499000C222994208BF904200F09D804FEA136501
:1049A0000FF24416765D4FEA134506FB05F7C7F193
:1049B000807706FB07F74FEAD737A7FB03687642F5
:1049C000A7FB06CEC8F5803838BFA8F1010807FB61
:1049D00008E6A6FB028C4FF0000EE6FB03CEDCF1EE
:1049E000000CCEF1004E38BFAEF1010EA6FB0C5804
:1049F0004FF00007E6FB0E87A1FB08C6A0FB07CE21
:104A000016EB0E064FF0000545F10005E1FB0765CA
:104A100015F1E04E7EBFA4F580345FEA46066D4195
:104A200016F1800745F100054FEA172747EA0567A9
:104A30004FEA15254FEA0666A6F1DE46B6F1805F1D
:104A400020D9384605EBC47124F0010C01EB0C11A0
:104A5000BCF1FE6F02D8F0BCBDE8008124425CBF0F
:104A600001F5801E9EEAC47F02D4F0BCBDE800813F
:104A7000244200F13980A1F1C041F0BCBDE8004101
:104A800000F002BA4FEAD02040EA41504FEAD1216B
:104A90004FEAD22242EA43524FEAD323A7FB0286CF
:104AA00007FB036605FB02661EEA0E0F58BFA6EB66
:104AB0000056B6EB00564FEA520E4EEAC37E18EB94
:104AC0000E0E56EB530EBCD518EB02085E417F1C50
:104AD00055F10005B5E74FF480154FF000074FF092
:104AE00000064FF00008ACE701F1C04101F00041C1
:104AF0004FF00000F0BCBDE800810CEA131511EA8C
:104B00000C1F00D00CE013EA0C1F00F026804FF0C1
:104B1000000081EA030101F00041F0BCBDE8008122
:104B2000F0BCBDE8004181EA030100F0ADB9F0BC82
:104B3000BDE8004170B500F059F900BF097EFC3EA8
:104B400000F007B84FF0000081EA030101F00041D6
:104B5000704781EA030100F097B9F0BCBDE800415D
:104B600022494FF000007047FFFDFBF9F7F5F4F222
:104B7000F0EEEDEBE9E8E6E4E3E1E0DEDDDBDAD8F8
:104B8000D7D5D4D3D1D0CFCDCCCBCAC8C7C6C5C456
:104B9000C2C1C0BFBEBDBCBBBAB9B8B7B6B5B4B36D
:104BA000B2B1B0AFAEADACABAAA9A8A8A7A6A5A458
:104BB000A3A3A2A1A09F9F9E9D9C9C9B9A9999981C
:104BC0009797969595949393929191908F8F8E8EBF
:104BD0008D8C8C8B8B8A898988888787868585844C
:104BE00084838382828181800000FF070000F87F38
:104BF00010F0004248BF4042B0FA80F310FA03F1CF
:104C00000AD0C3F11D0303F5806302EB03524FEAA0
:104C1000415002EBD12170474FF000007047000077
:104C200051EA030C17D41CF5801F58BFBCF5801F38
:104C300000F10680994218BF704708BF9042704744
:104C400007D711F5801F58BF13F5801F19D499425B
:104C50007047894270471CF5801F08D5BCF5801F3E
:104C6000F7D58B4218BF704708BF824270474FF498
:104C7000001C1CEB410F38BF1CEB430F01D28B42D1
:104C8000704770B500F0B2F8922449004FF000511F
:104C90004FF08053FFF746BE70B5DFF848C11CEAFD
:104CA000111E1EBF1CEA13159EEA0C0F95EA0C0F8D
:104CB00000F06F8081EA03044EEAD47EAE4421EA1C
:104CC0004C1123EA4C1341F4801143F48013AEF1EC
:104CD0007F7EA1FB024CA0FB0365361955EB0C054A
:104CE000A1FB034C4CF10003A0FB021C16EB0C06CD
:104CF000654153F10003094218BF46F0010613F461
:104D0000007F0BD14FEA03314FEA053041EA1551DC
:104D100040EA165034036FF003020AE04FEAC32161
:104D20004FEAC52041EA555140EA5650F4026FF06F
:104D3000020202EB2E4201EB025585EACE710AD047
:104D40005FEA440C18BF24F0004450F1000041F128
:104D5000000120EAD47040F2FE7C624500D270BDB2
:104D6000A84214BF4FF080444FF04044002E08BFCB
:104D70000024BEF1806FA8BFA1F1C041BDE8704022
:104D800080F2828001F1C04101F000414FF000004B
:104D900070470CEA13159EEA0C0F18BF95EA0C0F2A
:104DA00006D081EA030E4FF000000EF0004170BD06
:104DB00000F01CF88900013E00F007B800F009B8C7
:104DC0004FEA430C5FEA5C5C08D081EA030100F023
:104DD0005BB84FEA410C5FEA5C5CF6D102494FF0E8
:104DE000000070470000FF070000F87F0EF1020E80
:104DF0002EF0030E5EF8046B364205D4012A43EB15
:104E0000030515F5001F12D8012841EB010C1CF514
:104E1000001F0CD80ED14FEAD17C0CEB4C0C0CF1DE
:104E2000020C15F5001F08BF4CEBD37C04E04FF0DB
:104E3000080C01E04FEAD37C0CEB4C0526FA05F692
:104E400006F00706B6F1040C06D20EEB860CBDE8A0
:104E500070404CF0010C6047DFE80CF0090B0202D7
:104E60004FF00041A1F500214FF0000070BD194640
:104E70001046012851EB010418BFD4F5001484BF7B
:104E8000002001F0004170BD0808A0F500114FEAB4
:104E90003101704753EA010C17D41CF5801F58BF2D
:104EA000BCF5801F00F106808B4218BF704708BF19
:104EB0008242704707D713F5801F58BF11F5801F36
:104EC00019D48B4270479B4270471CF5801F08D550
:104ED000BCF5801FF7D5994218BF704708BF9042B4
:104EE00070474FF4001C1CEB430F38BF1CEB410F05
:104EF00001D2994270470FB40CBC03BCFFF7C1BE8E
:104F000010B591EA030F81F000413FF563AC83F0E7
:104F1000004300F0EFB800002DE9F04101F5801CDE
:104F2000BCF5001FC0F2C3804FEA115C21EA0C51AE
:104F300041F480110CF1FD0C5FEA5C0C0CF5C07CB7
:104F400001D340004941890241EA905187023BA4C4
:104F50008E0EA45D0A0C04FB04F602FB06F6C6F1F5
:104F60004046A4FB0662F60D46EA422606FB06F41E
:104F7000A4FB01235242C3F1404338BF5B1EA6FB92
:104F800002420024E6FB0324D20B42EA4446A6FB7D
:104F90000623A1FB02E2A3FB07E4A4184FF00002E2
:104FA00052F10002E3FB01426442C2F1404E38BFBD
:104FB000AEF1010EA6FB04234FF00002E6FB0E3219
:104FC000A2FB0346B6194FF0000454F10004E2FBC3
:104FD0000264A1FB06E6A4FB07E816EB08064FF007
:104FE000000858F10008E4FB01687642C8F1405817
:104FF00038BFA8F10108A2FB06E4A3FB08E52D19C0
:105000004FF0000454F10004E2FB0854A1FB05E654
:10501000A7FB04E818EB06084FF0000656F100065F
:10502000E1FB048618F1200556F10006A80940EAC4
:105030008660B109A8F11B0808F03F08B8F10A0F13
:105040001CD901EB0C51BDE8F08100BFFCF5EEE886
:10505000E2DDD8D3CFCBC7C3C0BDB9B6B4B1AEAC17
:10506000A9A7A5A3A19F9D9B9A9896959392908F8F
:105070008D8C8B898887868584838281A0FB0068DC
:1050800000FB01F208EB4208B8EB872807D534187B
:1050900058EB0104D5D5401C51F10001D1E7341A79
:1050A00078EB0104CDD4401E71F10001C9E75FEA3D
:1050B0004C0C5FEA9C5C0DD105D301F000414FF030
:1050C0000000BDE8F081BDE8F04170B5FFF78EFE4D
:1050D0006DDBFFBEBDE8F04101494FF000007047B5
:1050E0000000F87F10B591EA030F48BF83F000433A
:1050F0003FF570AB841A71EB030C07D28CF0004CB7
:10510000121943EB0C03001B61EB0C014FEA115425
:10511000A4EB135CDFF8A4E11EEA430F18BF9EEA7C
:10512000445F00F0B48021EA045123EA6E03524246
:10513000C3EB6E0338BF5B1EDCF1200E25D322FAD1
:105140000CFE10EB0E0043FA0CFE41EB0E01CCF10D
:10515000200E03FA0EFE10EB0E00CCF1200E51F1E2
:10516000000129D401EB045112FA0EF2BDE81040FF
:1051700058BF7047401C1CBFB2F1004F7047002859
:105180000CBF491C20F00100704712EB020E43EBEC
:10519000030218BF4FF0010E4EEA4202ACF1200CA0
:1051A000DCF11E0E56D943FA0CFE10EB0E00CCF1CA
:1051B0001E0E51F1FF31D5D50EF1010E12FA0EFE81
:1051C000404141EB010101EB445C5FEA5C5C10D9BA
:1051D00001EB045110EBDE7038BFBEF1004FBDE8AB
:1051E000104018BF704700280CBF491C20F0010078
:1051F000704734D24FEAD42C24F4006411F5001126
:105200001BD0B1FA81F20B3AA41AA41ED2F12003EA
:10521000914030FA03F31943904001EBCC7101EB5C
:105220000451002CBDE81040A8BF704701F1C041F7
:1052300001F000414FF000007047B0FA80F310FA1F
:1052400003F102D1BDE810407047E41A173C48054D
:10525000C90AE2E701EB0451BDE81040704749106C
:105260004FEA300001EB0451BDE8104002E04FF07E
:10527000000170474A0008BF0042F8D0B2F5001F95
:1052800028BF704701F000414FF0000070479EEAD0
:10529000445F07D011EA5E0FBDE8104004BF002153
:1052A00000207047BDE8104070B5FFF79FFD00BFBC
:1052B00040DFF63E104683F0004170470000E0FFFB
:1052C00043004FEAD30C4FEA3C0C43401FBF40075A
:1052D0000CF1605113F0FE4F70471CF0006F03D1CA
:1052E0000CF00041002070470CF0004343EA50707E
:1052F00040EACC0010B500F07EF900BF000000923B
:105300004FEA0001FFF7C0BD4FF00041A1F50021B9
:105310004FF00000704700004FF47F0C1CEAD012E1
:105320001EBF1CEAD11392EA0C0F93EA0C0F00F097
:10533000858090EA010F48BF42F4807240F4000C6F
:1053400041F400002CF07F4120F07F4000B5A2EB3B
:10535000030281420FF2081CACEB504E9EF800E0B5
:10536000C0F100004FEA4E0E00FB0EFC38BF4900B2
:105370004FEA2C1C0CFB0EF34FEACE1E0EEB635EC5
:105380004FEA112C0EFB0CFC4FEAC1214FEA1C53D3
:1053900000FB031102F5FA024FEA112C0EFB0CFC84
:1053A0004FEA01314FEADC4C00FB0C1142EB224288
:1053B000C14228BF09184CEB03335DF804EB10EB36
:1053C000410143EBC250B2F57C0F38BF704729D57D
:1053D00012F0F00F1CBF00F1C04000F00040704719
:1053E000008182838485868788898B8C8D8E8F91BE
:1053F0009293959697999A9C9D9FA0A2A3A5A7A8E2
:10540000AAACAEB0B2B3B5B7B9BCBEC0C2C5C7C90D
:10541000CCCED1D4D7D9DCDFE2E6E9ECF0F3F7FA71
:10542000FE0000004FEA400C0CF1807CBCF17E4F86
:1054300028BF7047B0F1C04000F023B90CEAD11387
:1054400090EA010F48BF42F48072624538BF63455D
:1054500007D213F47F0F16D080EA010000F000405D
:10546000704710B500F0C7F8097EFC3E00F005B8A3
:1054700080EA010000F00040704780EA010000F07F
:10548000004000F0FEB812F47F0F04BF02487047DE
:1054900080EA010000F0F5B80000C07F10F0004184
:1054A00048BF4042B0FA80F310FA03F2C3F19D0303
:1054B0000BD051EAC35101EB1220530638BF70479D
:1054C00000F1010008BF20F001007047B0FA80F33E
:1054D00010FA03F2C3F19D030AD0D90501EB1220A3
:1054E000530638BF704700F1010008BF20F00100EB
:1054F000704700004FF47F0C1CEAD0121EBF1CEA5C
:10550000D11392EA0C0F93EA0C0F00F0478090EA57
:10551000010F48BF42F480724FF0004C4CEA00206B
:105520004CEA012102EB0302A0FB0113A2F50002E9
:10553000002918BF43F001035B0028BF4FEA330383
:1055400042EB22425FEA132C4CEBC2502EBFBCEB65
:10555000436FB2F57C0F70474FEA036CBCF1004F0C
:1055600008BF20F00100B2F57C0F38BF70470BD5A3
:1055700082F0FF0212F5803FC8BF704700F1C040C3
:10558000D8BF00F00040704700F5000C5FEA4C0CFB
:1055900048BF7047B0F1C04000F073B80CEAD113B7
:1055A00090EA010F48BF42F48072624538BF6345FC
:1055B00004D280EA010000F00040704710B500F00E
:1055C0001AF800BF8900013E00F007B800F009B8E2
:1055D0005FEA410C5FEA1C6C08D080EA010000F031
:1055E00050B85FEA400C5FEA1C6CF6D14FF0004007
:1055F000A0F5800070470EF1020E2EF0030E5EF84B
:10560000044B244204D44FEA4102B2F17F4F11D837
:105610004FEA4003B3F17F4F0CD80ED14FEAD07C54
:105620000CEB4C0C0CF1020CB2F17F4F08BF4CEBB1
:10563000D17C04E04FF0080C01E04FEAD17C0CEB88
:105640004C0324FA03F404F00704B4F1040C06D26A
:105650000EEB840CBDE810404CF0010C6047DFE815
:105660000CF0070802024FF00040A0F5800010BDCA
:105670000846420018BFD2F1807288BF00F0004097
:1056800010BDFF2141EAD050C0057047FBF70AB8B2
:105690000CF00F03092B08BF082000F059800A2BDB
:1056A0000BD0082B18BF704708BF1CF0400F0AD062
:1056B0004FF000004FF0000170471CF0400F18BF82
:1056C0004FF0004070471CF0100F08D000F07F42F0
:1056D00020F0704342EAD3014FEA4370704700F074
:1056E000604021F07F4242EA000201F07F4040EA40
:1056F000727070474FF0FF0C4CF4E06C1CEA1153D1
:105700001CBF9CEA030C9445C2BFDA4201EB025174
:105710007047002B0DD0BCF1000F0FD001F00041FD
:10572000002AA4BF41F0E04141F07F614FF000004A
:10573000704701F000414FF00000704750EA01331C
:105740004FF09B0C18BF4CF0806C7FF4E3A87047BF
:105750001CF4801F11D01CF4E02F03D06FEACC3171
:10576000490070474FF04050EFF3008222F0704242
:1057700042EA000282F3008870474FF00000704751
:10578000000000000000F03F000000000000F83FB3
:1057900000000000000000000000004003B8E23FED
:1057A000000000000000000006D0CF43EBFD4C3E9F
:1057B000033333333333E33FFFAB6FDBB66DDB3F94
:1057C0004D268F515555D53F01411DA96074D13FDC
:1057D00065DBC9934A86CD3FEF4E454A287ECA3FD6
:1057E0003E5555555555C53F93BDBE166CC166BF58
:1057F0002CDE25AF6A56113FF16BD2C541BDBBBE51
:10580000D0A4BE726937663E0000000000000000B0
:1058100002400000000000A0000000000540000061
:10582000000000C8000000000C4000000000409C88
:1058300000000000194000000020BCBE0000000075
:1058400034400000BFC91B8E00000004B5400000BA
:10585000504BCFD06607E2CF010000006C41000042
:105860003E8251AADFEEA73401000000D9420000B9
:10587000DCB5A0E23A301F97FFFFFFFFB445000000
:10588000FD25A0C8E9A3C14FFFFFFFFFFF3F0000B8
:105890000000008000000000FF3F000000000080CA
:1058A00000000000010200000000000000000102F2
:1058B00003040607080900000000010203040203B4
:1058C0000405060708090A0B0C0D0E0F10100A50EC
:1058D000726573737572653A20252E3266205061A9
:1058E0002C2054656D70657261747572653A20255F
:1058F0002E32662043202C20416C746974756465D7
:105900003A20252E3266206D0D0A00004859000805
:10591000000000201000000028010008585900086D
:105920001000002048080000440100081C0000008E
:1059300043000000F8FFFFFF0C0000000E00000015
:105940000F0000002E000000010000001000000009
:085950000024F4000000000037
:04000005080000ED02
:00000001FF
