:020000040800F2
:1000000028090020A9010008C53600081930000899
:10001000C1360008690E0008993A00080000000087
:10002000000000000000000000000000813A00080D
:100030006D0E000800000000C9360008853A00086F
:10004000C3010008C3010008C3010008C301000880
:10005000C3010008C3010008C3010008C301000870
:10006000C3010008C3010008C3010008C301000860
:10007000C3010008C3010008C3010008C301000850
:10008000C3010008C3010008C3010008C301000840
:10009000C3010008C3010008C3010008C301000830
:1000A000C30100088D3A0008C3010008C30100081D
:1000B000C3010008C3010008C3010008C301000810
:1000C000C3010008C3010008C3010008C301000800
:1000D000C3010008C3010008C3010008C3010008F0
:1000E000C3010008C3010008C301000800F002F8C2
:1000F00000F04AF80AA090E8000C82448344AAF178
:100100000107DA4501D100F03FF8AFF2090EBAE875
:100110000F0013F0010F18BFFB1A43F0010318473B
:10012000C8690000E8690000103A24BF78C878C1A7
:10013000FAD8520724BF30C830C144BF04680C60ED
:10014000704700000023002400250026103A28BF35
:1001500078C1FBD8520728BF30C148BF0B60704739
:10016000662906F09E83732900F001840020704701
:100170001FB500F001FC04000020002105F00EFB7B
:10018000E0601FBD10B510BD00F0FAFC1146FFF78E
:10019000EFFF03F051FF00F018FD03B4FFF7F2FF8B
:1001A00003BC00F05BFD0000094880470948004798
:1001B000FEE7FEE7FEE7FEE7FEE7FEE7FEE7FEE717
:1001C000FEE7FEE704480549054A064B7047000074
:1001D000893A0008ED0000082803002028090020C3
:1001E000280500202805002053EA020C23D010B572
:1001F0004C1084EA530404D54042C1F1000138BFD9
:10020000491E1B4204D55242C3F1000338BF5B1E96
:1002100000F0EDF814F0804F04D04042C1F100012D
:1002200038BF491E14F0004F04D05242C3F10003FE
:1002300038BF5B1E10BD13B540424FF0000070EB9D
:100240000104B8BF012001F0004100281CBF6FF07D
:1002500000414FF0FF30AFF300801CBD0FB41CB560
:10026000084B06AA7B4469460090059800F055FBB0
:1002700004460020694600F063FB20461CBC5DF884
:1002800014FB0000D906000070B50C460546012A93
:1002900005D02878800600D5EA69002302E0012312
:1002A00005E05B1C934202D2E05C0028F9D1A8690A
:1002B000E618C01AA861286A184428622846AFF3D5
:1002C000008004E0D5E9012114F8010B9047B44205
:1002D000F8D32846AFF3008070BD2DE9F0474FF00A
:1002E000000A89460446C0F820A02046E1688847F5
:1002F000002876D0252806D0D4E901219047206A2D
:10030000401C2062F1E7E168204600258847C4F8D8
:100310001CA006460027C4F818A02A2E09D0304693
:1003200004F018FD38B304EB8708303EC8F81860B5
:1003300019E059F8041B204604EB87029161E1683B
:100340008847012F064618D1E069002820DA25F0F9
:1003500020051DE0D8F8180000EB800006EB4000F7
:100360003038C8F818002046E1688847064604F08F
:10037000F1FC0028EED1012F0AD02E2E08D1204604
:10038000E16888477F1C0646022F45F02005C4DB44
:10039000A069002803DA404245F00105A061E807A2
:1003A00001D025F01005B6B1A6F14100192802D8F8
:1003B000203645F400654A463146204625604D46C4
:1003C000FFF7CEFE58B1012806D0ED1D25F007003D
:1003D00000F1080989E704E005F1040985E73046E2
:1003E0008AE7206ABDE8F08770477047704753EA94
:1003F000020C00F069802DE9F04B4FF00006002B55
:100400001FBFB3FA83F503FA05F424FA05F65E403C
:1004100012BF1643B2FA82F502FA05F4C5F12005BF
:100420001EBF22FA05FC44EA0C04203556EA044CAF
:100430004FEA144418BF641C4FF000084FF0000945
:10044000904271EB030C39D3002919BFB1FA81F73F
:1004500001FA07F6B0FA80F700FA07F6C7F12007AD
:100460001EBF20FA07FC46EA0C062037B6FBF4FC58
:10047000A7EB0507103F07F01F0BCBF120062CFA66
:1004800006F60CFA0BFB44BFB3460026202FA4BF90
:100490005E464FF0000B5BEA060C08BF4FF0010B05
:1004A00019EB0B0948EB0608ABFB027C06FB02CC00
:1004B0000BFB03CCC01B71EB0C01C1E70B460246E2
:1004C00041464846BDE8F08B13B5084318BF4FF0CE
:1004D000FF300146AFF30080BDE81C40704710B507
:1004E00000F04EFA006810BD10B5044600F048FA5E
:1004F000046010BD2DE9FF4F0C461E464FF0FF373C
:100500008BB0D2E90001DDF860800A908A46C1F321
:100510000A5505B93D46002108464FF00000BAF1E2
:10052000000F00F4400005DA00EB80004FF44001BA
:1005300001EA50004FEA9059B9F1010F00DDB946C8
:100540000A9850EA4A000ED044F61050A5F2FF3542
:1005500045432F14B8F1000F1ED07542291E1EDD31
:10056000C9F100021CE0B8F1010F4FF0000001D00A
:10057000302103E0F24305E02154401CB042FBDB94
:1005800030460022002121540B99C1F80880C1E9AE
:1005900000200FB0BDE8F08FBD1B6D1CDEE74A46A2
:1005A00000DA694206A800F075FA06AB93E8070086
:1005B00003AB83E8070050460A9903F079FF8DE802
:1005C0000700A0F500501F3800900398002D0ADDA9
:1005D00042F21F014A460844002303A903906846DB
:1005E00004F0E2F909E0A0F500504A461F38002364
:1005F00003A90390684604F0ECF98DE807000004B5
:10060000000C03D04FF0FF30410800E01046B8F175
:10061000000F03D00022009215461EE0751E05D47F
:1006200000F0B2F9303262556D1EF9D5B3460122A1
:10063000084302D000227F1C04E02078302801D13A
:1006400000227F1E002A099784D01DE0112D07DAB1
:1006500000F09AF9303262556D1C50EA0102F5D172
:10066000084302D00098C8B10EE00021681E05E0E2
:10067000235C625C63542254401E491C8142F7DBB8
:10068000AB46A81B401E0990002004F80B000B98F5
:10069000099AC0F80880C0E9002B7AE711264FF0CC
:1006A000000857E72DE9F04F88460446D21D22F096
:1006B000070191B0D1E90001CDE90A0104F0C0FAC7
:1006C00002460B98C00F01D02D2007E0206881075B
:1006D00001D52B2002E0202101EAC000032A099065
:1006E00001D0072A05DB03464146204600F092F977
:1006F0000BE12078800601D5E06900E00620B8F122
:10070000650F814606D0B8F1660F18D0B8F1670FB3
:1007100070D131E00020B9F1110F009001DB1123FD
:1007200001E009F101030AAA01A90CA8FFF7E2FE02
:10073000DDE90C70002609F10105834647E0012040
:100740004B4600904FF000470AAA01A90CA8FFF7FA
:10075000D1FEDDE90DB00C995D46002610B909F116
:1007600001000D18B9EB050003D4C0F1FF3609F103
:100770000105A5EB09002BE0B9F1010F01DA4FF0FB
:1007800001090020B9F1110F0090484601DD112345
:1007900000E003460AAA01A90CA8FFF7ABFEDDE9B9
:1007A0000C704D4600268346207800070AD4AB45DE
:1007B00000DA5D4601A8012D04DD411911F8011C84
:1007C000302907D04F4502DA17F1040F04DA01206F
:1007D00082460FE06D1EEEE7002F02DCED1B3E446B
:1007E00003E0781CA84200DD7D1CB81B00F1010A63
:1007F0004FF000472078000703D4AA4501DB4FF0F3
:10080000FF3A0021B7F1004F0DF143088DF8431076
:1008100024D002202B23002F01DA7F422D230A212E
:10082000021EA0F1010000DC5FB197FBF1FC97FB19
:10083000F1F201FB1C7C17460CF1300C08F801CDDD
:10084000EEE7A8F1010003702188090501D54521D3
:1008500000E06521A0F1010800F8011C09980FA92A
:10086000A1EB0807FF1D00B10120411901EBEA705F
:10087000A1693844081A401EA0612078C00602D43D
:100880002046AFF30080099828B1D4E901219047B0
:10089000206A401C20622078C00622D52046AFF393
:1008A00000801EE0002E04DBB34502DD01A8805D60
:1008B00000E03020D4E901219047206A401C2062EA
:1008C000761CAAF101005FEA000A0AD100F054F890
:1008D000C0680168405CD4E901219047206A401C4F
:1008E0002062281EA5F10105DCDC07E0D4E9012126
:1008F00018F8010B9047206A401C2062381EA7F1AF
:100900000107F3DC2046AFF30080032011B041E67D
:1009100001694A1C02610878704700B58FB0CDE9C3
:1009200001310021059105497944CDE903101146B3
:100930006846FFF7D2FC0FB000BD0000E5FFFFFFE7
:100940000A6802F8010B0A60704710B5436913B1D9
:10095000AFF3008001E0FFF797FC012010BD127893
:1009600000F124010A7000224A700122EDE71168AB
:100970004FF0FF32E9E700000048704730000020E8
:10098000004870471000002030B5B0F10A0271F144
:1009900000034FEA900E4EEA817EB0EB0E0061EB51
:1009A00091014FEA101E4EEA017E10EB0E0041EB62
:1009B00011114FEA102E4EEA016E10EB0E0041EBC2
:1009C00011214FEA104E4EEA014E10EB0E0041EBA2
:1009D0001141401841F100014FEAD00040EA417056
:1009E0004FEAD1014FEA810444EA907410EB80058C
:1009F00044EB01046D1944EB0404521BA3414FF076
:100A0000000348BF0A3200D530BD401C41F100014F
:100A100030BD00002DE9F0411F4604460326016861
:100A2000072A01F4006004DB08B116A505E016A54D
:100A300003E008B115A500E015A521F01000206025
:100A4000A069C01EA0610FB1401EA0612046AFF397
:100A500000804FB1D4E9012138469047206A401CFC
:100A60002062C01C206206E0206AFAE7D4E9012176
:100A700015F8010B9047761EF8D22046AFF30080A0
:100A8000BDE8F0814E414E006E616E00494E460059
:100A9000696E66002DE9F047814616468AB03548F2
:100AA00078440DC88DE80D0032487844801C03ACB2
:100AB0000DC884E80D0041F69B300844372190FBB7
:100AC000F1F290FBF1F5A5F1800501FB12041B3C4E
:100AD00002D56442012000E00020DFF898A08046A3
:100AE0000027FA44AAF1BE0A0EE0E0070AD0324617
:100AF000684607EB470101230AEB810103F069FF18
:100B00008DE8070064107F1C002CEED1194F7F4444
:100B1000AE3F19E0E80715D007EB04100DF1180AF5
:100B200090E80E008AE80E00C068F04201D19819E2
:100B300008903246012306A903A803F04AFF03AB3D
:100B400083E807006D10641C002DE3D14FF0010312
:100B500032466946B8F1000F03A802D003F024FF23
:100B600001E003F036FFC9E90001C9F808200AB026
:100B7000BDE8F087006000000048704710000020CA
:100B80007546FFF7F9FFAE4605006946534620F06B
:100B90000700854618B020B5FFF714FBBDE82040DC
:100BA0004FF000064FF000074FF000084FF0000B29
:100BB000AC46ACE8C009ACE8C009ACE8C009ACE898
:100BC000C00921F007018D46704710B50446AFF308
:100BD00000802046BDE81040FFF7DFBA4FF0013C2F
:100BE00050F8042B51F8043B9A4221D1A2EB0C039C
:100BF000934313EACC1317D150F8042B51F8043B5C
:100C00009A4215D1A2EB0C03934313EACC130BD1F8
:100C100050F8042B51F8043B9A4209D1A2EB0C0383
:100C2000934313EACC13DBD04FF00000704700BFB2
:100C3000D01A01BAB1FA81F101F0180122FA01F0DB
:100C4000CB40DBB2C0B2C01AC1F120012CFA01F3D3
:100C5000D11A914311EAC311E6D170470149182016
:100C6000ABBEFEE726000200704700002DE9F04F02
:100C70008BB00490642000F0FBF840F27003C2F2E5
:100C8000000303F1480003F1180103F11C022033B3
:100C9000CDE90910CDE9073203F0A0F9D8BB58A07F
:100CA000416840F2EC0506918168D0E903A9D0E9DA
:100CB0000567D0E9074B90F82480C2F20005059142
:100CC0004F482421286006982422686005984FF434
:100CD0007A73C5E9020A40F27000C2F20000818115
:100CE00040F2DC20C2F200002946C5E90496C5E9BD
:100CF0000674C5F820B085F8248002F051F84FF44E
:100D0000FA6000F0B5F8DDE90910DDE9073203F01B
:100D100065F90028D4D040F27008C2F20008D8F873
:100D20001C000021C4F2C82105F08CFBC8F8240087
:100D300005F0FAFA4AF60023C4F28F03002204F009
:100D400031FE44F26C5245F69533CCF6D942C3F6E7
:100D5000C87304F007F80B4600210246C3F6F07191
:100D6000002005F0F3F94AF24053C4F2E5030022F3
:100D700004F0C6FF04F028FD0446D8E90650C8F880
:100D8000284005F0D1FA814628460F4605F0CCFAF6
:100D9000054620460E4605F0C7FACDE9005640F25A
:100DA000EC05C2F200050C4602901FA128464A46F7
:100DB0003B460394FFF752FAA8F80C0082B240F2C7
:100DC000DC20C2F2000029464FF47A7301F0E8FFFC
:100DD000049870B90A2028800120A8F80C0040F27D
:100DE000DC20C2F20000294601224FF47A7301F0A0
:100DF000D7FF4FF4FA700BB0BDE8F04F00F038B8F1
:100E000054656D70657261747572652F707265736B
:100E1000737572652072656164696E6720666169C9
:100E20006C65640A000000000A5072657373757285
:100E3000653A20252E32662050612C2054656D7055
:100E4000657261747572653A20252E3266204320E2
:100E50002C20416C7469747564653A20252E3266C5
:100E6000206D0D0A00000000FEE700007047000042
:100E7000B0B5044600F01EF9054640F20000C2F28B
:100E800000000078611C18BF044400BF00F012F994
:100E9000401BA042FAD3B0BD2DE9F04F82B00E68DE
:100EA000002E00F0038141F20042C4F2010204234B
:100EB00040F2004E904208BF03234FF6FF7CC4F27D
:100EC000010E009300240123C1F2100C4FF0000A20
:100ED0004FF0000949E000BF012704F00C030F2286
:100EE0009A402BEA020207FA03F34FEA9A051A43E3
:100EF00046F82520D1F804B040F20C455FEACB2239
:100F0000DEF8082054BF22EA080242EA0802C4F2CE
:100F10000105CEF808202A685FEA8B2354BF22EA35
:100F2000080242EA08022A605FEA8B33DEF80420F6
:100F300054BF22EA080242EA08025FEACB33CEF845
:100F40000420DEF800204FF0010354BF22EA08021B
:100F500042EA0802CEF800200E680AF1010A36FAC9
:100F60000AF204F1040400F0A18003FA0AF816EA78
:100F7000080FF1D04E68664512DC122E56D8DFE815
:100F800006F0350B4549555555555555555555554B
:100F90005555554D510000BFD1F80C9046E000BFAB
:100FA0004FF6FF72C1F2210296420FDC0022C1F21D
:100FB000110296421AD00022C1F21202964215D0B6
:100FC0000022C1F22102964210D02FE00022C1F28D
:100FD000220296420AD00022C1F23102964205D086
:100FE0000022C1F23202964220D100BF8A684AB183
:100FF000012A14BFC0F81480C0F810804FF008090F
:1010000014E000BF4FF0040910E000BFCA6802F10D
:1010100008090BE04FF0000908E000BFCA6802F1C0
:10102000040903E0CA6802F10C0900BF2246064623
:10103000BAF1080F24BF203A043637680F259540CF
:1010400027EA050509FA02F22A433260CA79D20674
:101050007FF582AF41F21803C4F202031A68AEF5BD
:101060007E7642F001021A601A6802F001020192D3
:10107000019A2AF0030256F802B040F60002C4F2C8
:101080000102904210D040F60042C4F201029042A8
:101090003FF422AF41F20002C4F20102009F9042ED
:1010A00008BF022719E700BF002716E702B0BDE816
:1010B000F08F000040F22430C2F200000068704758
:1010C00070B5B8B3044690F83D0028B9002084F804
:1010D0003C00204600F0F2FE242084F83D00206809
:1010E000016821F001010160016841F400410160E3
:1010F000016821F40041016001F0D8F848F2804114
:10110000C0F21E0140F60013D4F804E088424FF00C
:101110000001C0F23D0348F2A16C4FF0000238BF5D
:1011200001219842C0F2010C38BF0122E64538BFC8
:101130000A460AB1012070BD4DF68361C4F21B312D
:10114000A0FB01122168950C4B684FF4967623F0B2
:101150003F0343EA9243754344F6D3564B60C1F2D2
:1011600062060B6AA5FB0656B50923F03F03E64568
:1011700038BF950C6A1C1A430A62CA6948F2A06615
:101180004CF6FF73C0F20106B64522EA03020BD803
:1011900001384FEA4E03B0FBF3F001306FF31F301C
:1011A000042898BF04201EE0A368013863B1192306
:1011B0000EFB03F3B0FBF3F001306FF31F3078B197
:1011C00000F5804008E000BF0EEB4E03B0FBF3F0EB
:1011D00001306FF31F3028B100F5004003E000BF7D
:1011E000012000E001201043C8610868D4E907230A
:1011F00020F0C000104318430860886848F2FF32AE
:1012000004F10C0690434CCE18431043A569886046
:10121000C86820F0FF0030432843C860086840F0E9
:101220000100086000202021206484F83D10206324
:1012300084F83E0070BD00002DE9F04F83B01E46DB
:10124000924688460446FFF735FF94F83D10202962
:101250001CD12168054600BF8869800712D5FFF7B9
:1012600029FF401B21681A28F6D388698007F3D527
:1012700000202021206384F83D1084F83E00216C7A
:101280000226C2E094F83C00012805D1022630462F
:1012900003B0BDE8F08F00BF4FF0010984F83C9027
:1012A0000868C00703D1086840F0010008600868BA
:1012B000002720F400600860242084F83D0000200E
:1012C000CFF6FF702764E06208F0FE08BAF1010F64
:1012D00088BFD1464FF0A00A4FF0200B04E000BFBA
:1012E00001374F4500F0A4800868002240F4807068
:1012F000086020464FF001113346009501F0DEFFF3
:101300002168002856D1C1F81080FFF7D3FE21686C
:101310004B694A6994F83D50A02D054605D013F05D
:10132000020008BF12F480601AD084F83DB048690A
:101330000A68800742F400720A6047D46FF4806044
:10134000486100BF88698007CAD5FFF7B3FE401B1C
:1013500021681A28F6D388698007F3D54CE000BFCE
:10136000B6B100BFFFF7A6FE401BB04288BF84F8AD
:101370003DA021684A69486994F83D30A02BD4D03B
:1013800012F0020208BF10F48060EBD0CDE700BF7E
:10139000FFF790FE84F83DA021684A69486994F8F7
:1013A0003D30A02BC1D012F00202BED110F48060FB
:1013B000EED0BAE708680326C00544BF4FF40070BA
:1013C0002064304603B0BDE8F08F00BF00260296CF
:1013D00048690290886902900298886901E000BF1C
:1013E000806980071AD5FFF765FE411B20681A291E
:1013F000F6D381698907F3D500202021206384F882
:101400003D1084F83E00216C012641F0200121644A
:1014100084F83C00304603B0BDE8F08F202084F80B
:101420003D0084F83C60304603B0BDE8F08F00BF5B
:10143000202084F83D000020012684F83C0030463E
:1014400003B0BDE8F08F00002DE9F04784B00446FA
:1014500000201F46164689460290FFF72BFE94F89F
:101460003D10202920D10546206800BF81698907E9
:1014700016D5FFF71FFE411B20681A29F6D3816994
:101480008907F3D500202021206384F83D1084F8DB
:101490003E00216C41F02001216484F83C0003E00F
:1014A00094F83C10012903D1022004B0BDE8F08774
:1014B000012184F83C100168C90703D1016841F09B
:1014C000010101600168DDF8308021F400610160F4
:1014D000222184F83D10102184F83E10002121645F
:1014E00066626785618D0227C0F201072185A7F139
:1014F0000211E162E16A026811F5803F42F4806204
:10150000026018BF01293DD1016841F4807101607A
:1015100020464FF0011100224346009501F0CEFE17
:1015200050B120680068C00544BF4FF400702064CB
:10153000012004B0BDE8F0872069B0F5804F27D1C5
:1015400049F00100C0B22168424608612046394690
:101550002B4601F09DFF0028EAD1208D02284BD0B8
:1015600001285FD0002840F073800020039020689D
:1015700041690391816903910399016841F4007104
:10158000016071E00829BFD0216B1129BCD0BFE7F1
:10159000062000EAD916206806F1F0010161B91DA4
:1015A000204642462B4601F073FF0028C0D1206838
:1015B0005FFA89F101612046394642462B4601F027
:1015C00067FF0028B4D10020039020680022416901
:1015D00043460391816903910399016841F4807145
:1015E000016020464FF00111009501F067FE0028D0
:1015F00097D146F0F100A6E72068016841F4006148
:101600000160EFF3108072B60020039020684169FA
:101610000391816903910399016821F4806101605C
:1016200062B621E02068016821F480610160EFF377
:10163000108072B60020039020684169039181698F
:1016400003910399016841F40071016062B60BE0F7
:101650002068016841F480610160002103914169C3
:101660000391806903900398208D002800F0CC80BE
:1016700040F208094BF2895A0237C2F20009C1F25E
:10168000F84A23260EE000BF10690870606A218DB9
:1016900001306062481E2085618D01396185010439
:1016A00000F0B28080B203280CD802282CD0012888
:1016B0004AD1204641462A4601F05AFF002800F050
:1016C0009F8035E7204641462A4601F051FF002819
:1016D0007FF42EAF2068616A00690870606A226832
:1016E000411C208D616201382085638D013B63853B
:1016F00053695B07D3D580B20328C5D1106820F4A5
:1017000080601060C0E700BF204639460022434693
:10171000009501F0D3FD00287FF40AAFEFF31080AD
:1017200072B62068616A026842F400720260006961
:101730000870606A218D01306062481E2085608DCE
:101740000138608562B65BE0204639460022434698
:10175000009501F0B3FD00287FF4EAAE206801682F
:1017600021F480610160EFF3108072B62068616A35
:1017700000690870606A218D01300139606221853D
:10178000618D01396185D9F80010C908A1FB0A12E1
:10179000110A7143029102990139029102990029BB
:1017A0003ED021684A6952071AD402990139029140
:1017B0000299A9B321684A69520711D402990139E3
:1017C0000291029961B321684A69520708D40299CB
:1017D00001390291029919B321684A695207DAD591
:1017E0000A6842F400720A6009690170606A218D1A
:1017F00001306062481E2085608D0138608562B6C8
:101800002068616A006940E7202084F83D000020DC
:1018100084F83E0084F83C0004B0BDE8F08700BFC7
:1018200000202021206384F83D1084F83E00216CC4
:1018300041F02001216462B684F83C00012004B02C
:10184000BDE8F0872DE9F04383B01E461746894670
:101850000446FFF72FFC94F83D10202920D10546BF
:10186000206800BF8169890716D5FFF723FC411B5B
:1018700020681A29F6D381698907F3D50020202131
:10188000206384F83D1084F83E00216C41F0200173
:10189000216484F83C0003E094F83C10012903D152
:1018A000022003B0BDE8F083012184F83C100168F8
:1018B000C90703D1016841F001010160016840F2EC
:1018C000020821F400610160212184F83D101021FB
:1018D00084F83E100021216467626685618DC0F244
:1018E00001082185A8F10211E162E16A0A9E11F561
:1018F000803F18BF01291DD1016841F4807101604A
:1019000020464FF0011100223346009501F0D6FC2D
:1019100050B120680068C00544BF4FF400702064D7
:10192000012003B0BDE8F0832069B0F5804F07D1F6
:10193000FE2015E00829DFD0216B1229DCD0DFE77B
:10194000062000EAD9102168F030086108F106018C
:10195000204632462B4601F09BFD0028E0D1FF20B7
:10196000216800EA090008612046414632462B46BC
:1019700001F08EFD0028D3D100200290206841693B
:10198000029180690290029806E000BF204631462D
:101990002A4601F033FC18BB208D68B3204631463F
:1019A0002A4601F02DFED8B9606A2168024612F875
:1019B000013B0B616262628D013A6285228D531E8A
:1019C00023854F697F07E1D51B04DFD043780230C0
:1019D0000B616062608D01386085901E2085D5E7BF
:1019E000206C04289CD12068016841F400710160DA
:1019F000012003B0BDE8F0832068016841F4007164
:101A00000160202084F83D00002084F83E0084F826
:101A10003C0003B0BDE8F0832DE9F04F85B00446EB
:101A20000020994616460F460490FFF743FB94F8B2
:101A30003D10202927D10546206800BF816989070C
:101A40001CD5FFF737FB411B20681A29F6D38169A3
:101A50008907F3D500202021206384F83D1084F805
:101A60003E00206C04F13C0A40F02000206402207B
:101A700000218AF8001005B0BDE8F08FA2461AF8E0
:101A80003C1F012904D1022005B0BDE8F08F00BF42
:101A900001228AF800200368DDE90F180E9ADB079F
:101AA00003D1036843F001030360036823F4006378
:101AB0000360222084F83D00402084F83E0000208E
:101AC000206462626185608D394620850020CFF6F2
:101AD000FF70E062204632464B46CDF8008001950B
:101AE00001F09CFA20B1012005B0BDE8F08F00BFE5
:101AF000208D022810D0012824D0002838D10020C1
:101B000003902068416903918169039103990168F9
:101B100041F40071016037E02068016841F4006120
:101B20000160EFF3108072B60020039020684169D5
:101B30000391816903910399016821F48061016037
:101B400062B621E02068016821F480610160EFF352
:101B5000108072B60020039020684169039181696A
:101B600003910399016841F40071016062B60BE0D2
:101B70002068016841F4806101600021039141699E
:101B80000391806903900398208D002800F0CA809B
:101B9000042740F208094BF2895BC0F20107C2F248
:101BA0000009C1F2F84B232617E000BF204641464A
:101BB0002A4601F0DDFC002895D12068616A0069A1
:101BC0000870606A218D01306062481E2085618D39
:101BD00001396185010400F0A58080B2032865D831
:101BE000022800F07F800128E0D0204639460022FC
:101BF0004346009501F062FB00287FF474AF206833
:101C0000016821F480610160EFF3108072B62068F2
:101C1000616A00690870606A218D01300139606273
:101C20002185618D01396185D9F80010C908A1FBB2
:101C30000B12110A7143049104990139049104991A
:101C4000002900F07B8021684A6952071DD404995D
:101C5000013904910499002970D021684A6952071A
:101C600013D40499013904910499002966D021689C
:101C70004A69520709D40499013904910499002949
:101C80005CD021684A695207D6D50A6842F40072CE
:101C90000A6009690170606A218D01306062481E26
:101CA0002085608D0138608562B686E72046414612
:101CB0002A4601F05DFC00287FF415AF2068616AB8
:101CC00000690870606A2268411C208D61620138D9
:101CD0002085638D013B638553695B077FF57AAF90
:101CE00010696DE72046394600224346009501F011
:101CF000E5FA00287FF4F7AEEFF3108072B62068A3
:101D0000616A026842F40072026000690870606AE9
:101D1000218D01306062481E2085608D013860850C
:101D200062B64AE7202084F83D00002084F83E0097
:101D300000218AF8001005B0BDE8F08F00202021B6
:101D4000206384F83D1084F83E00206C40F02000B1
:101D5000206462B6012000218AF8001005B0BDE8B9
:101D6000F08F00002DE9F04383B0994616460F46E8
:101D70000446FFF79FF994F83D10202920D105462D
:101D8000206800BF8169890716D5FFF793F9411BC9
:101D900020681A29F6D381698907F3D5002020210C
:101DA000206384F83D1084F83E00216C41F020014E
:101DB000216484F83C0003E094F83C10012903D12D
:101DC000022003B0BDE8F083012284F83C200368C0
:101DD000DDE90B180A9ADB0703D1036843F001031E
:101DE0000360036823F400630360212084F83D004E
:101DF000402084F83E000020206462626185608D8E
:101E0000394620850020CFF6FF70E062204632463A
:101E10004B46CDF80080019501F08CF920B10120EE
:101E200003B0BDE8F08300BF208D98B9204641463D
:101E30002A4601F0E3F988B3206C0428EFD120682A
:101E4000016841F400710160012003B0BDE8F08336
:101E50000004EBD0204641462A4601F0D1FB002881
:101E6000EAD1616A2268084610F8013B1361238DAC
:101E70006062581E2085678D013F678557697F071F
:101E8000E6D50704E4D048781061881C6062981E8B
:101E90002085618D01396185DAE700BF206801681E
:101EA00041F400710160202084F83D00002084F896
:101EB0003E0084F83C0003B0BDE8F08310B586B066
:101EC000006845F60001C4F2000188424FF00001AD
:101ED000CDE90411CDE902112AD045F20041C4F246
:101EE0000001884248D141F21804C4F2020420687B
:101EF00002A940F008002060206800F0080001906E
:101F00000198C0200290122003900320059040F613
:101F10000040C4F20100FEF7BFFF606840F400100B
:101F20006060606800F400100190019806B010BD78
:101F300041F21804C4F20204206802A940F008002B
:101F40002060206800F00800019001984FF4406084
:101F50000290122003900320059040F60040C4F246
:101F60000100FEF799FF606840F4800060606068DF
:101F700000F480000190019806B010BD40F200000E
:101F800040F22431C2F20000C2F2000100780A6877
:101F9000104408607047000080B542F20000C4F2AF
:101FA0000200016841F010010160032000F08EF88A
:101FB0000F2000F005F800F027F8002080BD000099
:101FC00070B540F20006C2F2000640F20801327815
:101FD000C2F200014FF47A730968B3FBF2F20446CF
:101FE000B1FBF2F1084600F063FB0F2C4FF0010546
:101FF00008D838B94FF0FF3021460022002500F004
:1020000039F87460284670BD82B041F21800C4F2FD
:1020100002000168022241F001010160016801F043
:10202000010101910199416841F08051416040688E
:1020300000F08050009000980420C4F20100016874
:1020400062F31A61016002B070470000002848BFC7
:102050007047C1B200F01F00012202FA00F04EF2F8
:102060000012CEF2000242EAD10121F00301086021
:102070007047000010B54EF60C5CCEF2000CDCF898
:102080000030C3F3022E8EF00704042C28BF042472
:10209000BEF103034FF0FF3E0EFA04F438BF0023F5
:1020A000A14399400EFA03F39A43114300F00F0243
:1020B00000F160430901043A03F5644362440028D7
:1020C00048BF02F10C03197010BD00004EF60C5110
:1020D000CEF200010A684FF6FF031A4060F30A22AD
:1020E00042F0806040F0FD70086070472DE9F043D9
:1020F00081B0002800F0858042F20008C4F2020896
:102100000446D8F800000D4600F0070088420CD2C3
:10211000D8F8000020F007002843C8F80000D8F8DD
:10212000000000F00700A8426BD1206841F20409CA
:102130008107C4F2020917D5410705D5D9F8001067
:1021400041F4E061C9F80010010705D5D9F8001085
:1021500041F46051C9F80010D9F80010A26821F0CC
:10216000F0011143C9F80010C00741D1D8F80000B0
:1021700000F00700A8420CD9D8F8000020F00700B2
:102180002843C8F80000D8F8000000F00700A84273
:1021900037D12068410707D5D9F80010E26821F44B
:1021A000E0611143C9F80010000708D5D9F8000014
:1021B000216920F4605040EAC100C9F80000D9F854
:1021C000002002F00C00082841F20020C0F27A0042
:1021D00050D146F6D623C2F38341C0F60003595CC2
:1021E000D2033BD440F60010C0F23D00484341E02A
:1021F000606802280AD001282AD159F8041C8903F2
:1022000008D4012001B0BDE8F08300BF59F8041CD8
:102210008901F6D5D9F8001021F003010843C9F867
:102220000000FEF747FF064641F28837D9F8000064
:10223000616800F00C00B0EB810F97D0FEF73AFF19
:10224000801BB842F2D9032001B0BDE8F08300BF83
:1022500059F8041C8907D4D5DCE700BFD9F8002061
:1022600046F6D423C2F34042C0F600039A5C4843CA
:10227000B0FBF2F0D9F8001046F6BC22C1F303110E
:10228000C0F60002515C40F2080220FA01F140F26F
:102290000400C2F200000068C2F200021160FFF701
:1022A0008FFE002001B0BDE8F083000040F208007E
:1022B00041F20401C2F20000C4F2020100680968A0
:1022C00046F6CC22C1F30221C0F60002515CC840A0
:1022D0007047000040F2080041F20401C2F2000021
:1022E000C4F202010068096846F6CC22C1F3C2219B
:1022F000C0F60002515CC840704700002DE9F04173
:1023000082B0002868D00446007841F20006C00779
:10231000C4F2020625D0706800F00C0004281BD01F
:10232000706800F00C00082802D17068C00313D454
:102330006068002800F06881B0F5A02F00F07C8173
:10234000B0F5803F00F07C81306820F48030306050
:10235000306820F4802076E13068800301D5606821
:10236000D0B32078800718D5706810F00C0F07D014
:10237000706800F00C0008286ED17068C0036BD440
:102380003068800702D52069012825D1306861694D
:1023900020F0F80040EAC1003060207800071FD428
:1023A0002078400732D4E56995B1706800F00C00E0
:1023B000082840F08F80012D0ED07068216A00F44B
:1023C00080328A4208D1616A00F47010884203D1D9
:1023D000002002B0BDE8F081012002B0BDE8F0812C
:1023E000A069002862D00020C4F242200121C0F878
:1023F0008014FEF75FFE0546706A800700F18C804E
:10240000FEF758FE401B0228F6D92AE1F06910F0C9
:10241000805808D1F06940F08050F061F06900F018
:1024200080500090009847F20007C4F20007386817
:10243000C00529D4386840F480703860FEF73AFE51
:10244000054600BF3868C0051ED4FEF733FE401BAA
:102450006428F7D905E100BF2069002840F2000098
:10246000C4F2422000F0828001210160FEF722FECA
:10247000054600BF306880073FF588AFFEF71AFEBB
:10248000401B0228F6D9ECE0E068002800F08080CC
:10249000052800F09780012800F09880306A20F02D
:1024A00001003062306A20F0040092E00020C4F2A3
:1024B00042200021C0F88014FEF7FCFD054600BF55
:1024C000706A80077FF56CAFFEF7F4FD401B0228B1
:1024D000F6D9C6E00027C4F2422700203866FEF78E
:1024E000E9FD022D05460BD13068800140F1BE8028
:1024F000FEF7E0FD401B02284FF00300F4D968E727
:10250000306880017FF564AFFEF7D4FD401B0228E0
:102510004FF00300F4D95CE740F20800C2F200007B
:10252000006844F6D351C1F26201A0FB0101480AE0
:10253000019000BF00BF0198411E002801913FF4A7
:102540002FAF00BF0198411E002801913FF428AF32
:1025500000BF0198411E002801913FF421AF00BF48
:102560000198411E00280191E4D119E70021016082
:10257000FEF7A0FD054600BF306880077FF50DAF70
:10258000FEF798FD401B02284FF00300F4D920E726
:10259000306A20F001003062306A20F004003062BE
:1025A000FEF788FD054641F2883700BF306A800794
:1025B00020D5FEF77FFD401BB8424FF00300F5D950
:1025C00007E700BF306A40F004003062306A40F034
:1025D00001003062FEF76EFD054641F2883700BF0C
:1025E000306A800706D4FEF765FD401BB842F7D974
:1025F00037E000BFB8F1000F7FF4D5AEF06920F0EE
:102600008050F061CFE600BF306820F48030306049
:10261000306820F480203060FEF74CFD054600BF96
:10262000306880037FF59DAEFEF744FD401B6428B3
:102630004FF00300F4D9CCE6306840F480203060DD
:10264000306840F480303060FEF734FD054600BF4E
:10265000306880033FF585AEFEF72CFD401B6428F3
:10266000F6D9032002B0BDE8F08100BF206AB0F5C2
:10267000803F05D17168A26821F400311143716077
:102680007168626A21F4741111430843706001207B
:102690003866FEF70FFD0446306880013FF598AEBE
:1026A000FEF708FD001B02284FF00300F4D990E666
:1026B000411E0020B0EB116F1CBF012070474EF28D
:1026C0001002CEF2000251604EF62351CEF200010C
:1026D000F0230B7007219060116070477047000075
:1026E0007047000010B590F83C20012A4FF002021C
:1026F00033D080F83D200268D2F804E0D2F808C058
:102700000C682EF07003234340F2FF74C4F20004FF
:10271000A24253600ADCB2F1804F13D040F2004372
:10272000C4F200039A420DD011E000BF42F600430C
:10273000C4F201039A4205D040F60003C4F200033C
:102740009A4204D149682CF0800319439160012119
:10275000002280F83D1080F83C20104610BD00009B
:10276000002804BF0120704710B5044690F83D00D2
:1027700028B9002084F83C00204600F067F80220C9
:1027800084F83D00206840F2FF730268C4F2000341
:1027900042F6004C9842C4F2010C15DCB0F1804FB7
:1027A0001AD040F20041C4F20001884214D098428D
:1027B00018DCB0F1804F1DD040F20041C4F200019E
:1027C000884217D01AE000BF604505D040F60001EE
:1027D000C4F200018842EAD1A16822F070020A43E3
:1027E0009842E6DD604505D040F60001C4F20001E4
:1027F000884203D1216922F440720A43A36922F07E
:102800008001D4F804E0E268194360450160C262C7
:10281000C0F828E002D16169CCF830100121416193
:10282000002084F8461084F83E1084F83F1084F8A5
:10283000401084F8411084F8421084F8431084F862
:10284000441084F8451084F83D1010BD80B582B066
:10285000006842F60041C4F2010188421CBF02B088
:1028600080BD41F21800C4F202000168002241F468
:10287000006101600068002100F40060019001988F
:102880001920FFF7F7FB192002B0BDE88040FFF7E1
:10289000DDBB000090F83D1001291CBF01207047EE
:1028A000022180F83D10006840F2FF72C168C4F256
:1028B0000002904241F00101C16009DCB0F1804F9B
:1028C00012D040F20041C4F2000188420CD012E064
:1028D00042F60041C4F20101884205D040F60001F1
:1028E000C4F20001884206D1816801F0070106297F
:1028F00004BF00207047016841F001010160002021
:102900007047000080B590F83C20012A4FF0020289
:1029100000F0C28080F83D20D0F800C04FF67772FA
:10292000DCF8083023EA0202CCF808200B684F2BB1
:1029300028DC1F2B44DD202B45D0302B43D0402BEF
:1029400040F0AC80D1F804E0C968DCF82030DCF855
:10295000202022F00102CCF82020DCF8182022F000
:10296000F00242EA011123F00A0242EA0E02CCF818
:102970001810CCF82020DCF8081041F0470121F0B5
:10298000300180E06F2B27DDB3F5005F48D0B3F551
:10299000805F7AD0702B40F08180D1E901E3C96873
:1029A000DCF8082043EA0E0322F47F4243EA0121C7
:1029B0001143CCF80810DCF8081041F0770162E010
:1029C0000BB1102B6AD1DCF8081021F0700119430B
:1029D00041F0070157E000BF502B35D0602B5DD18F
:1029E000D1F804E0C968DCF82030DCF8202022F0BF
:1029F0001002CCF82020DCF8182022F4704242EAC1
:102A0000013123F0A00242EA0E12CCF81810CCF8E3
:102A10002020DCF8081041F0670121F0100132E0BD
:102A2000D1E901E3C968DCF8082043EA0E0322F487
:102A30007F4243EA01211143CCF80810DCF808106A
:102A400041F480411FE000BFD1F804E0C968DCF820
:102A50002030DCF8202022F00102CCF82020DCF825
:102A6000182022F0F00242EA011123F00A0242EAA1
:102A70000E02CCF81810CCF82020DCF8081041F039
:102A8000570121F02001CCF808100022012180F824
:102A90003D10002180F83C10104680BD0122F5E772
:102AA0007047000010B5016804460869800744BFFC
:102AB000C8685FEA807039D40869400744BFC868B5
:102AC0005FEA40703ED40869000744BFC8685FEA07
:102AD000007045D40869C00644BFC8685FEAC0609A
:102AE0004AD40869C0071CBFC8685FEAC07051D1EA
:102AF0000869000644BFC8685FEA006052D40869EC
:102B0000400644BFC8685FEA406053D40869800645
:102B100046BFC8685FEA806010BD6FF020022046A3
:102B20000A61BDE81040FFF7DBBD00BF6FF0020097
:102B30000861012020778869800743D02046FFF78D
:102B4000AFFF45E06FF0040008610220207788693C
:102B500010F4407F40D02046FFF7A2FF42E000BFC4
:102B60006FF00800086104202077C86980073DD015
:102B70002046FFF795FF3FE06FF010000861082046
:102B80002077C86910F4407F3AD02046FFF788FFCD
:102B90003CE000BF6FF001000861204600F03EF805
:102BA0002168A5E76FF0800008612046FFF796FDD9
:102BB0002168A4E76FF040000861204600F03EF86D
:102BC0002168A3E7204600F025F8204600F024F80D
:102BD0002168002020776FE7204600F01BF8204690
:102BE00000F01AF82168002020776CE7204600F0FA
:102BF00011F8204600F010F821680020207769E7DE
:102C0000204600F007F8204600F006F82168002072
:102C1000207766E77047000070470000006842F6C2
:102C20000041C4F20101884218BF704740F27000B1
:102C3000C2F2000001690131016170477047000074
:102C4000002804BF0120704710B5044690F84100E9
:102C500028B9002084F84000204600F063F82420C2
:102C600084F841002068D4E90212C36823F40053B9
:102C7000C360036923F440531A430261D4E9042377
:102C80001143C268194341F20C639A431143C16076
:102C90004169A26921F44071114343F60002C4F274
:102CA00001029042416103D0FFF700FB02E000BF48
:102CB000FFF710FB6268192148439100B0FBF1F067
:102CC00048F21F51C5F2EB11A0FB01235A094FF640
:102CD0009C73C0F6FF7302FB0300322303EB00106A
:102CE000A0FB0101F02303EA5113206803EB021259
:102CF000C1F3431111448160016921F490410161E4
:102D0000416921F02A014161C16841F40051C1606B
:102D100000202021606484F8411084F84210606330
:102D200010BD000070B586B040F60004C4F2010486
:102D3000006804F5405100268842049602D006B08F
:102D400070BD00BF41F21800C4F20200016802AD7C
:102D500041F480410160016801F4804101910199D1
:102D6000016841F0040101600068294600F0040098
:102D7000019001984FF4007002900220039003200C
:102D800005902046FEF788F84FF48060CDE90206F2
:102D9000204629460496FEF77FF806B070BD000075
:102DA0002DE9F04381B0044690F84100202840F01E
:102DB000B180884600294FF0010000F0D680164609
:102DC000002A00F0D2800020606421201D4684F893
:102DD0004100FEF76FF9A684E684A1680646B1F5C6
:102DE000805F03D12069002800F0988047464FF0AB
:102DF0000008E18C2068002900F0968005F10109A7
:102E00000BE000BF47B317F8011B4160E18C0139AB
:102E1000E184E18C002900F0878001680906F1D483
:102E2000B9F1000F0AD0EDB1FEF744F9801BA842BA
:102E300018D8206801680906F6D5E3E70168090695
:102E4000E0D4016809065CBF01685FEA0161D9D47A
:102E500001680906F2D5D5E738F8021B00276FF3A1
:102E60005F21D2E7206850E8030F216820F4D0707A
:102E700041E80302BAB3206850E8030F216820F448
:102E8000D07041E8030272B3206850E8030F216854
:102E900020F4D07041E803022AB3206850E8030F01
:102EA000216820F4D07041E80302002ADAD11AE048
:102EB000206850E8050F216820F0010041E8050274
:102EC000DAB1206850E8050F216820F0010041E8E0
:102ED000050292B1206850E8050F216820F001003A
:102EE00041E805024AB1206850E8050F216820F04A
:102EF000010041E80502002ADAD1202084F84100CF
:102F000084F84200002084F84000032001B0BDE8AE
:102F1000F08300BF022001B0BDE8F0830027E18C00
:102F2000206800297FF46AAF0168490619D4FDB111
:102F3000691C0DD10168490613D4016849065CBFBC
:102F400001685FEA41610CD401684906F2D508E0E6
:102F5000FEF7B0F8801BA8420AD820680068400637
:102F6000F6D5202084F84100002001B0BDE8F083B0
:102F7000206850E8030F216820F4D07041E8030274
:102F8000002A3ED0206850E8030F216820F4D0705A
:102F900041E80302AAB3206850E8030F216820F437
:102FA000D07041E8030262B3206850E8030F216843
:102FB00020F4D07041E80302002AD9D121E000BFFB
:102FC000206850E8050F216820F0010041E8050263
:102FD000002A3FF492AF206850E8050F216820F0E6
:102FE000010041E80502002A3FF487AF206850E85D
:102FF000050F216820F0010041E80502002A3FF496
:103000007CAF206850E8050F216820F0010041E8FE
:103010000502002AD4D170E7FEE700002DE9F04751
:1030200082B0044600680E460168DDF828A041F42D
:10303000806101600168DDF82C9041F480711D46CB
:103040001746016020464FF0011100225346CDF88B
:10305000009000F033F958B120680068C00544BF03
:103060004FF400702064032002B0BDE8F08700BF79
:1030700040F202082068C0F2010806F0FE06066170
:103080002046414652464B4600F002FA20B101204C
:1030900002B0BDE8F08700BF0020019020684A46DA
:1030A000416901918069514601900198204600F0E4
:1030B000A7FA98B92068012D08D0390A0161204685
:1030C00051464A4600F09CFA40B92068F9B20161C5
:1030D000204651464A4600F093FA58B1206C042825
:1030E000D5D12068016841F400710160012002B06F
:1030F000BDE8F087206800220168534641F48071E2
:10310000016020464FF00111CDF8009000F0D6F894
:103110000028A1D1206846F0010101612046414606
:1031200052464B4600F0B4F9002818BF012002B007
:10313000BDE8F0872DE9F04383B0044600680D46F2
:1031400001680A9F0B9E41F4807199469046016088
:1031500020464FF0011100223B46009600F0AEF8E9
:1031600050B120680068C00544BF4FF4007020646F
:10317000032003B0BDE8F083206805F0FE01016183
:103180000221C0F2010120463A46334600F080F9A0
:1031900020B1012003B0BDE8F08300BF0020029001
:1031A000206832464169029180693946029002984E
:1031B000204600F025FA58B1206C0428E9D1206897
:1031C000016841F400710160012003B0BDE8F083A3
:1031D0002068B9F1010F0AD04FEA18210161204699
:1031E0003946324600F00CFA0028E5D120685FFA33
:1031F00088F10161002003B0BDE8F08370B5036879
:10320000044653F8140F400711D40E46481C29D029
:1032100086BB00BF1868400527D4FDF74BFF236825
:1032200053F8140F400739D518684007F2D500202D
:1032300070BD00BF18684007F9D41868400514D461
:1032400018684007F3D4186840050ED41868400782
:10325000EDD41868400508D4186840074FF0000006
:1032600048BF70BD18684005E4D56FF480601860F1
:10327000042014E0154603E053F8140F4007D6D499
:1032800018684005F1D4FDF715FF401B2368B042D4
:10329000F2D958694007EFD4202000E02020002117
:1032A0002022216384F83D2084F83E10226C1043D4
:1032B0002064012084F83C1070BD00002DE9F0412D
:1032C000054600681E46144601F47F0201338FB2A2
:1032D00042D0DDF81880B2F5803F40F08780406929
:1032E0003840C01BB0FA80F04009A04240F0C880CE
:1032F0004EB924E040693840C01BB0FA80F0400964
:10330000A04240F0BD80FDF7D5FEA0EB0801286883
:10331000B142EFD941693940C91BB1FA81F149097C
:10332000A142E7D19BE000BF40693840C01BB0FA22
:1033300080F04009A0424FF0000040F0A680FDF769
:10334000B9FE286841693940C91BB1FA81F14909C0
:10335000A142E9D183E000BFB2F5803F24D100BF94
:1033600041693940C91BB1FA81F14909A14240F0D4
:10337000878041693940C91BB1FA81F14909A142ED
:1033800040F07E8041693940C91BB1FA81F1490999
:10339000A14275D141693940C91BB1FA81F149098E
:1033A000A142DDD06CE000BF81693940C91BB1FA90
:1033B00081F14909A14263D181693940C91BB1FA40
:1033C00081F14909A1425BD181693940C91BB1FA38
:1033D00081F14909A14253D181693940C91BB1FA30
:1033E00081F14909A142DFD04AE000BF806938403D
:1033F000C01BB0FA80F04009A04241D146B923E099
:1034000080693840C01BB0FA80F04009A0423BD12F
:10341000FDF750FEA0EB08012868B142F0D98169A0
:103420003940C91BB1FA81F14909A142E8D116E03E
:1034300080693840C01BB0FA80F04009A0424FF0CC
:10344000000018BFBDE8F081FDF734FE28688169EF
:103450003940C91BB1FA81F14909A142E8D10020E4
:103460002021286385F83D1085F83E00296C41F045
:103470002001296485F83C000120BDE8F08100BFEF
:103480000020BDE8F08100BF0020BDE8F081000011
:10349000F0B581B0044600681D4643698FB203EA67
:1034A0000701B94202D1002001B0F0BD41691646C2
:1034B000013201F4806125D0002940D1CEB100BF96
:1034C000FDF7F8FD411B2068B14203D9416939403D
:1034D000B9424BD141693940B942E4D0416949050B
:1034E000EED52CE041693940B942DCD0416949054B
:1034F00025D4FDF7DFFD206841693940B942F1D09C
:10350000202024E0D9B941693940B942CBD0416982
:10351000490514D441693940B942C4D041694905CB
:103520000DD441693940B942BDD04169490506D43D
:1035300041693940B942B6D041694905E3D50168CE
:1035400041F4007101606FF4806141610420002149
:103550002022216384F83D2084F83E10226C104321
:10356000206484F83C10012001B0F0BD2020EEE77B
:1035700070B504460068154650F8143F5A063DD40D
:103580000E4629B926E000BF50F8141F490635D46D
:103590000168C90621D4FDF78DFD411B2068B142A9
:1035A000F2D941694906EFD400202021206384F834
:1035B0003D1084F83E00206C40F0200018E000BF71
:1035C000FDF778FD206850F8141F4906ECD5016816
:1035D000490613D40168C906F2D56FF010010160E5
:1035E00000202021206384F83D1084F83E00206CE8
:1035F0002064002084F83C00012070BD002070BDD4
:1036000070B50368044653F8140F000611D40E4633
:10361000481C29D086BB00BF1868400527D4FDF799
:1036200049FD236853F8140F000639D518680006C1
:10363000F2D5002070BD00BF18680006F9D41868E4
:10364000400514D418680006F3D4186840050ED459
:1036500018680006EDD41868400508D418680006FC
:103660004FF0000048BF70BD18684005E4D56FF406
:1036700080601860042014E0154603E053F8140F2E
:103680000006D6D418684005F1D4FDF713FD401BA1
:103690002368B042F2D958690006EFD4202000E038
:1036A000202000212022216384F83D2084F83E1050
:1036B000226C10432064012084F83C1070BD00008F
:1036C000FEE70000FEE70000704700002DE9F0472C
:1036D00084B0054675208DF80D0062F02F00C7B24A
:1036E00098460C4608702846394602220523FDF705
:1036F000A3FD28B10126304604B0BDE8F08700BF25
:103700004FF47A790DF10D02284639460123CDF8A0
:1037100000900126FEF796F80028ECD103AA28466F
:1037200039460123CDF800900126FDF78DFE0028D3
:10373000E1D19DF80C00682814D16B20ADF80A0087
:103740004FF47A7A0DF10A02284639460223CDF861
:1037500000A0FEF777F858B10126304604B0BDE866
:10376000F08700BF0326304604B0BDE8F08700BFF5
:10377000DDF83090277840F219700DF10E06ADF8A3
:103780000E0000BF2846394632460223CDF800A07D
:10379000FEF758F80028F5D128462146424600F0A9
:1037A000BFF8284621464A4600F00EF9002630466A
:1037B00004B0BDE8F08700002DE9F04184B00E7838
:1037C000884605463B204FF47A740DF109078DF8C1
:1037D000090000BF284631463A4601230094FEF70F
:1037E00031F80028F6D14FF47A740DF10A0700BFC2
:1037F000284631463A4606230094FDF725FE002868
:10380000F6D1BDF80A00BDF80C1000BA000CA8F8FB
:103810000C0008BABDF80E10000CA8F80E0008BA8B
:10382000010C0020A8F8101004B0BDE8F0810000E1
:103830002DE9F04184B00E788846054643204FF4C8
:103840007A740DF109078DF8090000BF284631464A
:103850003A4601230094FDF7F5FF0028F6D14FF416
:103860007A740DF10A0700BF284631463A4606230E
:103870000094FDF7E9FD0028F6D1BDF80A00BDF877
:103880000C1000BA000CA8F8120008BABDF80E100F
:10389000000CA8F8140008BA010C0020A8F81610B3
:1038A00004B0BDE8F08100002DE9F04182B00E784F
:1038B0008846054641204FF47A740DF105078DF8CE
:1038C000050000BF284631463A4601230094FDF723
:1038D000B9FF0028F6D14FF47A740DF1060700BF46
:1038E000284631463A4602230094FDF7ADFD0028F4
:1038F000F6D1BDF80600C0BA02F066FE0021C4F29F
:10390000AA3102F09FFD41F6B861C4F2122102F023
:1039100037FD01460020C8F8181002B0BDE8F0815C
:103920002DE9F04383B00F789146884606461C2067
:103930004FF47A750DF10A048DF80A0030463946C5
:10394000224601230095FDF77DFF0028F6D14FF4B4
:103950007A750DF10B0400BF30463946224601232B
:103960000095FDF771FD0028F6D19DF80B004FF48E
:103970007A7500F0E70040EAC9000DF10B048DF8FC
:103980000B0000BF30463946224601230095FDF763
:1039900059FF0028F6D1B9F1030F11D84FF062504A
:1039A000DFE809F00C02060A4FF0645006E000BFA1
:1039B0004FF0665002E000BF4FF06850C8F80800B2
:1039C000002003B0BDE8F0832DE9F04383B00F7809
:1039D0009146884606461B204FF47A750DF10A047D
:1039E0008DF80A0030463946224601230095FDF73E
:1039F00029FF0028F6D14FF47A750DF10B0400BFB2
:103A000030463946224601230095FDF71DFD00286A
:103A1000F6D19DF80B004FF47A7500F0E70040EA0C
:103A2000C9000DF10B048DF80B0000BF304639467C
:103A3000224601230095FDF705FF0028F6D1B9F1D4
:103A4000030F19D842F22D30C3F6FA30DFE809F03F
:103A50001202080E42F22D30C3F67A400AE000BF8F
:103A60004CF29010C3F6F94004E000BF4CF2901005
:103A7000C3F67950C8F80400002003B0BDE8F08315
:103A800070470000FEF77ABA7047000040F29420B9
:103A9000C2F20000FFF706B8FEE700002DE9F0478C
:103AA00084B0828C044622F00100762840F0038125
:103AB0008846A06A510041F28832012304F1320A9B
:103AC000CDE9013289B2D0220123CDF800A0FDF763
:103AD000A3FF002840F0EF809AF80000602802D091
:103AE000582840F0E880A18CB622A06A8DF80E20FC
:103AF000490042F2107201250DF10E07029289B2BF
:103B0000E022012300970195FEF72CF9002840F0F0
:103B1000D28041F2883600BFA18CA06A490089B2E8
:103B2000F3220123CDE900750296FDF775FF002809
:103B3000F2D19DF80E00C007EED1A18CA06A490019
:103B400041F28835022689B288220123CDE9007628
:103B50000295FDF761FF002840F0AD80BDF80E0032
:103B6000A18C2080A06A490089B28A220123CDE974
:103B700001650097FDF750FF002840F09C80BDF8DC
:103B80000E00A18C6080A06A490041F288350226AF
:103B900089B28C220123CDE900760295FDF73CFF26
:103BA000002840F08880BDF80E00A18CA080A06A9B
:103BB000490089B28E220123CDE901650097FDF706
:103BC0002BFF002877D1BDF80E00A18CE080A06A01
:103BD000490041F28835022689B290220123CDE9BD
:103BE00000760295FDF718FF002864D1BDF80E009D
:103BF000A18C2081A06A490089B292220123CDE9DB
:103C000001650097FDF708FF002854D1BDF80E00AC
:103C1000A16A6081A08C04F10C03942200F028FCBE
:103C2000002848D0A16AA08C04F10E03962200F06F
:103C30001FFC00283FD0A16AA08C04F11003982239
:103C400000F016FCB8B3A16AA08C04F112039A220A
:103C500000F00EFC78B3A16AA08C04F114039C223E
:103C600000F006FC38B3A16AA08C04F116039E2272
:103C700000F0FEFBF8B19AF80000602803D120465E
:103C800000F076FBB8B198F8010098F805108000B4
:103C9000A28C40EA4111A06A8DF80E10510042F248
:103CA00010720123CDE9013289B2F5220123009778
:103CB000FEF758F820B1002004B0BDE8F08700BF3F
:103CC00098F80050012D04BF002588F800509AF89C
:103CD000000098F8029098F80360602813D198F8D3
:103CE0000410A28CA06A8DF80E10510042F21072DE
:103CF0000123CDE9013289B2F22201230097FEF7B8
:103D000031F80028D7D14FEA890040EA4610A28C4A
:103D100040EA0501A06A8DF80E105100012242F21E
:103D20001076CDE9007289B2F42201230296FEF7E3
:103D300019F8B0FA80F0400904B0BDE8F08700003F
:103D4000032101804FF00331C0F8021070470000DA
:103D50002DE9F04F8DB0054690F832009B46144691
:103D600060288A4608D0BBF1000F4FF0000018BF52
:103D7000CBF800004FF0000BA98C0822A86A49007C
:103D8000BBF1000F08BF06220BAB41F28837CDE92B
:103D9000003289B2F72201230297FDF73DFE8046EB
:103DA00030B1B8FA88F040090DB0BDE8F08F00BF1F
:103DB0009DF830009DF82F1000019DF8312040EA59
:103DC000013040EA12112A88B5F90460C2EB1010E4
:103DD0004043C908B5F90230000BA1EB4201704322
:103DE0005943801300EBE12EB5F90A70AEF5FA33B2
:103DF00083FB03190A94A1FB0726FC1701FB046649
:103E0000B5F9080009FB0766120A80FB030442EAC1
:103E10000662EF8812EB0032A2FB072C9DF82C20E3
:103E200008929DF82D2009924FEA043242EA105080
:103E30009DF82E2040EB262000F5004007920EEB67
:103E40008E0200FB07C680321012721042EAE6773B
:103E5000002FCAF8000077D0B5F910700DF1100AE4
:103E6000A1FB07408AE811400020CFF6F070089CC3
:103E700000F57F206043079CB5F90EC04FEA141A85
:103E8000049C83FB0C3E4FEAE77C01FB0C41099C40
:103E900009FB07114AEA0414001B059C00F5801079
:103EA0004708D4EBC07067EB010A4FEA4E41B0EB14
:103EB0004340B5F90C7041EAD33140F6354C6AEB1A
:103EC0000101A0FB0C04A1EBC70101FB0C41B5F9FA
:103ED0001290F317FCF788F9420B42EAC142A2FBA9
:103EE00002374C13B5F9166002FB047EA3FB06C72C
:103EF00002FB04EEF41703FB0473B5F914700EFB18
:103F00000633A0FB0742FE1700FB06224FEA5C6661
:103F100001FB07224FEA636E46EAC313E70C47EA48
:103F20004237C01841EB0E01C01941EBD241000AE3
:103F3000DDF818E040EA016000EB09100A99BBF1D6
:103F4000000F086007D12CE700200A99BBF1000F91
:103F500008603FF426AF9DF833009DF832108003CF
:103F600040EA8150E98B0023CFF6F073B5F92020A9
:103F700001FB0300AEF5963101FB120095F92220FA
:103F80002B7F4A4359434FF40043921203EBE12144
:103F900051434FF40012B5F91A3002EBA1215943F5
:103FA00000F5804001F50051C01389134843C11347
:103FB00049432A7EC9095143A0EB111020EAE07061
:103FC000B0F1C85F28BF4FF0C850000BCBF800001D
:103FD000B8FA88F040090DB0BDE8F08FF0B583B0B5
:103FE0001C4616460F466B4602A901AA002C08BFC4
:103FF0002346FFF7ADFE0546D0B1029802F0E4FA81
:104000000021C4F2C82102F01DFA01993860084667
:1040100002F0F2FA4FF06E5102F002FB30603CB158
:10402000009802F0E9FA4FF06A5102F0F9FA2060C4
:10403000284603B0F0BD000094B0FDF7ADFF0024AA
:104040000120CDE90F44CDE90D440A900E904FF4C4
:10405000E0104FF48031022513900AA8CDE90B142B
:10406000CDE91151FEF74AF920B1EFF3108072B695
:10407000FEE700BF0F20CDE904054FF48060CDE9D5
:10408000070404A802210694FEF730F820B1EFF3EC
:10409000108072B6FEE700BF41F21800C4F20200C1
:1040A000016845F2004841F020010160016848F2D2
:1040B000A06701F020010A910A990168C4F2000882
:1040C00041F0080101600168C0F2010701F0080138
:1040D0000A910A990168002641F004010160006814
:1040E0004FF4804500F004000A900A9840F2EC106A
:1040F000C2F20000C0E90087C0E90266C0E90456C8
:10410000C0E906660662FCF7DBFF28B1EFF310801A
:1041100072B600BFFEE700BF40F2402408F58060A1
:10412000C2F20004C4E900072046C4E90266C4E9FB
:104130000456C4E906662662FCF7C2FF20B1EFF31D
:10414000108072B6FEE700BF40F29420002108F50F
:104150005842C2F2000048F69F4340F2CF778026D3
:104160000D91CDE90B11CDE90411C0E90023C0E99F
:104170000217C0E904118661FEF7F2FA20B1EFF3ED
:10418000108072B6FEE700BF4FF480500A9040F2F4
:104190009420C2F200000AA9FEF7B4FB20B1EFF3AD
:1041A000108072B6FEE700BF40F29420C2F2000019
:1041B00004A9FEF797FA28B1EFF3108072B600BF9A
:1041C000FEE700BF40F2DC2008F56441C2F20000C7
:1041D00000230C274FF4E13280E80E00C0E90333DE
:1041E000C0E90573C361FEF72BFD28B1EFF3108022
:1041F00072B600BFFEE700BF40F29420C2F200009A
:10420000FEF748FB40F27007C2F2000707F17405A1
:104210002846FFF795FD762107F14800A7F86C10B6
:1042200029463C67CDE90205FFF738FC70BB3FA08B
:1042300000F1100B40F2EC044168D0E902599BE810
:10424000000D868BC2F2000401913848211D2060C8
:1042500001981D2281E8210204F1100080E8000D80
:104260001D20B88140F2DC20C2F2000021464FF44C
:104270007A73A683FEF794FD4FF4FA60FCF7F8FD1D
:10428000DDE90201FFF70AFC0028DED097F87A008A
:1042900040F2EC042DA12FA2C2F20004582808BF5E
:1042A0000A462EA12046FBF7D9FFB88182B240F220
:1042B000DC20C2F2000021464FF47A73FEF770FD55
:1042C00040F2EC15032607F12C04C2F20005387CFD
:1042D000C00705D00120FCF7C9FC387CC007F9D124
:1042E00028462146002203230096FFF7EFF93220EB
:1042F000FCF7BEFD28462146FFF75EFA388FD7F857
:104300003A103880C7F8021028462146FFF7CCFA49
:10431000786C214678612846FFF78AFAF88F396C65
:10432000F880B960387CC007DAD0D3E7424D50320C
:10433000383020696E697469616C697A6174696F7B
:104340006E206661696C65640A000000424D45326A
:1043500038300000424D503238300000424D50326B
:1043600038303A20666F756E642025730A000000AD
:104370002DE9F04786B0828C044600F11801806A6E
:104380005200012341F28835CDE9001391B2A122F8
:1043900001230295FDF740FB002857D1A18CA06AAC
:1043A000490002220DF11203CDE9003289B2E12267
:1043B000012302950125FDF72FFB002846D1BDF80A
:1043C0001200A28C608304F11C01A06A520041F229
:1043D0008836CDE9001591B2E32201230296FDF75C
:1043E0001BFB98BBA18CA06A490005AA022500927C
:1043F00089B2E422012302960195FDF70DFB28BB4B
:10440000A18CA06A49000DF116029DF814809DF858
:10441000156041F288378DE8A40089B2E5220123B6
:104420000125FDF7F9FA88B9A28C04F12201A06AEE
:1044300052009DF816909DF817A0CDE9001591B295
:10444000E72201230297FDF7E7FA18B1002006B032
:10445000BDE8F08749EA0A2006F00F0141EA081199
:104460000009E1832084012006B0BDE8F087000048
:1044700070B584B01E460B46400002210DF10E05BA
:1044800041F28834CDE9005181B2184601230294EB
:10449000FDF7C2FA20B1B0FA80F0400904B070BD57
:1044A000BDF80E103180B0FA80F0400904B070BD44
:1044B0005FEA400C08BF91F0000F4FEA8C234FEAEF
:1044C000C12243EA51514FEA1C5018BF00F5F04099
:1044D0004FEA300018BF41F000415FEA6C5C00F029
:1044E0002980BCF1FF3F08BF40F080407047130CAB
:1044F00006BF12044FF0100C4FF0000C130E04BF57
:1045000012020CF1080C130F04BF12010CF1040C81
:10451000930F04BF92000CF1020CD30F04BF5200A2
:104520000CF1010C11464FF00002A0F11F00A0EBAE
:104530000C00704711F0004F08BF704731F0004188
:104540003FF4D5AF0B0C06BF09044FF0100C4FF031
:10455000000C0B0E04BF09020CF1080C0B0F04BF7A
:1045600009010CF1040C8B0F04BF89000CF1020C43
:10457000CB0F04BF49000CF1010CCCF1200322FA4F
:1045800003F341EA030102FA0CF2A0EB0C0000F184
:104590000100704723F07F4720F07F4C80EA030042
:1045A00000F00040ACEB070303F57C5303F1FF037D
:1045B0002DE9804909B44FEA144324EA03484FEA3D
:1045C000154B25EA0B4E0FF2042606EB13273E7817
:1045D00003FB0667C7F5000707FB06F64FEAD6465A
:1045E00006F102064FEA543707FB066CCCF1005C7B
:1045F0004FEA1C472CEA074C0CFB06F507FB06F4B8
:1046000004EB15464FEA961649085FEA320234BFBA
:1046100000204FF000404FEAD13706FB07FC4FEA7D
:104620001C4C0CFB0BF7D21B03FB0CF761EB0701D7
:104630000CFB0EF7B0EB074072EB17420CFB08F7D0
:1046400034BFA2EB0742B2EB074261EB17414FEADE
:104650000C444FEA910706FB07FC4FEA1C4C0CFB8D
:104660000BF7B0EBC74072EB573203FB0CF734BFCC
:10467000A2EBC742B2EBC74261EB57310CFB0EF71E
:10468000B0EBC70072EB57720CFB08F734BFA2EB1C
:10469000C702B2EBC70261EB57714FEA816141EA91
:1046A00092114FEA826242EA90124FEA806004EB74
:1046B000CC04039F4FEAD13706FB07FC4FEA1C4CA2
:1046C0000CFB0BF7D21B03FB0CF761EB07010CFB98
:1046D0000EF7B0EB074072EB17420CFB08F734BF44
:1046E000A2EB0742B2EB074261EB17414FEA8C5550
:1046F00004EB9C244FEA910706FB07FC4FEA1C4C95
:104700000CFB0BF7B0EBC74072EB573203FB0CF717
:1047100034BFA2EBC742B2EBC74261EB57310CFB8F
:104720000EF7B0EBC70072EB57720CFB08F734BF03
:10473000A2EBC702B2EBC70261EB57714FEA81618E
:1047400041EA92114FEA826242EA90124FEA806097
:1047500015EB4C2544F100044FEAD13706FB07FC6A
:104760004FEA1C4C0CFB0BF7D21B03FB0CF761EB65
:1047700007010CFB0EF7B0EB074072EB17420CFB86
:1047800008F734BFA2EB0742B2EB074261EB1741D7
:104790004FEA813141EA92414FEA823242EA904245
:1047A0004FEA80304FEA0C7615EB1C1544F10004FB
:1047B00048EA03434EEA0B484FF0000EB2EB080CF8
:1047C00071EB030724BF624639464EEB0E0E4FF0E5
:1047D000000B0018524149414BEB0B0BB2EB080C9C
:1047E00071EB03077BF1000B24BF624639464EEBA9
:1047F0000E0E4FF0000B0018524149414BEB0B0BD2
:10480000B2EB080C71EB03077BF1000B24BF62468F
:1048100039464EEB0E0E51EA020718BF46F001066C
:1048200016EB0E7655F1000254F1000103D5BDE8F8
:104830008901BDE80088BDE88901BDE80048B619D6
:10484000524141EB0101A3F10103704780807F7E5B
:104850007D7C7B7A797877767675747372717170F6
:104860006F6E6E6D6C6C6B6A6A69686867666665A8
:104870006464636362616160605F5F5E5E5D5D5C36
:104880005C5B5B5A5A5959585857575656555555A7
:104890005454535352525251515050504F4F4F4E07
:1048A0004E4D4D4D4C4C4C4B4B4B4A4A4A49494955
:1048B0004848484747474746464645454544444497
:1048C0004443434343424242424141419C46002BC0
:1048D00030D477002BD04FEA37071CB503B44FF024
:1048E00010004FF01001BAF1000F06D0BCF1000F1C
:1048F000DCBF40F0080040F008014FF000000FBCA2
:10490000BDE810400BF1010BBBF1010F08BF5FEADE
:10491000170722BF12F1010211F101014FF000410E
:1049200043F1000300F0004043EA00007047F9D370
:104930005708D0E746EA06464FEA164613F1400FFD
:104940001FDD13F1200FDFBF16430A46002120337D
:104950005B42BED0C3F1200746EA06464FEA164640
:1049600002FA07F746EA070622FA03F2C3F1200724
:1049700001FA07F742EA070221FA03F14FF00003B8
:10498000A7E746EA020646EA06464FEA164646EA20
:104990000106BCBF46EA0646360C4FF000034FF056
:1049A00000024FF0000194E72DE9804C70B49A4664
:1049B000934691E8380007C831EA400C48BF34EA12
:1049C000430C03D5FFF7E6FDFFF780FFF0BCBDE821
:1049D000008C2DE9804C70B49A46934691E83800DB
:1049E00007C810F0804F08BF13F0804F03D100F0CC
:1049F00005F8FFF76BFFF0BCBDE8008C20F07F47A7
:104A000023F07F4C80EA030000F0004007EB0C032A
:104A1000A3F57C53A3F1FE0392F0000F00F0B380E6
:104A200095F0000F00F077802DE901494FEA114021
:104A300021EA00484FEA144624EA064700FB06FC38
:104A400008FB06F607FB08F818EB06484CEB164C7B
:104A500000FB07F718EB07484CEB17404FEA124BE7
:104A600022EA0B4E4FEA154625EA06470BFB06FCE9
:104A70000EFB06F607FB0EFE1EEB064E4CEB164C2D
:104A80000BFB07F71EEB074E4CEB174B18EB0B0815
:104A900040F1000018EB0E0B58EB000840F100004D
:104AA0008F1A4FF000014FF000063CBFC943661B50
:104AB00014BFB5EB040C00213CBFC943F61B4FEA01
:104AC000174427EA04454FEA1C472CEA074C04FB2D
:104AD000076205FB07F70CFB05F616EB074642EBF2
:104AE000174204FB0CFC16EB0C4642EB1C421BEB82
:104AF000060658EB020241414EEA8E0E46EA9E0639
:104B000001D5BDE80189B619524141EB0101A3F17C
:104B10000103BDE801894FEA144524EA05464FEA3E
:104B2000114721EA074C05FB07F406FB07F70CFBCE
:104B300006F111EB074144EB174405FB0CFC11EBAC
:104B40000C4144EB1C444FEA124722EA074C05FB98
:104B500007F206FB07F70CFB06F616EB074642EBDF
:104B6000174205FB0CFC16EB0C4642EB1C456A1881
:104B700054F1000148BF7047B619524141EB0101A1
:104B8000A3F10103704795F0000F37D04FEA1142AF
:104B900021EA02464FEA144724EA074C02FB07F1D8
:104BA00006FB07F70CFB06F414EB074441EB174137
:104BB00002FB0CFC14EB0C4441EB1C414FEA154783
:104BC00025EA074C02FB07F506FB07F70CFB06F688
:104BD00016EB074645EB174502FB0CFC16EB0C46A3
:104BE00045EB1C42121951F1000148BF7047B6193C
:104BF000524141EB0101A3F1010370474FEA144513
:104C000024EA05464FEA114721EA074C05FB07F164
:104C100006FB07F70CFB06F212EB074241EB1741CC
:104C200005FB0CFC12EB0C4251EB1C414FF0000653
:104C300048BF7047921841EB0101A3F1010370478F
:104C4000490050EAC12018BF04204A0D18BF40F0A7
:104C5000010040F2FF72B2EB515F08BF40F002006A
:104C6000012808BF052070472DE9F0414F1E00EBD9
:104C7000C7010446D1E9000115461E4637F0060279
:104C80000DD02A46334601F03BF87F1E04EBC703E4
:104C9000D3E9002300F0CAFD37F00602F1D1022F5C
:104CA00025D0042F13D0062F18BFBDE8F0812A4667
:104CB000334601F025F8D4E90A2300F0B7FD2A466F
:104CC000334601F01DF8D4E9082300F0AFFD2A4671
:104CD000334601F015F8D4E9062300F0A7FD2A4673
:104CE000334601F00DF8D4E9042300F09FFD2A4675
:104CF000334601F005F8D4E9022300F097FD2A4677
:104D0000334600F0FDFFD4E90023BDE8F04100F098
:104D10008DBD0000002213461046014900F042BE3E
:104D20000000F03F00F082BD0022134610461146FD
:104D300000F038BE40F2013200204FF0E04101F0B7
:104D4000E4BD0000024A0020110701F0DEBD0000B2
:104D500001FDFFFF30380A2801D2012070470020F2
:104D6000704700002DE9F04D1D460C4694B01746E3
:104D700021F0004123F00043002814BF4FF0010C44
:104D80004FF0000C0CEB440CFB4A0CEB02064FEA14
:104D9000620C66452BD33E0018BF012606EB450684
:104DA0001644F64A964222D3F54A53EA070C02D03B
:104DB000944205D148B914B000201146BDE8F08DE9
:104DC000002808BF4FF0000C01D04FF0010C0CEB95
:104DD000440212F5001F0AD8002F14BF4FF0010C37
:104DE0004FF0000C0CEB450212F5001F07D914B070
:104DF0003A462B462146BDE8F04DFFF793BF00220F
:104E0000DFF880A3002CB8BF534526DADFF878C35B
:104E10006345A8BF022220DADFF864C39C451CDC8E
:104E2000DFF868C30CEB235CBCF1140F08DDCCF198
:104E3000340627FA06FC0CFA06F6BE420DD108E04D
:104E40005FB9CCF1140623FA06FC0CFA06F69E4272
:104E500003D10CF00102C2F1020251EA000C19D197
:104E6000002D17DA002C18BF022A01D0012A07D022
:104E70000220FBF739FB14B0BDE8F04DFFF74ABF45
:104E80000220FBF731FBFFF745FF14B081F0004132
:104E9000BDE8F08DB7F1000C6CD1534525D104F17C
:104EA000804212F5801201BF00280020B44914B0DE
:104EB00008BFBDE8F08DB248884207DC002DA1BFD5
:104EC0006046294614B0BDE8F08D07E0002DBFBF55
:104ED000604685F0004114B0BDE8F08DAC497944DE
:104EE000D1E9000114B0BDE8F08DDFF894C263454C
:104EF00025D1002D1FDA19B1514512D1D8B909E0D9
:104F0000002840F0F6829F4A214614B062F31E0149
:104F1000BDE8F08D0020214614B060F31E01BDE80D
:104F2000F08D08DA14B02346BDE8F04D02460020AB
:104F3000614600F037BD14B02146BDE8F08D514503
:104F400018DAB5F1804F0DD0A5F1005CBCF1FF5C23
:104F500010D1B4F1000C0DDB14B06146BDE8F04D8A
:104F600000F0F6BB234614B00246BDE8F04D1946EA
:104F700000F0C6BE060024F0004C3BD1D9B151452B
:104F800033D1002C06DD002DA1BF0020514614B006
:104F9000BDE8F08D002C01DD002D1BDB002C13DAA9
:104FA000002D11DB012A4FF0000014BF754979492B
:104FB00014B0BDE8F08D022A18BF002C0AD0012AD7
:104FC00008D1002C06DA0AE0002CB8BF002D11DA57
:104FD000012A04D0002014B00146BDE8F08D14B0C1
:104FE00000204FF00041BDE8F08DA1F14050B0F13C
:104FF0007F601AD0012000EBE47050EA020421D057
:105000005F4C521E4FF0000B104304BF4FF0000BDB
:10501000614C624883427DDD614A6248934229DDEA
:10502000884217DB002D2FDB41E0002C00DA4AB16B
:10503000022A0CBF01204FF0FF3014B0BDE8F04D44
:1050400000F00ABE0120FBF74FFA14B0BDE8F04DA6
:10505000FFF76ABE4A4A8A420CDC002D14DC0220AB
:10506000FBF742FAFFF76EFE61F31E0414B021460F
:10507000BDE8F08D814202DA002D18DA04E0404BE1
:10508000994220DD002D12DD0220FBF72DFAFFF7FB
:1050900051FE05460E46002253465846214600F072
:1050A0002FFE14B066F31E012846BDE8F08D0220E5
:1050B000FBF71AFAFFF746FE0A46214614B062F3E0
:1050C0001E01BDE8F08D00223046614601F03EF839
:1050D000064688466FF0010201F017FC4FF055328A
:1050E000314B00F041FF3246434600F009FE0022FA
:1050F0002E4B00F039FF8A46324643460290104656
:10510000194600F0FDFD5346029A00F0F9FD824673
:10511000324600E054E0059143464FF0C040244938
:1051200000F0EEFDCDE90C01224A214B50460599D5
:1051300000F0E6FD824601911F4A204B3046414671
:1051400000F0DEFD5246019B01F000F882460B465E
:1051500002460991DDE90C0100F068FBDDE90C2352
:1051600000268846304600F0F1FF5246099B00F0C9
:10517000FBFE024600F07EB9FFFF1F00FFFF0F009D
:105180000000F03F0000F07F0000404301FCFFFF03
:105190003E1B00000000F0FF0000F0BF0000E041F7
:1051A0000000F043FFFFEF3F5555D53F0000E03FC3
:1051B0004715F73FFE822B6544DF5DF80BAE543E8A
:1051C0000020B1F5801F07DA35223046614601F034
:1051D0009CFB06466FF0340000EB2150A0F2FF303C
:1051E0000190C1F3130040F07F6141F04051029102
:1051F000FE498842D8BF002004DDFD498142C8BF76
:10520000012001DD0F9008E000200F900198401C64
:1052100001900298A0F5801002900299F548784418
:1052200005910F9900EBC1001290D0E900233046A0
:10523000059900F08BFFCDE90C011298D0E900230D
:105240003046059900F0F2FA02460B460020EA4982
:1052500000F0A8FB0B46CDE908010246DDE90C0190
:1052600000F04EFD0A90E5488A464FF00008784469
:105270000299006810904FF0005040EA61010F98C9
:1052800001EB804000F5002112981191D0E9002334
:10529000109800F05BFF3246059B00F065FE424629
:1052A000534600F02DFDDDE91023064603914046EC
:1052B000514600F025FDDDE90C2300F055FE324695
:1052C000039B00F043FFDDE9082300F019FD039183
:1052D0000A9A129053461046194600F011FD0646F0
:1052E0000246C7480B46029106217844FFF7BCFCF2
:1052F000029B3246059108901046194600F000FDC9
:10530000059B089A00F0FCFC06460991534640466E
:1053100019460A9A00F08AFA039B129A00F0F0FCF0
:105320003246099B00F082FACDE908014246534615
:105330001046194600F0E4FC02460B460291049028
:105340000020B04900F072FADDE9082300F06EFA9F
:105350000E464246AB4B404600F0F8FE029B049AD4
:1053600000F0F4FEDDE9082300F0FEFD4246049162
:10537000029033461046514600F0C2FCCDE90C01C4
:1053800053460A9A0499029800F0BAFC82460091AA
:10539000334642460399129800F0B2FC5246009BF5
:1053A00000F044FA82460B4602460991DDE90C0101
:1053B00000F03CFADDE90C2300268846304600F078
:1053C000C5FE5246099B00F0CFFDCDE908014346DA
:1053D00032464FF060408C4900F092FC82460491C6
:1053E000DDE90801894A884B00F08AFC02910090AF
:1053F000434632468648874900F082FC029B009A69
:1054000000F014FA844B7B440F9A03EBC203D3E9F8
:10541000002300F00BFA00900291019800F01CFCB0
:105420000E9003915046029B009A049900F0FEF9F9
:105430007A4A7A440F9B02EBC3030993D3E9002312
:1054400000F0F4F9039B0E9A00F0F0F9884630461C
:10545000039B0E9A00F07AFE099BD3E9002300F02B
:1054600075FE5246049B00F071FE029B009A00F00C
:105470007BFD024600200B4602903846294600F08C
:105480003FFC824603912B4638461946029A00F0AB
:105490005DFE3246434600F033FC5246039B00F06B
:1054A000C5F907468A46324643462946029800F027
:1054B00027FC05460E463A46534600F0B7F9584ACF
:1054C0008846914221DBA8EB020353EA000210D187
:1054D0002A46334600F03AFECDE90310514A524BBA
:1054E0003846514600F0A2F9DDE9033200F006FD2E
:1054F00021D20220FAF7F8FFFFF71CFC0A462146EA
:1055000014B062F31E01BDE8F08D484B28F0004254
:105510009A4210D3464A08EB020353EA00027FF492
:10552000C6AD2A46334600F011FE3A46534600F017
:10553000E5FC7FF6BCAD0022019228F000403D4919
:105540003D4A01EB2051824223DA481C4FF480117E
:1055500021FA00F04044394AC0F30A517A44384BEA
:10556000A1F2FF31CB4020EA0303C0F3130040F463
:105570008010C1F11401C84012680190B8F1000F09
:10558000BCBF404201902846314600F0DFFD054691
:105590000E462A4633463846514600F047F94FF04A
:1055A00000084246274B4046039100F0A9FBCDE995
:1055B0000C01254A254B4046039900F0A1FB0291BE
:1055C00000902A4633464046039900F0BFFD3A4614
:1055D000534600F0C9FC1E4A1E4B00F091FB029B93
:1055E000009A00F023F90746884635E08E980300BC
:1055F0007AB60B00761700000000F03FAE170000EF
:10560000DA1600000000084009C7EE3FFD033ADC4F
:10561000F5015B14E02F3EBEAE15000072150000D0
:1056200000009040FE822B654715973C00CC9040CF
:1056300000346F3F01FCFFFF0000E03FC01400009A
:10564000FFFF0F00432EE63F396CA80C615C20BEC3
:10565000EF39FAFE422EE63F02460B46DDE90C0129
:1056600000F0E4F8DDE90C2305460E4600F06EFD7F
:105670003A46434600F078FC07462A4633460591F1
:105680001046194600F03CFB824602462E488846EA
:105690000B4605217844FFF7E7FA5246434600F0EF
:1056A0002FFB2A46334600F05FFC80468A463A4686
:1056B00028463146059B00F023FB3A46059B00F047
:1056C000B5F80591009000224FF0804340465146C6
:1056D00000F03CFD074603914246534628463146BA
:1056E00000F00EFB3A46039B00F05CF9059B009A24
:1056F00000F02CFD2A46334600F028FD0022134B13
:1057000000F032FC054601980E4601EB00510815E9
:10571000002810DC28463146019A01F0F6F8FFF720
:105720008FFA042808BFFFF70DFB28463146019A7F
:1057300001F0EBF805460B4614B02A4658462146C0
:10574000BDE8F04D00F0DCBA601300000000F03F4F
:105750002DE9F04106460F4600F012FC041E0D46EE
:1057600018BF0120284320F00040C0F17F6000F105
:10577000E040C00F0ED0301C18BF0120384320F08D
:105780000040C0F17F6000F1E040C00F04BF012085
:10579000FAF7AAFE20462946BDE8F08110B5002997
:1057A0000AD00878002807D005487844FBF716FA95
:1057B000002801D0002010BD0248784410BD000030
:1057C0005E1300005613000021F0004201F0004378
:1057D000A2F16052B2F5801F28BFD2F17F6C0BD9C5
:1057E0005FEA001C43EAC20242EB507018BF7047E8
:1057F00028BF20F001007047B2F5801FBCBF1846DB
:1058000070474FEA410C1CF5001F02D2084600F019
:10581000CEBF70B500F01EFB00000089FFF7F6BF99
:105820004FF00040A0F580007047000010B591EAED
:10583000030F48BF83F0004300F19084841A71EB9A
:10584000030C05D2121943EB0C03001B61EB0C0196
:105850004FEA1154A4EB135CDFF81CE11EEA430F7E
:1058600018BF9EEA445F00F0748021EA045123EAE5
:105870000E0343F48013DCF1200E32D322FA0CFE27
:1058800010EB0E0023FA0CFE41EB0E01CCF1200EC2
:1058900003FA0EFE10EB0E00CCF1200E51F10001C8
:1058A000B1F5801F32D201EB045112FA0EF2BDE8BD
:1058B000104058BF7047401C38BF5FEA420218BF13
:1058C0007047002814BF20F0010041F100014FEAA9
:1058D000410313F5001F38BF7047A1F1C04100F02C
:1058E00007BB012A43EB0302ACF1200CDCF11F0ED5
:1058F00032BF4FF0000E23FA0CF310EB030041EB24
:105900000451B4EB115FD0D0A1EB045101F580112B
:10591000490801EB04515FEA30000ED350F100005A
:1059200038BF12FA0EFE08D1BDE81040C9E7401C8E
:1059300038BF5FEA4202CAD1C3E7BDE810404FEA70
:10594000410313F5001F38BF7047A1F1C04100F0BB
:10595000CFBA9EEA445F08D011EA5E0FBDE810405E
:1059600004BF01F0004100207047BDE8104070B551
:1059700000F070FA64FBBE3E0000E0FF02494FF009
:10598000000000F090BF00BF0000F87F491058BF32
:10599000C1F140415B1058BFC3F140438B42EFF36C
:1059A000008070472DE9C04130B4DFF8A4C23CEA62
:1059B000111418BF3CEA131400F0ED801CEA111416
:1059C00081EA030544EAD57418BF1CEA131500F0F8
:1059D000C880A4EB050404F17F7404F500344FF093
:1059E000004545EAC12145EAC32341EA505143EA53
:1059F00052534FEAC0204FEAC222994208BF904258
:105A000000F09D804FEA13650FF24416765D4FEA71
:105A1000134506FB05F7C7F1807706FB07F74FEA4A
:105A2000D737A7FB03687642A7FB06CEC8F58038B8
:105A300038BFA8F1010807FB08E6A6FB028C4FF06F
:105A4000000EE6FB03CEDCF1000CCEF1004E38BFB9
:105A5000AEF1010EA6FB0C584FF00007E6FB0E87D7
:105A6000A1FB08C6A0FB07CE16EB0E064FF0000503
:105A700045F10005E1FB076515F1E04E7EBFA4F599
:105A800080345FEA46066D4116F1800745F1000556
:105A90004FEA172747EA05674FEA15254FEA0666DA
:105AA000A6F1DE46B6F1805F20D9384605EBC47119
:105AB00024F0010C01EB0C11BCF1FE6F02D8F0BC1C
:105AC000BDE8008124425CBF01F5801E9EEAC47FD0
:105AD00002D4F0BCBDE80081244200F13980A1F17C
