:020000040800F2
:10000000E806002089010008A50E00089D0E0008E2
:10001000A10E00084502000891140008000000002D
:10002000000000000000000000000000851400082F
:100030004902000800000000A90E00088914000809
:10004000A3010008A3010008A3010008A301000800
:10005000A3010008A3010008A3010008A3010008F0
:10006000A3010008A3010008A3010008A3010008E0
:10007000A3010008A3010008A3010008A3010008D0
:10008000A3010008A3010008A3010008A3010008C0
:10009000A3010008A3010008A3010008A3010008B0
:1000A000A3010008A3010008A3010008A3010008A0
:1000B000A3010008A3010008A3010008A301000890
:1000C000A3010008A3010008A3010008A301000880
:1000D000A3010008A3010008A3010008A301000870
:1000E000A3010008A3010008A301000800F002F822
:1000F00000F03AF80AA090E8000C82448344AAF188
:100100000107DA4501D100F02FF8AFF2090EBAE885
:100110000F0013F0010F18BFFB1A43F0010318473B
:10012000903F0000B03F0000103A24BF78C878C16B
:10013000FAD8520724BF30C830C144BF04680C60ED
:10014000704700000023002400250026103A28BF35
:1001500078C1FBD8520728BF30C148BF0B60704739
:100160001FB51FBD10B510BD00F037F81146FFF7E1
:10017000F7FF01F027FA00F055F803B4FFF7F2FF9C
:1001800003BC00F059F800000948804709480047BF
:10019000FEE7FEE7FEE7FEE7FEE7FEE7FEE7FEE737
:1001A000FEE7FEE704480549054A064B7047000094
:1001B0008D140008ED000008E8000020E80600208B
:1001C000E8020020E80200207047704770470000F6
:1001D000004870472800002070477546FFF7F8FF79
:1001E000AE4605006946534620F00700854618B024
:1001F00020B5FFF7D7FFBDE820404FF000064FF0D5
:1002000000074FF000084FF0000BAC46ACE8C00907
:10021000ACE8C009ACE8C009ACE8C00921F00701AE
:100220008D46704710B50446AFF300802046BDE808
:100230001040FFF7A2BF000001491820ABBEFEE747
:1002400026000200FEE7000070470000B0B504463B
:1002500000F024F9054640F20000C2F200000078E8
:10026000611C18BF044400BF00F018F9401BA042F5
:10027000FAD3B0BD2DE9F04F82B00E68002E00F029
:10028000038141F20042C4F20102042340F2004E15
:10029000904208BF03234FF6FF7CC4F2010E009387
:1002A00000240123C1F2100C4FF0000A4FF00009A6
:1002B00049E000BF012704F00C030F229A402BEA0B
:1002C000020207FA03F34FEA9A051A4346F825207B
:1002D000D1F804B040F20C455FEACB22DEF80820EA
:1002E00054BF22EA080242EA0802C4F20105CEF82D
:1002F00008202A685FEA8B2354BF22EA080242EAF8
:1003000008022A605FEA8B33DEF8042054BF22EA39
:10031000080242EA08025FEACB33CEF80420DEF896
:1003200000204FF0010354BF22EA080242EA08020B
:10033000CEF800200E680AF1010A36FA0AF204F13A
:10034000040400F0A18003FA0AF816EA080FF1D0BD
:100350004E68664512DC122E56D8DFE806F0350BE3
:100360004549555555555555555555555555554D61
:10037000510000BFD1F80C9046E000BF4FF6FF726D
:10038000C1F2210296420FDC0022C1F21102964214
:100390001AD00022C1F21202964215D00022C1F2F8
:1003A0002102964210D02FE00022C1F22202964292
:1003B0000AD00022C1F23102964205D00022C1F2D9
:1003C0003202964220D100BF8A684AB1012A14BF86
:1003D000C0F81480C0F810804FF0080914E000BF86
:1003E0004FF0040910E000BFCA6802F108090BE0F1
:1003F0004FF0000908E000BFCA6802F1040903E0F9
:10040000CA6802F10C0900BF22460646BAF1080F7D
:1004100024BF203A043637680F25954027EA0505A2
:1004200009FA02F22A433260CA79D2067FF582AF16
:1004300041F21803C4F202031A68AEF57E7642F068
:1004400001021A601A6802F001020192019A2AF070
:10045000030256F802B040F60002C4F201029042D4
:1004600010D040F60042C4F2010290423FF422AFA5
:1004700041F20002C4F20102009F904208BF02272D
:1004800019E700BF002716E702B0BDE8F08F0000B3
:10049000002A08BF090401617047000040F2E00033
:1004A000C2F200000068704740F2000040F2E00134
:1004B000C2F20000C2F2000100780A68104408602D
:1004C0007047000080B542F20000C4F202000168EB
:1004D00041F010010160032000F07AF80F2000F0D5
:1004E00005F800F027F8002080BD000070B540F24C
:1004F0000006C2F2000640F220013278C2F200018A
:100500004FF47A730968B3FBF2F20446B1FBF2F1DF
:10051000084600F0ADFC0F2C4FF0010508D838B9A3
:100520004FF0FF3021460022002500F025F87460CE
:10053000284670BD82B041F21800C4F20200016882
:10054000022241F001010160016801F00101019105
:100550000199416841F080514160406800F080504D
:10056000009000980420C4F20100016862F31A614F
:10057000016002B07047000010B54EF60C5CCEF280
:10058000000CDCF80030C3F3022E8EF00704042CBC
:1005900028BF0424BEF103034FF0FF3E0EFA04F41B
:1005A00038BF0023A14399400EFA03F39A43114345
:1005B00000F00F0200F160430901043A03F56443BF
:1005C0006244002848BF02F10C03197010BD0000FE
:1005D0004EF60C51CEF200010A684FF6FF031A40A6
:1005E00060F30A2242F0806040F0FD7008607047BE
:1005F0002DE9F04381B0002800F0858042F2000828
:10060000C4F202080446D8F800000D4600F00700C6
:1006100088420CD2D8F8000020F007002843C8F820
:100620000000D8F8000000F00700A8426BD1206855
:1006300041F204098107C4F2020917D5410705D523
:10064000D9F8001041F4E061C9F80010010705D5A0
:10065000D9F8001041F46051C9F80010D9F8001021
:10066000A26821F0F0011143C9F80010C00741D180
:10067000D8F8000000F00700A8420CD9D8F8000014
:1006800020F007002843C8F80000D8F8000000F068
:100690000700A84237D12068410707D5D9F80010D4
:1006A000E26821F4E0611143C9F80010000708D5A1
:1006B000D9F80000216920F4605040EAC100C9F86F
:1006C0000000D9F8002002F00C00082841F20020B8
:1006D000C0F27A0050D144F22A03C2F38341C0F63B
:1006E0000003595CD2033BD440F60010C0F23D0039
:1006F000484341E0606802280AD001282AD159F80D
:10070000041C890308D4012001B0BDE8F08300BFB8
:1007100059F8041C8901F6D5D9F8001021F003011D
:100720000843C9F80000FFF7B9FE064641F28837D2
:10073000D9F80000616800F00C00B0EB810F97D091
:10074000FFF7ACFE801BB842F2D9032001B0BDE830
:10075000F08300BF59F8041C8907D4D5DCE700BF3B
:10076000D9F8002044F22803C2F34042C0F6000347
:100770009A5C4843B0FBF2F0D9F8001041F604024D
:10078000C1F30311C0F60002515C40F2200220FACE
:1007900001F140F20400C2F200000068C2F200025F
:1007A0001160FFF7A3FE002001B0BDE8F083000058
:1007B0002DE9F04182B0002868D00446007841F26B
:1007C0000006C007C4F2020625D0706800F00C00D5
:1007D00004281BD0706800F00C00082802D1706853
:1007E000C00313D46068002800F06881B0F5A02F22
:1007F00000F07C81B0F5803F00F07C81306820F40F
:1008000080303060306820F4802076E130688003EA
:1008100001D56068D0B32078800718D5706810F0D3
:100820000C0F07D0706800F00C0008286ED17068BB
:10083000C0036BD43068800702D52069012825D118
:100840003068616920F0F80040EAC100306020782B
:1008500000071FD42078400732D4E56995B170684D
:1008600000F00C00082840F08F80012D0ED0706839
:10087000216A00F480328A4208D1616A00F4701063
:10088000884203D1002002B0BDE8F081012002B00F
:10089000BDE8F081A069002862D00020C4F24220A7
:1008A0000121C0F88014FFF7F9FD0546706A800742
:1008B00000F18C80FFF7F2FD401B0228F6D92AE1F7
:1008C000F06910F0805808D1F06940F08050F06174
:1008D000F06900F080500090009847F20007C4F2E1
:1008E00000073868C00529D4386840F48070386043
:1008F000FFF7D4FD054600BF3868C0051ED4FFF7DA
:10090000CDFD401B6428F7D905E100BF2069002810
:1009100040F20000C4F2422000F082800121016018
:10092000FFF7BCFD054600BF306880073FF588AF84
:10093000FFF7B4FD401B0228F6D9ECE0E068002880
:1009400000F08080052800F09780012800F0988052
:10095000306A20F001003062306A20F0040092E03A
:100960000020C4F242200021C0F88014FFF796FD59
:10097000054600BF706A80077FF56CAFFFF78EFDFC
:10098000401B0228F6D9C6E00027C4F24227002007
:100990003866FFF783FD022D05460BD130688001D4
:1009A00040F1BE80FFF77AFD401B02284FF00300A4
:1009B000F4D968E7306880017FF564AFFFF76EFD1A
:1009C000401B02284FF00300F4D95CE740F22000FE
:1009D000C2F20000006844F6D351C1F26201A0FBEC
:1009E0000101480A019000BF00BF0198411E002884
:1009F00001913FF42FAF00BF0198411E00280191E3
:100A00003FF428AF00BF0198411E002801913FF438
:100A100021AF00BF0198411E00280191E4D119E7E0
:100A200000210160FFF73AFD054600BF30688007EE
:100A30007FF50DAFFFF732FD401B02284FF003009A
:100A4000F4D920E7306A20F001003062306A20F0EB
:100A500004003062FFF722FD054641F2883700BFEF
:100A6000306A800720D5FFF719FD401BB8424FF0D0
:100A70000300F5D907E700BF306A40F00400306298
:100A8000306A40F001003062FFF708FD054641F290
:100A9000883700BF306A800706D4FFF7FFFC401B91
:100AA000B842F7D937E000BFB8F1000F7FF4D5AEF8
:100AB000F06920F08050F061CFE600BF306820F48C
:100AC00080303060306820F480203060FFF7E6FC32
:100AD000054600BF306880037FF59DAEFFF7DEFC62
:100AE000401B64284FF00300F4D9CCE6306840F492
:100AF00080203060306840F480303060FFF7CEFCFA
:100B0000054600BF306880033FF585AEFFF7C6FCA1
:100B1000401B6428F6D9032002B0BDE8F08100BF75
:100B2000206AB0F5803F05D17168A26821F40031D8
:100B3000114371607168626A21F4741111430843B2
:100B4000706001203866FFF7A9FC04463068800118
:100B50003FF598AEFFF7A2FC001B02284FF0030000
:100B6000F4D990E670B538B10446406A30B100203F
:100B7000206104F1140007E0012070BD6068B0F549
:100B8000827F03D004F11C00002101600026A662D0
:100B900094F8510020B9204684F8506000F038F8ED
:100BA000022084F8510094E8071001F48271036870
:100BB00002F4044223F040030360236911440CF45F
:100BC0000062114403F002026369114403F0010260
:100BD000A369E569114403F40072114405F0380279
:100BE000256A114405F08002A56A114305F40052FC
:100BF00011430160042101EA13414160C16921F4FC
:100C00000061C1610120666584F85100304670BD05
:100C100080B586B0014640F60000C4F201000968C4
:100C200000F5205300229942049201D006B080BD05
:100C300041F21801C4F202010A6842F480520A60CB
:100C40000A6802F480520192019A0A6842F0040292
:100C50000A60096801F0040101910199A021029143
:100C6000022103910321059102A9FFF703FB06B0BE
:100C700080BD00002DE9F04182B0044690F850009C
:100C8000012803D1022002B0BDE8F08101201D46F9
:100C900016460F4684F85000FFF700FC94F85110F8
:100CA00001290DD18046002F4FF0010018BF002E02
:100CB0000ED1002184F8501002B0BDE8F08100BFD1
:100CC0000220002184F8501002B0BDE8F08100BF7E
:100CD0000320002184F8510061652763A686E6861B
:100CE000A163A187E187A0682164B0F5004F206867
:100CF000616407D1016821F040010160016841F49D
:100D0000804101600168490603D4016841F0400157
:100D100001606168731EE268B1FA81F1B3FA83F38E
:100D200049095B09B2F5006F41EA03013CD131B1D9
:100D300037F8021BC1602763E08E0138E086E08E41
:100D400000286BD0681C0CD11DE000BF216B31F86E
:100D5000022BC2602163E08E0138E086E08E00281D
:100D60005CD0206881688907F0D4FFF797FBA0EB7F
:100D70000800A842F2D3032071E000BFFFF78EFB0A
:100D8000E08E00284AD0206881688907F6D5216B5B
:100D900031F8022BC2602163E08E0138E086E08EDC
:100DA0000028F0D13AE000BF39B139780173206BE7
:100DB00001302063E08E0138E086E08E70B3681C5D
:100DC0000BD11BE0216B09780173206B013020638C
:100DD000E08E0138E086E08E00B3206881688907E4
:100DE000F0D4FFF75BFBA0EB0800A842F3D303208D
:100DF00035E000BFFFF752FBE08E78B120688168D4
:100E00008907F7D5216B09780173206B01302063C6
:100E1000E08E0138E086E08E0028EFD12046802168
:100E20002A46434600F042F828B1606D40F02000A9
:100E3000606520206065A06838B9002001902068B6
:100E4000C1680191806801900198606D30B1012006
:100E5000002184F8501002B0BDE8F081002001218B
:100E600084F85110002184F8501002B0BDE8F081E0
:100E7000411E0020B0EB116F1CBF012070474EF2E5
:100E80001002CEF2000251604EF62351CEF2000164
:100E9000F0230B700721906011607047FEE700009F
:100EA000FEE70000FEE70000704700002DE9F0417A
:100EB00082B01E4690460D460446FFF7EFFA301A00
:100EC00000EB0807FFF7EAFA40F22001C2F2000146
:100ED0000968C1F3CB317943019121688A682A40BE
:100EE000AA4227D1064618F101001FD0FFF7D6FA13
:100EF000801BB84222D2019801990028A1F101017A
:100F000001912168896808BF074601EA0500A842E7
:100F1000ECD00FE088682840A8420BD188682840B0
:100F2000A84207D188682840A84203D18868284091
:100F3000A842EFD0002002B0BDE8F081D4E9000162
:100F40004268B1F5827F22F0E00242600AD1A168D6
:100F5000B1F5004F02D0B1F5806F03D1016821F0E7
:100F600040010160A16AB1F5005F07D1016821F479
:100F700000510160016841F400510160012084F8D2
:100F80005100002084F85000032002B0BDE8F08139
:100F9000F0B581B07F282FD80F469F292CD840F676
:100FA0000044C4F201041546064620464FF4806111
:100FB0000022FFF76DFA721C7B1CF0B2F9B2D2B2BC
:100FC000DBB200F0FDF868BAADF80200204602215D
:100FD0000122FFF75DFA40F28800C2F200000DF135
:100FE000020102224FF0FF33FFF744FE20464FF488
:100FF00080610122FFF74CFA01B0F0BD2DE9F04706
:1010000082B00478002C3DD040F6004940F2880AB6
:10101000C4F20109451CC2F2000A0DF1070802E002
:10102000013C20062ED015F8020B02218DF8070096
:1010300048460022FFF72CFA5046414601224FF065
:10104000FF33FFF717FE15F8016C16F07F070CD081
:10105000484602210122FFF71BFA504629463A462C
:101060004FF0FF33FFF706FE3D4470B2B0F1FF3F93
:10107000D6DC15F8010BFF2808BF4FF4FA70FFF714
:10108000E5F8CDE702B0BDE8F08700002DE9F047B4
:1010900082B07F2851D80E469F294ED8074640F689
:1010A000004810449246C4F20108802803EB060071
:1010B0001C46DDF8289088BFC7F1800AA02840466A
:1010C0004FF480614FF0000288BFC6F1A004FFF723
:1010D000DFF90AEB0700A11901380139C2B2CBB21E
:1010E000F8B2F1B200F06CF899FA99F0ADF8060098
:1010F000404602210122FFF7CBF9200418BF5FEA26
:101100000A4014D040F28806C2F200060DF106072C
:10111000554600BF3046394602224FF0FF33FFF7F5
:10112000A9FD013D2804F5D1013C2004F0D1404641
:101130004FF480610122FFF7ABF902B0BDE8F08700
:1011400080B582B08446002000218022A023CDF803
:1011500000C0FFF79BFF02B080BD000010B540F655
:101160000044C4F2010420464FF480610022FFF7DE
:101170008FF9204601210022FFF78AF90520FFF7A9
:1011800065F8204601210122FFF782F944F23A0076
:10119000C0F60000FFF732FF44F27500C0F6000011
:1011A000FFF72CFF44F28200C0F60000FFF726FF95
:1011B00020464FF480610122BDE81040FFF768B976
:1011C0002DE9F04782B040F6004A07462A20C4F2D3
:1011D000010A164689468DF8050050460221002274
:1011E00098460024FFF754F940F28805C2F2000542
:1011F0000DF10501284601224FF0FF33FFF73AFDBC
:101200005046022101228DF801408DF802708DF8C0
:1012100003408DF80460FFF73BF90DF10106284605
:10122000314604224FF0FF33FFF724FD2B208DF8C9
:101230000600504602210022FFF72AF90DF10601AF
:10124000284601224FF0FF33FFF714FD50460221DC
:1012500001228DF802908DF80480FFF719F92846D5
:10126000314604224FF0FF33FFF704FD2C208DF8A8
:101270000700504602210022FFF70AF90DF107018D
:10128000284601224FF0FF33FFF7F4FC02B0BDE81F
:10129000F08700002DE9F04F89B0054640F6004088
:1012A00014468A46C4F201004FF4806100221E46B3
:1012B000FFF7EEF8324626782346002E00F0D6805F
:1012C0004FEA122CC2F307202C4600285FFA82F95D
:1012D000E0461746079000F08180B9F1000F00F05A
:1012E000A180DDE9131040F288054FEA11284FEA8A
:1012F000102BC2F200050DF12207CDE901C20BE06F
:10130000049CDDF814A0DDE901C2039B4C4413F8F2
:10131000016F002E00F0AA80A0B248447F280DD9AA
:1013200007998A441FFA8AF001449F2900F29E809F
:10133000202E4FF00004EAD002E000BF1FFA8AF02E
:1013400011196044013901380393CAB2C3B2E0B243
:101350005FFA8AF10494CDF814A0FFF731FF0799E2
:10136000A6F1200048430026069003E007980136C6
:101370008642C5D006981299304431F810404FF09B
:10138000000A17E0149802218DF8210040F6004071
:10139000C4F2010001228DF820B0FFF779F8284649
:1013A00008A902224FF0FF33FFF764FC0AF1010A9B
:1013B000D145DBD004FA0AF00004E3D513980221EA
:1013C0008DF8230040F60040C4F2010001228DF8A0
:1013D0002280FFF75DF828463946E2E75D1C11E000
:1013E00010190CEB0A0101380139C2B2CBB2E0B2DC
:1013F0005FFA8AF1FFF7E4FE3A46C4464C4415F81A
:10140000016B9EB3A0B248448028E9D30798824478
:101410001FFA8AF09F2829D8202E4FF00004DFD130
:10142000EDE700BF5D1C12E01FFA8AF0111960445D
:1014300001390138CAB2C3B2E0B25FFA8AF1FFF7EC
:10144000BFFE3A46C4464C4415F8016B76B1A0B2D3
:101450007F28E9D907998A441FFA8AF001449F2915
:1014600004D8202E4FF00004E0D1EDE740F6004014
:10147000C4F201004FF480610122FFF709F809B0BE
:10148000BDE8F08F70470000FFF70EB8704700000E
:10149000FEE700002DE9F04F85B0814650181FFA95
:1014A00089F815460C4681B240461A461E46FFF79B
:1014B0006FFD601B81B240463246FFF769FD05EBC8
:1014C00009001FFA84F880B241463246FFF760FDFA
:1014D000A9EB050080B241463246FFF759FD012DC8
:1014E0006CDB0022A2EB4503C5F1010A012704943D
:1014F0000FFA8AF0B0F1FF3F6FEAE03005EB000B26
:101500000FFA8BF002F1010803F10201C4BF8A4413
:101510000B4602900FFA88F0019038B2023000902A
:10152000824408EB09000BEB040185B28FB2284618
:10153000394632460393FFF72BFDA9EB08004C46D2
:101540001FFA80F9484639463246FFF721FD0498D4
:101550003246A0EB0B0087B228463946FFF718FD4C
:10156000484639463246A146FFF712FD04990BEB77
:10157000040041448DB284B2204629463246FFF72A
:1015800007FDA9EB0B0087B2384629463246FFF724
:10159000FFFC04983246A0EB080085B2204629469D
:1015A000FFF7F6FC38462946029D049C3246FFF7B9
:1015B000EFFCDDE90072039BAA4299DB05B0BDE8B0
:1015C000F08F000092B0FEF77DFF00240120CDE9EE
:1015D0000D44CDE90B4408900C904FF4E0104FF40B
:1015E00080310225119008A8CDE90914CDE90F51E9
:1015F000FFF7DEF820B1EFF3108072B6FEE700BF10
:101600000F20CDE903054FF48060CDE9060403A85F
:1016100002210594FEF7ECFF20B1EFF3108072B6C3
:10162000FEE700BF41F21800C4F20200016840F674
:10163000004441F0200101600168C4F2010401F09E
:101640002001089108990168002241F0040101601D
:10165000016840F2034501F004010891089901680E
:10166000002741F008010160006840F2034100F0EA
:101670000800089008982046FEF70AFF0120CDE9EF
:10168000090702200B9008A920460895FEF7F2FDF5
:1016900040F2880004F51051C2F200004FF482724B
:1016A0004FF400434FF40076202580E88E000A2195
:1016B000C0E90477C0E90665C0E90877C0E90A71A6
:1016C000FFF750FA20B1EFF3108072B6FEE700BFCB
:1016D000FFF744FD40F2180440F2080540F21009FB
:1016E000C2F20004C2F200054FF4FC6B0FF2F40AE0
:1016F000C2F200094FF01F083FA600BF0020FFF70D
:101700001FFDD4E90030002100904FF47840019093
:10171000002031A20297FFF7BDFDD5E900301E2160
:10172000CDE9000B002052460297FFF7B3FDD9E93F
:1017300000305421CDE90008002032460297FFF71F
:10174000A9FD40F6B830FEF781FD0020FFF7F8FC58
:101750003220372114224FF4FC63FFF79BFE322026
:10176000372115224FF4FC63FFF794FE3220372116
:1017700016224FF4FC63FFF78DFE3220372117222B
:101780004FF4FC63FFF786FE3220372118224FF416
:10179000FC63FFF77FFE3220372119224FF4784394
:1017A000FFF778FE322037211A224FF47843FFF7F3
:1017B00071FE322037211B224FF47843FFF76AFE77
:1017C000322037211C224FF47843FFF763FE4FF499
:1017D0007A60FEF73BFD91E74D6963726F50657467
:1017E000610000006279204E697A61722020204DEC
:1017F0006F68696465656E004D61726368202032B0
:101800003032330000000000000000000102030439
:1018100006070809000000000000000000000000AA
:1018200000000000000000000000000000000000B8
:1018300000000000000000000000000C000C000C84
:10184000000C000C000C000C000C000C000C000C38
:101850000000000C000C0000000000000000001B55
:10186000001B001B001B001B00000000000000000C
:101870000000000000000000000000000000000068
:1018800000008019801980198019C07FC07F8019DD
:101890000033C07FC07F00330033003300330000CB
:1018A000000000000000001E003F8075806500748D
:1018B000003C001E00078005806580658075003F44
:1018C000001E0004000400000000007000D840D892
:1018D000C0D880D900730006000C801BC036C066DB
:1018E000C046C00680030000000000000000001E8B
:1018F000003F003300330033001E000CC03CC066C4
:10190000806380618063C03E801C00000000000096
:101910000000000C000C000C000C000C000000008B
:1019200000000000000000000000000000000000B7
:101930000000000080000001000300060006000413
:10194000000C000C000C000C000C000C0004000645
:101950000006000300018000002000100018000CA9
:10196000000C000400060006000600060006000643
:101970000004000C000C0018001000200000000CF7
:10198000002D003F001E003300000000000000009A
:101990000000000000000000000000000000000047
:1019A000000000000000000C000C000C000CC0FF48
:1019B000C0FF000C000C000C000C00000000000038
:1019C0000000000000000000000000000000000017
:1019D0000000000000000000000000000000000CFB
:1019E000000C0004000400080000000000000000DB
:1019F00000000000000000000000001E001E0000AB
:101A000000000000000000000000000000000000D6
:101A100000000000000000000000000000000000C6
:101A2000000000000000000C000C0000000000009E
:101A30000000000300030003000600060006000685
:101A4000000C000C000C000C00180018001800001E
:101A5000000000000000001E003F00338061806134
:101A60008061806D806D8061806180610033003FA6
:101A7000001E00000000000000000006000E001E16
:101A800000360026000600060006000600060006D6
:101A90000006000600060000000000000000001E16
:101AA000003F807380618061800100030006000CAC
:101AB000001800300060807F807F00000000000080
:101AC0000000001C003E006300630003000E000ED7
:101AD00000038001800180618073003F001E0000D0
:101AE0000000000000000006000E000E001E001E98
:101AF0000016003600360066807F807F00060006F4
:101B000000060000000000000000007F007F006071
:101B100000600060006E007F806380018001806152
:101B20008073003F001E0000000000000000001E47
:101B3000003F803380610060006E007F80738061B1
:101B4000806180618033003F001E000000000000C3
:101B50000000807F807F80010003000300060006F4
:101B6000000C000C000C0008001800180018000001
:101B7000000000000000001E003F80638061806163
:101B80000021001E003F8061806180618061003F14
:101B9000001E0000000000000000001E003F007357
:101BA0008061806180618073803F801D80018061E1
:101BB0000073003F001E0000000000000000000055
:101BC000000000000000000C000C000000000000FD
:101BD000000000000000000C000C000000000000ED
:101BE000000000000000000000000000000C000CDD
:101BF00000000000000000000000000C000C0004C9
:101C000000040008000000000000000080008003C5
:101C1000000E003800600038000E800380000000D5
:101C200000000000000000000000000000000000B4
:101C30000000807F807F00000000807F807F0000A8
:101C40000000000000000000000000000000000094
:101C50000000000000400070001C00078001000729
:101C6000001C0070004000000000000000000000A8
:101C70000000001F803FC071C060C000C001800331
:101C80000007000E000C000C0000000C000C00000F
:101C9000000000000000001E003F80318071806362
:101CA000806F806D806D806F806700600032003EC5
:101CB000001C0000000000000000000E000E001BD1
:101CC000001B001B001B80318031803F803F803132
:101CD000C060C060C0600000000000000000007C28
:101CE000007E0063006300630063007E007E00638B
:101CF000806180618063007F007E00000000000042
:101D00000000001E003F80318061006000600060C4
:101D100000600060006080618031003F001E0000B4
:101D2000000000000000007C007F00638063806191
:101D30008061806180618061806100630063007EFA
:101D4000007C0000000000000000807F807F0060B9
:101D5000006000600060007F007F00600060006045
:101D60000060807F807F0000000000000000807F16
:101D7000807F0060006000600060007F007F006086
:101D80000060006000600060006000000000000073
:101D90000000001E003F8031806100600060006034
:101DA00080638063806180618031803F001E00001D
:101DB00000000000000080618061806180618061BE
:101DC0008061807F807F80618061806180618061CF
:101DD00080610000000000000000003F003F000C98
:101DE000000C000C000C000C000C000C000C000C93
:101DF000000C003F003F00000000000000008001D8
:101E000080018001800180018001800180018001CA
:101E1000806180618073003F001E000000000000B0
:101E20000000C0608061006300660066006C00789E
:101E3000007C00660066006380618061C060000015
:101E400000000000000000600060006000600060B2
:101E50000060006000600060006000600060807FE3
:101E6000807F0000000000000000C071C071C07BD6
:101E7000C07AC06AC06AC06EC064C060C060C06022
:101E8000C060C060C0600000000000000000807101
:101E90008071807980798079806D806D806D8065BA
:101EA00080678067806780638063000000000000B7
:101EB0000000001E003F003380618061806180610E
:101EC00080618061806180610033003F001E0000FE
:101ED000000000000000007E007F80638061806160
:101EE00080618063007F007E0060006000600060B1
:101EF00000600000000000000000001E003F0033F2
:101F000080618061806180618061806180658067BF
:101F10000033803F401E0000000000000000007EF3
:101F2000007F8063806180618063007F007E006647
:101F30000063006380618061C060000000000000F9
:101F40000000000E001F8031803100300038001E7C
:101F500000078003806180618031003F001E000027
:101F6000000000000000C0FFC0FF000C000C000CCF
:101F7000000C000C000C000C000C000C000C000C01
:101F8000000C0000000000000000806180618061A2
:101F90008061806180618061806180618061806139
:101FA0008073003F001E0000000000000000C060C1
:101FB000C060C060803180318031001B001B001B7D
:101FC000001B000E000E000E0004000000000000C8
:101FD0000000C0C0C0C0C0C0C0C0C0C0C0CC804C29
:101FE000804C805E805280528073806180610000EE
:101FF000000000000000C0C0806080610033003B32
:10200000001E000C000C001E001F003B8071806150
:10201000C0C00000000000000000C0C080618061FE
:1020200000330033001E001E000C000C000C000CDE
:10203000000C000C000C0000000000000000803FBD
:10204000803F8001000300030006000C000C001814
:10205000001800300060807F807F000000000000DA
:10206000000F000F000C000C000C000C000C000C0A
:10207000000C000C000C000C000C000C000C000C00
:10208000000F000F0000001800180018000C000CD2
:10209000000C000C0006000600060006000300030A
:1020A0000003000000000000001E001E00060006E5
:1020B00000060006000600060006000600060006F0
:1020C0000006000600060006001E001E0000000CB0
:1020D000000C001E0012003300338061806100009C
:1020E00000000000000000000000000000000000F0
:1020F00000000000000000000000000000000000E0
:1021000000000000000000000000000000000000CF
:10211000E0FF0000000000380018000C0000000084
:1021200000000000000000000000000000000000AF
:10213000000000000000000000000000000000009F
:102140000000001F803F80618001801F803F806110
:102150008063807FC0380000000000000000006045
:10216000006000600060006E007F807380618061AD
:10217000806180618073007F006E000000000000BD
:1021800000000000000000000000001E003F8073FF
:1021900080610060006080618073003F001E00006D
:1021A0000000000000008001800180018001801D8E
:1021B000803F807380618061806180618073803F37
:1021C000801D000000000000000000000000000072
:1021D0000000001E003F00738061807F807F0060F0
:1021E0008071003F001E0000000000000000C007DA
:1021F000C00F000C000C807F807F000C000C000CD6
:10220000000C000C000C000C000C00000000000092
:102210000000000000000000801D803F807380618E
:102220008061806180618073803F801D8001806358
:10223000007F003E00000060006000600060006FF2
:10224000807F807180618061806180618061806158
:102250008061000000000000000000060006000091
:102260000000003E003E00060006000600060006D4
:102270000006000600060000000000000006000640
:1022800000000000003E003E0006000600060006BA
:10229000000600060006000600060046007E003C20
:1022A0000000006000600060006080610063006604
:1022B000006C007C0076006300638061C0600000F9
:1022C000000000000000003E003E00060006000680
:1022D00000060006000600060006000600060006CE
:1022E00000060000000000000000000000000000E8
:1022F000000080DDC0FFC0CEC0CCC0CCC0CCC0CC04
:10230000C0CCC0CCC0CC0000000000000000000029
:10231000000000000000006F807F8071806180619C
:102320008061806180618061806100000000000048
:1023300000000000000000000000001E003F80734D
:1023400080618061806180618073003F001E0000B9
:10235000000000000000000000000000006E007F90
:10236000807380618061806180618073007F006E16
:1023700000600060006000600000000000000000DD
:10238000801D803F80738061806180618061807387
:10239000803F801D800180018001800100000000DD
:1023A0000000000000000067803F0039003000306E
:1023B000003000300030003000300000000000002D
:1023C00000000000000000000000001E803F80614F
:1023D0000060007F803F80018061007F001E000060
:1023E0000000000000000000000800180018007F36
:1023F000007F001800180018001800180018801F2F
:10240000800F00000000000000000000000000003D
:102410000000806180618061806180618061806195
:102420008063807F803D000000000000000000000D
:10243000000000000000C060803180318031001B4E
:10244000001B001B000E000E000600000000000034
:102450000000000000000000000080DD80DD80DD65
:10246000005500550055007700770022002200003B
:10247000000000000000000000000000000080617B
:1024800000330033001E000C000C001E003300332C
:10249000806100000000000000000000000000005B
:1024A00080618061803100330033001B001B001B02
:1024B000000E000E000E001C007C007000000000EA
:1024C000000000000000C07FC07F80010003000604
:1024D000000C00180030C07FC07F0000000000002A
:1024E0008003800700060006000600060006000EB6
:1024F000001C001C000E0006000600060006000678
:10250000800780030006000600060006000600069D
:10251000000600060006000600060006000600068B
:1025200000060006000600060038003C000C000C07
:10253000000C000C000C000E00070007000E000C41
:10254000000C000C000C000C003C003800000000E7
:10255000000000000000000000008038807F00477D
:10256000000000000000000000000000000000006B
:10257000000000000000000000000000000000005B
:10258000000000000000000000000000000000004B
:10259000000000000000000000000000000000003B
:1025A00000000000E003E003E003E003E003E003D9
:1025B000E003E003C003C003C001C001C001C001CB
:1025C000C001000000000000E003E003E0030000A1
:1025D00000000000000000003C1E3C1E3C1E3C1E93
:1025E0003C1E3C1E3C1E00000000000000000000DD
:1025F00000000000000000000000000000000000DB
:10260000000000000000000000000000CE01CE032A
:10261000DE039E039C039C07FF3FFF7F3807380FB4
:10262000780F780F780EFFFFFFFFF01EF01CE01C04
:10263000E03CE03DE0390000000000000000000048
:10264000FC03FE0FEE1FE01EE01EE01EE01EE01F7A
:10265000E00FE007F003FC01FE01FE01FE01FE01B8
:10266000FE01FE01FE3DFC3FF00FE001E001000035
:1026700000000000033E07F78FE78EE79EE3BCE310
:10268000B8E7F8E7F0F7E03FC001FF03FF07F30703
:10269000F30FF31EF33CF338F3787FF03FE00000D4
:1026A0000000000000000000E007F80F780F781F1E
:1026B000781F781F780FF00FE00F801FC37FC3FBD8
:1026C000E7F3F7F1F7F0FFF07FF03EF87F7CFF3F94
:1026D000EF1F00000000000000000000E003E00326
:1026E000E003E003E003C003C001000000000000BD
:1026F00000000000000000000000000000000000DA
:1027000000000000000000000000000000000000C9
:102710003F007C00F001E001C003C0078007800794
:10272000800F000F000F000F000F000F000F800F31
:1027300080078007C007C003E001F0017C003F0074
:102740000F000000007E001FC007C003E001F00181
:10275000F000F000F8007800780078007800780049
:102760007800F800F000F000F001E001C003C007BD
:10277000001F007E00780000E003C003C001CE39D6
:10278000FF3F7F3F20037003F807780F3C1F380698
:102790000000000000000000000000000000000039
:1027A0000000000000000000000000000000000029
:1027B0000000000000000000C001C001C001C00115
:1027C000C001C001C001FFFFFFFFC001C001C00187
:1027D000C001C001C00100000000000000000000B6
:1027E00000000000000000000000000000000000E9
:1027F00000000000000000000000000000000000D9
:102800000000E003E003E003E003E001E001E00199
:10281000C001800300000000000000000000000074
:1028200000000000000000000000FE3FFE3F00002E
:102830000000000000000000000000000000000098
:102840000000000000000000000000000000000088
:102850000000000000000000000000000000000078
:1028600000000000000000000000E003E003E003BF
:10287000E003000000000000000000000F000F0057
:102880001E001E003C003C0078007800F000F000C4
:10289000E001E001C003C00380078007000F000FC4
:1028A000001E001E003C003C0078007800F0000094
:1028B000F007F80F7C1F3E3E1E3C1F7C1F7C0F78EC
:1028C0000F780F780F780F780F780F781F7C1F7CA8
:1028D0001E3C3E3E7C1FF80FF00700000000000089
:1028E00000000000F000F007F03FF03FF001F001C1
:1028F000F001F001F001F001F001F001F001F00150
:10290000F001F001F001F001F001FF3FFF3F000096
:102910000000000000000000E00FF83F7C3C3C009D
:102920003E003E003E003C003C007C00F800F00110
:10293000E003C0078007000F001E003E003CFE3F82
:10294000FE3F00000000000000000000F00FF81F34
:102950007C1C3E003E003E003C003C00F800F00FB6
:10296000F80F7C003E001E001E001E001E003E00F0
:102970007C1CF81FE01F00000000000000000000A9
:102980007800F800F800F801F803F807F807780F66
:10299000781E781E783C78787878FFFFFFFF780003
:1029A00078007800780078007800000000000000CF
:1029B00000000000FC1FFC1FFC1F001E001E001E6C
:1029C000001E001EE01FF81FFC007C003E003E00C1
:1029D0001E003E003E003C007C1CF81FE01F000073
:1029E0000000000000000000FC01FE078E0F001F29
:1029F000001E003E003C003CF83DFC3F3E7F1F7E39
:102A00000F3C0F3C0F3C0F3C0F3E1F1E3E1FFC0FA8
:102A1000F00300000000000000000000FF3FFF3F47
:102A2000FF3F0F001E001E003C0038007800F00041
:102A3000F000E001E001C003C0038007800F800FB9
:102A4000000F001F001F0000000000000000000039
:102A5000F807FC0F3E1F1E1E1E3E1E3E1E1E3C1F84
:102A6000F80FF007F80FFC1E3E3E1F3C1F7C0F7C4A
:102A70000F7C1F3C3E3FFC1FF007000000000000E1
:102A800000000000F007F80F7C1E3E3C1E3C1F7C3F
:102A90001F7C1F7C1F7C1F3C3F3EFF1FEF071F005A
:102AA0001E001E003E003C00F838F03FE01F000012
:102AB0000000000000000000000000000000000016
:102AC00000000000E003E003E003E003000000007A
:102AD00000000000000000000000E003E003E0034D
:102AE000E003000000000000000000000000000003
:102AF0000000000000000000E003E003E003E0034A
:102B00000000000000000000000000000000E003E2
:102B1000E003E003E003E001E001E001C003800323
:102B200000000000000000000000000003000F0093
:102B30003F00FC00F003C00F003F00FE003FC00F4D
:102B4000F003FC003F000F00030000000000000045
:102B50000000000000000000000000000000000075
:102B60000000000000000000FFFFFFFF0000000069
:102B70000000FFFFFFFF0000000000000000000059
:102B80000000000000000000000000000000000045
:102B90000000000000E000F8007E801FE007F80160
:102BA0007E001F007E00F801E007801F007E00F815
:102BB00000E000000000000000000000F01FFC3FEB
:102BC0003E381F381F381E001E003C007800F00001
:102BD000E001C003C003C007C00700000000000000
:102BE000C007C007C0070000000000000000000090
:102BF000F803FE0F1E1F0F3E7F3CFF78EF79C7736F
:102C0000C7F38FF38FF38FF39FF39FF3FF73FF7B74
:102C1000F779003C1C1FFC0FF803000000000000C7
:102C200000000000000000000000E003E003F007E7
:102C3000F007F007780F780F7C0E3C1E3C1E3E3CE0
:102C4000FE3FFF3F1F780F780FF007F007F00000FE
:102C50000000000000000000000000000000F83F3D
:102C6000FC3F3E3C1E3C1E3C1E3C3E3C7C3CF03F40
:102C7000F83F7E3C1F3C1F3C0F3C0F3C1F3CFE3F7F
:102C8000F83F00000000000000000000000000000D
:102C90000000FF01FF07871F003E003C007C00781A
:102CA0000078007800780078007C007C003E003FCF
:102CB000831FFF07FF01000000000000000000006C
:102CC000000000000000F07FFC7F7E781F781F78F6
:102CD0000F780F780F780F780F780F780F780F78BC
:102CE0001F781E787E78F87FE07F000000000000EB
:102CF00000000000000000000000FF3FFF3F003E1A
:102D0000003E003E003E003E003EFE3FFE3F003ED5
:102D1000003E003E003E003E003EFF3FFF3F000001
:102D20000000000000000000000000000000FF1F85
:102D3000FF1F001E001E001E001E001E001EFF1FA3
:102D4000FF1F001E001E001E001E001E001E001E93
:102D5000001E000000000000000000000000000055
:102D60000000FE03FF0F871F003E007C007C007800
:102D700000F800F87FF87FF80F780F7C0F7C0F3E8B
:102D80008F1FFF0FFE030000000000000000000086
:102D90000000000000001F7C1F7C1F7C1F7C1F7C2C
:102DA0001F7C1F7C1F7CFF7FFF7F1F7C1F7C1F7C85
:102DB0001F7C1F7C1F7C1F7C1F7C0000000000000C
:102DC00000000000000000000000FF3FFF3FE003A4
:102DD000E003E003E003E003E003E003E003E003DB
:102DE000E003E003E003E003E003FF3FFF3F0000F8
:102DF0000000000000000000000000000000FC1FB8
:102E0000FC1F7C007C007C007C007C007C007C0043
:102E10007C007C007C007C0078007800F838F03F73
:102E2000C03F0000000000000000000000000000A3
:102E300000001F3C1E3C3C3C783CF03CE03DE03F49
:102E4000C03F803FC03FE03FF03DF03C783C7C3CE1
:102E50003E3C1F3C0F3C0000000000000000000052
:102E6000000000000000003E003E003E003E003E2C
:102E7000003E003E003E003E003E003E003E003E62
:102E8000003E003E003EFF3FFF3F0000000000000C
:102E9000000000000000000000001FF81FFC1FFCE5
:102EA0003FFE3FFE3FFE7FFF77FF77FFF7F7E7F735
:102EB000E7F3E7F3C7F307F007F007F007F00000C8
:102EC00000000000000000000000000000000F7C77
:102ED0000F7C0F7E0F7F0F7F8F7F8F7FCF7FEF7BEA
:102EE000EF79FF79FF78FF787F783F783F781F7818
:102EF0001F7800000000000000000000000000003B
:102F00000000F007FC1F3E3E1F7C0F780F780FF883
:102F10000FF80FF80FF80FF80FF80F780F781F7CE5
:102F20003E3EFC1FF0070000000000000000000013
:102F3000000000000000FC3FFF3F1F3E0F3E0F3E21
:102F40000F3E0F3E1F3E3F3EFC3FF03F003E003E27
:102F5000003E003E003E003E003E0000000000003B
:102F600000000000000000000000F007FC1F3E3ED3
:102F70001F7C0F780F780FF80FF80FF80FF80FF885
:102F80000FF80F780F781F7C3E3EFC1FF8077C007F
:102F90003F000F0003000000000000000000F03FB1
:102FA000FC3F7E3C3E3C1E3C1E3C3E3C3C3CFC3CD4
:102FB000F03FE03FF03DF83C7C3C3E3C1E3C1F3C7B
:102FC0000F3C0000000000000000000000000000B6
:102FD0000000FC07FE1F0E3E003C003C003C003E93
:102FE000C01FF80FFE037F001F000F000F001F20FF
:102FF0003E3CFC3FF01F000000000000000000000D
:10300000000000000000FFFFFFFFE003E003E0031B
:10301000E003E003E003E003E003E003E003E00398
:10302000E003E003E003E003E00300000000000031
:10303000000000000000000000000F7C0F7C0F7CEF
:103040000F7C0F7C0F7C0F7C0F7C0F7C0F7C0F7C28
:103050000F7C0F7C1E3C1E3C3E3EFC1FF007000018
:10306000000000000000000000000000000007F069
:1030700007F007F80F780F7C1E3C1E3C1E3E3C1EDE
:103080003C1F781F780FF80FF007F007F007E003F8
:10309000E00300000000000000000000000000004D
:1030A000000003E003F003F007F0E7F3E7F3E7F3D2
:1030B000E773F77BF77FFF7F7F7F7F7F7E7F7E3F9A
:1030C0003E3E3E3E3E3E000000000000000000008C
:1030D00000000000000007F80F7C1E3E3E3E3C1F33
:1030E000F80FF007E007E003E003F007F80F7C0FAC
:1030F0007C1E3E3C1F780F780FF00000000000009F
:103100000000000000000000000007F807780F7CB6
:103110001E3C1E3E3C1F780FF80FF007E003E00353
:10312000E003E003E003E003E003E003E00300006A
:103130000000000000000000000000000000FF7F11
:10314000FF7F0F001F003E007C00F800F000E00150
:10315000E003C007800F000F001E003E007CFF7FD1
:10316000FF7F00000000000000000000FF07800754
:103170008007800780078007800780078007800717
:103180008007800780078007800780078007800707
:1031900080078007800780078007FF07FF07000080
:1031A00000780078003C003C001E001E000F000F5D
:1031B00080078007C003C003E001E001F000F000D9
:1031C000780078003C003C001E001E000F000F003D
:1031D00007000000F07FF000F000F000F000F000C9
:1031E000F000F000F000F000F000F000F000F0005F
:1031F000F000F000F000F000F000F000F000F0004F
:10320000F000F07FF07F0000C000C001C001E003CB
:10321000E003F007F0077807780F380F3C1E3C1EDC
:103220001E3C1E3C0F380F7807780000000000009D
:10323000000000000000000000000000000000008E
:10324000000000000000000000000000000000007E
:10325000000000000000000000000000000000006E
:10326000000000000000FFFFFFFF00000000000062
:10327000F00000000000000000000000000000005E
:10328000000000000000000000000000000000003E
:10329000000000000000000000000000000000002E
:1032A000000000000000000000000000000000001E
:1032B000F80FFC3F7C3C3E003E003E00FE07FE1F38
:1032C0003E3E3E7C3E783E7C7E7CFF3FCF1F000032
:1032D0000000000000000000003C003C003C003CFE
:1032E000003C003CF83DFE3F3E3F1F3E0F3C0F3C84
:1032F0000F3C0F3C0F3C0F3C1F3C1E3C3E3FFC3F35
:10330000F03B000000000000000000000000000092
:103310000000000000000000FE03FF0F871F003EBA
:10332000003E003C007C007C007C003C003E003EF7
:10333000871FFF0FFE0300000000000000000000D8
:103340001F001F001F001F001F001F00FF07FF1F9F
:103350003F3E1F3C1F7C1F7C1F7C1F781F781F7CFB
:103360001F7C3F3C7F3EFF1FDF0F0000000000007E
:10337000000000000000000000000000000000004D
:10338000F803FC0F3E1F1E3E1F3C1F7CFF7FFF7F8C
:10339000007C007C003C003E071FFF0FFE03000086
:1033A0000000000000000000FF01E103C003C007AF
:1033B000C007C007FF7FFF7FC007C007C007C00767
:1033C000C007C007C007C007C007C007C007C007C5
:1033D000C007000000000000000000000000000026
:1033E0000000000000000000EF07FF1F7F3E1F3CB1
:1033F0001F7C1F7C1F781F781F781F7C1F7C3F3C21
:103400007F3EFF1FDF0F1E001E001E007C38F83FAE
:10341000003C003C003C003C003C003CFC3DFE3FCE
:103420009E3F1F3F1F3E1F3C1F3C1F3C1F3C1F3C3D
:103430001F3C1F3C1F3C1F3C1F3C000000000000C5
:1034400000000000F001F00100000000000000009A
:10345000E07FE07FE001E001E001E001E001E00168
:10346000E001E001E001E001E001E001E001000035
:103470000000000000000000F800F800000000005C
:1034800000000000F83FF83FF800F800F800F800EE
:10349000F800F800F800F800F800F800F800F8006C
:1034A000F800F800F800F000F071E07F003C003C0C
:1034B000003C003C003C003C1F3C3E3C7C3CF83C5B
:1034C000F03DE03DC03FC03FE03FF03DF83C7C3C7C
:1034D0003E3C1F3C1F3C00000000000000000000BC
:1034E000F07FF001F001F001F001F001F001F001D6
:1034F000F001F001F001F001F001F001F001F00144
:10350000F001F001F001F001F00100000000000006
:1035100000000000000000000000000000000000AB
:103520009EF7FFFFFFFFFFFFE7FBE7F9C7F1C7F1DA
:10353000C7F1C7F1C7F1C7F1C7F1C7F1C7F1000083
:10354000000000000000000000000000000000007B
:1035500000000000FC3DFE3F9E3F1F3F1F3E1F3C02
:103560001F3C1F3C1F3C1F3C1F3C1F3C1F3C1F3C83
:103570001F3C0000000000000000000000000000F0
:103580000000000000000000F007FC1F3E3E1F3C52
:103590001F7C0F780F780F780F780F781F7C1F3CF7
:1035A0003E3EFC1FF007000000000000000000008D
:1035B000000000000000000000000000F83DFE3F99
:1035C0003E3F1F3E0F3C0F3C0F3C0F3C0F3C0F3C5F
:1035D0001F3C1E3E3E3FFC3FF83F003C003C003C91
:1035E000003C003C00000000000000000000000063
:1035F000EE07FE1F7E3E1E3C1E7C1E781E781E7847
:103600001E781E781E7C3E7C7E3EFE1FDE0F1E0056
:103610001E001E001E001E00000000000000000032
:10362000000000007F1FFF1FE71FC71F871F001F2D
:10363000001F001F001F001F001F001F001F001F92
:10364000001F00000000000000000000000000005B
:103650000000000000000000FC07FE1F0E1E003EE0
:10366000003E003FE01FFC07FE003E001E001E0063
:103670003E3CFC3FF01F0000000000000000000086
:10368000000000000000800780078007FF7FFF7FA9
:1036900080078007800780078007800780078007F2
:1036A00080078007C007FF03FF0100000000000043
:1036B000000000000000000000000000000000000A
:1036C0001E3C1E3C1E3C1E3C1E3C1E3C1E3C1E3C2A
:1036D0001E3C1E3C3E3C7E3CFE3EFE1FDE0F0000BC
:1036E00000000000000000000000000000000000DA
:1036F0000000000007F00F780F781E3C1E3C1E3EB5
:103700003C1E3C1E780F780FF00FF007F007E00327
:10371000E0030000000000000000000000000000C6
:10372000000000000000000003F0E3F1E3F3E7F322
:10373000F7F3F7F3F77F777F7F7F7F7F7F7F3E3ED3
:103740003E3E3E3E3E3E0000000000000000000005
:103750000000000000000000000000000F7C1E3E82
:103760003C3E3C1FF80FF007F007E003F007F807B6
:10377000F80F7C1E3E3E1F3C1F780000000000003A
:103780000000000000000000000000000000000039
:1037900007F80F780F7C1E3C1E3C3C1E3C1E3C1F55
:1037A000780FF80FF007F007E003E003C003C00351
:1037B000C0038007800F007F0000000000000000B1
:1037C00000000000FF3FFF3F1F003E007C00F800AC
:1037D000F001E003C007800F001F001E003CFF7FC8
:1037E000FF7F00000000000000000000FE01E00379
:1037F000C003C003C003C003E001E001E001C00159
:10380000C003803F803FC003C001E001E001E00150
:10381000C003C003C003C003E003FE017E0000003C
:10382000C001C001C001C001C001C001C001C00190
:10383000C001C001C001C001C001C001C001C00180
:10384000C001C001C001C001C001C001C001C00170
:10385000C0010000C03FE003E001E001E001E00141
:10386000C001C003C003C001E001FE00FE00E00192
:10387000C001C003C003C001E001E001E001E001BC
:10388000E003C03F003F0000000000000000000017
:103890000000000000000000000000000000073FE2
:1038A000C77FE773FFF17EF000000000000000001A
:1038B0000000000000000000000000000000000008
:1038C00000000000000000000000000000000000F8
:1038D0000010001000100010001000100000001078
:1038E0000000000000280028002800000000000060
:1038F000000000000000000000240024007C0024E0
:103900000048007C004800480000000000380054D7
:10391000005000380014005400540038001000001B
:103920000020005400580030002800540014000803
:10393000000000000010002800280010003400489B
:1039400000480034000000000010001000100000CB
:10395000000000000000000000000000000800104F
:10396000002000200020002000200020001000087F
:1039700000200010000800080008000800080008E7
:103980000010002000100038001000280000000087
:103990000000000000000000000000000010001007
:1039A000007C00100010000000000000000000007B
:1039B00000000000000000000000001000100010D7
:1039C00000000000000000000000003800000000BF
:1039D00000000000000000000000000000000000E7
:1039E0000000001000000000000800080010001097
:1039F00000100010002000200000000000380044EB
:103A0000004400540044004400440038000000001A
:103A100000100030005000100010001000100010C6
:103A200000000000003800440044000400080010BA
:103A30000020007C00000000003800440004001852
:103A400000040004004400380000000000080018D2
:103A5000002800280048007C000800080000000042
:103A6000007C00400040007800040004004400385E
:103A7000000000000038004400400078004400448A
:103A80000044003800000000007C00040008001022
:103A9000001000200020002000000000003800443A
:103AA0000044003800440044004400380000000096
:103AB0000038004400440044003C00040044003846
:103AC00000000000000000000010000000000000E6
:103AD00000000010000000000000000000000010C6
:103AE00000000000000000100010001000000000A6
:103AF000000C003000400030000C0000000000000E
:103B0000000000000000007C0000007C00000000BD
:103B10000000000000000000006000180004001811
:103B200000600000000000000038004400040008AD
:103B300000100010000000100000000000380044D9
:103B4000004C0054005C00400040003800000000C1
:103B500000100028002800280028007C00440044B1
:103B60000000000000780044004400780044004455
:103B7000004400780000000000380044004000408D
:103B80000040004000440038000000000070004881
:103B9000004400440044004400480070000000005D
:103BA000007C00400040007C004000400040007C61
:103BB00000000000007C0040004000780040004011
:103BC0000040004000000000003800440040004079
:103BD000005C004400440038000000000044004441
:103BE0000044007C00440044004400440000000005
:103BF00000380010001000100010001000100038F5
:103C0000000000000004000400040004000400049C
:103C100000440038000000000044004800500060EC
:103C200000500048004800440000000000400040F0
:103C300000400040004000400040007C00000000C8
:103C40000044006C006C00540044004400440044F4
:103C50000000000000440064006400540054004C64
:103C6000004C0044000000000038004400440044C0
:103C70000044004400440038000000000078004484
:103C80000044004400780040004000400000000074
:103C9000003800440044004400440044005400380C
:103CA000000400000078004400440044007800480C
:103CB000004800440000000000380044004000308C
:103CC000000800040044003800000000007C0010E0
:103CD0000010001000100010001000100000000084
:103CE00000440044004400440044004400440038C0
:103CF0000000000000440044004400280028002880
:103D00000010001000000000004400440054005463
:103D10000054006C00280028000000000044002827
:103D200000280010001000280028004400000000B7
:103D3000004400440028002800100010001000106B
:103D400000000000007C00040008001000100020AB
:103D50000040007C0000000000180010001000105F
:103D600000100010001000100010001800200020AB
:103D700000100010001000100008000800000000F3
:103D80000030001000100010001000100010001093
:103D9000001000300010002800280044000000003F
:103DA0000000000000000000000000000000000013
:103DB0000000000000000000000000FE00200010D5
:103DC00000000000000000000000000000000000F3
:103DD0000000000000380044003C0044004C003467
:103DE000000000000040004000580064004400440F
:103DF000006400580000000000000000003800448B
:103E000000400040004400380000000000040004AE
:103E10000034004C00440044004C0034000000001A
:103E20000000000000380044007C004000440038DE
:103E300000000000000C0010007C001000100010BA
:103E40000010001000000000000000000034004CD2
:103E500000440044004C003400040078004000405E
:103E60000058006400440044004400440000000086
:103E70000010000000700010001000100010001072
:103E80000000000000100000007000100010001082
:103E900000100010001000E00040004000480050FA
:103EA0000060005000480044000000000070001056
:103EB00000100010001000100010001000000000A2
:103EC00000000000007800540054005400540054D6
:103ED000000000000000000000580064004400449E
:103EE00000440044000000000000000000380044CE
:103EF00000440044004400380000000000000000BE
:103F00000058006400440044006400580040004031
:103F1000000000000034004C00440044004C003419
:103F2000000400040000000000580064004000404D
:103F30000040004000000000000000000038004485
:103F4000003000080044003800000000002000207D
:103F50000078002000200020002000180000000051
:103F6000000000000044004400440044004C0034C1
:103F70000000000000000000004400440028002869
:103F80000028001000000000000000000054005451
:103F90000054006C00280028000000000000000011
:103FA0000044002800100010002800440000000019
:103FB0000000000000440044002800280010001009
:103FC0000010006000000000007C000800100020CD
:103FD0000040007C000000000018001000100010DD
:103FE0000020002000100010001000180010001029
:103FF0000010001000100010001000100010001041
:104000000030001000100010000800080010001020
:10401000001000300000000000000074004C0000A0
:104020000000000000000000010202030405060772
:1040300008090A0B0C0D0E0F10100F01809611804D
:10404000FFB103012C2DB203012C2DB306012C2D41
:10405000012C2DB40107C003A20284C101C5C20214
:104060000A00C3028A2AC4028AEEC5010E20003665
:1040700001C03A0105022A040000007F2B04000061
:10408000007F04E010021C07123732292D29252B4E
:104090003900010310E110031D07062E2C292D2ED7
:1040A0002E373F0000021013800A298064000000B0
:1040B000D04000080000002028000000280100086F
:1040C000F840000828000020C00600004401000855
:1040D00001000000100000000B120000141800087E
:1040E000101A000070250008070A0000BC380008FC
:0840F0000024F40000000000B0
:04000005080000ED02
:00000001FF
